{
  "_format": "hh-sol-artifact-1",
  "contractName": "CommunityDAOUpgradeable",
  "sourceName": "contracts/CommunityDAOUpgradeable.sol",
  "abi": [
    {
      "inputs": [],
      "stateMutability": "nonpayable",
      "type": "constructor"
    },
    {
      "inputs": [],
      "name": "AccessControlBadConfirmation",
      "type": "error"
    },
    {
      "inputs": [
        {
          "internalType": "address",
          "name": "account",
          "type": "address"
        },
        {
          "internalType": "bytes32",
          "name": "neededRole",
          "type": "bytes32"
        }
      ],
      "name": "AccessControlUnauthorizedAccount",
      "type": "error"
    },
    {
      "inputs": [
        {
          "internalType": "address",
          "name": "target",
          "type": "address"
        }
      ],
      "name": "AddressEmptyCode",
      "type": "error"
    },
    {
      "inputs": [
        {
          "internalType": "address",
          "name": "implementation",
          "type": "address"
        }
      ],
      "name": "ERC1967InvalidImplementation",
      "type": "error"
    },
    {
      "inputs": [],
      "name": "ERC1967NonPayable",
      "type": "error"
    },
    {
      "inputs": [],
      "name": "FailedInnerCall",
      "type": "error"
    },
    {
      "inputs": [],
      "name": "InvalidInitialization",
      "type": "error"
    },
    {
      "inputs": [],
      "name": "NotInitializing",
      "type": "error"
    },
    {
      "inputs": [],
      "name": "UUPSUnauthorizedCallContext",
      "type": "error"
    },
    {
      "inputs": [
        {
          "internalType": "bytes32",
          "name": "slot",
          "type": "bytes32"
        }
      ],
      "name": "UUPSUnsupportedProxiableUUID",
      "type": "error"
    },
    {
      "anonymous": false,
      "inputs": [
        {
          "indexed": true,
          "internalType": "uint256",
          "name": "communityId",
          "type": "uint256"
        },
        {
          "indexed": false,
          "internalType": "string",
          "name": "name",
          "type": "string"
        },
        {
          "indexed": false,
          "internalType": "enum CommunityDAOUpgradeable.CommunityType",
          "name": "communityType",
          "type": "uint8"
        },
        {
          "indexed": false,
          "internalType": "address",
          "name": "creator",
          "type": "address"
        }
      ],
      "name": "CommunityCreated",
      "type": "event"
    },
    {
      "anonymous": false,
      "inputs": [
        {
          "indexed": false,
          "internalType": "uint64",
          "name": "version",
          "type": "uint64"
        }
      ],
      "name": "Initialized",
      "type": "event"
    },
    {
      "anonymous": false,
      "inputs": [
        {
          "indexed": true,
          "internalType": "uint256",
          "name": "communityId",
          "type": "uint256"
        },
        {
          "indexed": false,
          "internalType": "address",
          "name": "member",
          "type": "address"
        }
      ],
      "name": "MemberAdded",
      "type": "event"
    },
    {
      "anonymous": false,
      "inputs": [
        {
          "indexed": true,
          "internalType": "uint256",
          "name": "communityId",
          "type": "uint256"
        },
        {
          "indexed": false,
          "internalType": "address",
          "name": "member",
          "type": "address"
        }
      ],
      "name": "MemberRemoved",
      "type": "event"
    },
    {
      "anonymous": false,
      "inputs": [
        {
          "indexed": true,
          "internalType": "bytes32",
          "name": "role",
          "type": "bytes32"
        },
        {
          "indexed": true,
          "internalType": "bytes32",
          "name": "previousAdminRole",
          "type": "bytes32"
        },
        {
          "indexed": true,
          "internalType": "bytes32",
          "name": "newAdminRole",
          "type": "bytes32"
        }
      ],
      "name": "RoleAdminChanged",
      "type": "event"
    },
    {
      "anonymous": false,
      "inputs": [
        {
          "indexed": true,
          "internalType": "bytes32",
          "name": "role",
          "type": "bytes32"
        },
        {
          "indexed": true,
          "internalType": "address",
          "name": "account",
          "type": "address"
        },
        {
          "indexed": true,
          "internalType": "address",
          "name": "sender",
          "type": "address"
        }
      ],
      "name": "RoleGranted",
      "type": "event"
    },
    {
      "anonymous": false,
      "inputs": [
        {
          "indexed": true,
          "internalType": "bytes32",
          "name": "role",
          "type": "bytes32"
        },
        {
          "indexed": true,
          "internalType": "address",
          "name": "account",
          "type": "address"
        },
        {
          "indexed": true,
          "internalType": "address",
          "name": "sender",
          "type": "address"
        }
      ],
      "name": "RoleRevoked",
      "type": "event"
    },
    {
      "anonymous": false,
      "inputs": [
        {
          "indexed": true,
          "internalType": "address",
          "name": "implementation",
          "type": "address"
        }
      ],
      "name": "Upgraded",
      "type": "event"
    },
    {
      "inputs": [],
      "name": "ADMIN_ROLE",
      "outputs": [
        {
          "internalType": "bytes32",
          "name": "",
          "type": "bytes32"
        }
      ],
      "stateMutability": "view",
      "type": "function"
    },
    {
      "inputs": [],
      "name": "COMMUNITY_ADMIN_ROLE",
      "outputs": [
        {
          "internalType": "bytes32",
          "name": "",
          "type": "bytes32"
        }
      ],
      "stateMutability": "view",
      "type": "function"
    },
    {
      "inputs": [],
      "name": "DEFAULT_ADMIN_ROLE",
      "outputs": [
        {
          "internalType": "bytes32",
          "name": "",
          "type": "bytes32"
        }
      ],
      "stateMutability": "view",
      "type": "function"
    },
    {
      "inputs": [],
      "name": "MEMBER_ROLE",
      "outputs": [
        {
          "internalType": "bytes32",
          "name": "",
          "type": "bytes32"
        }
      ],
      "stateMutability": "view",
      "type": "function"
    },
    {
      "inputs": [],
      "name": "UPGRADE_INTERFACE_VERSION",
      "outputs": [
        {
          "internalType": "string",
          "name": "",
          "type": "string"
        }
      ],
      "stateMutability": "view",
      "type": "function"
    },
    {
      "inputs": [
        {
          "internalType": "uint256",
          "name": "_communityId",
          "type": "uint256"
        },
        {
          "internalType": "address",
          "name": "_member",
          "type": "address"
        }
      ],
      "name": "addMember",
      "outputs": [],
      "stateMutability": "nonpayable",
      "type": "function"
    },
    {
      "inputs": [
        {
          "internalType": "string",
          "name": "_name",
          "type": "string"
        },
        {
          "internalType": "enum CommunityDAOUpgradeable.CommunityType",
          "name": "_communityType",
          "type": "uint8"
        }
      ],
      "name": "createCommunity",
      "outputs": [],
      "stateMutability": "nonpayable",
      "type": "function"
    },
    {
      "inputs": [
        {
          "internalType": "uint256",
          "name": "_communityId",
          "type": "uint256"
        }
      ],
      "name": "getCommunityDetails",
      "outputs": [
        {
          "internalType": "string",
          "name": "name",
          "type": "string"
        },
        {
          "internalType": "enum CommunityDAOUpgradeable.CommunityType",
          "name": "communityType",
          "type": "uint8"
        },
        {
          "internalType": "address",
          "name": "creator",
          "type": "address"
        },
        {
          "internalType": "uint256",
          "name": "memberCount",
          "type": "uint256"
        }
      ],
      "stateMutability": "view",
      "type": "function"
    },
    {
      "inputs": [
        {
          "internalType": "uint256",
          "name": "_communityId",
          "type": "uint256"
        }
      ],
      "name": "getCommunityMembers",
      "outputs": [
        {
          "internalType": "address[]",
          "name": "",
          "type": "address[]"
        }
      ],
      "stateMutability": "view",
      "type": "function"
    },
    {
      "inputs": [
        {
          "internalType": "bytes32",
          "name": "role",
          "type": "bytes32"
        }
      ],
      "name": "getRoleAdmin",
      "outputs": [
        {
          "internalType": "bytes32",
          "name": "",
          "type": "bytes32"
        }
      ],
      "stateMutability": "view",
      "type": "function"
    },
    {
      "inputs": [],
      "name": "governanceToken",
      "outputs": [
        {
          "internalType": "contract GovernanceTokenUpgradeable",
          "name": "",
          "type": "address"
        }
      ],
      "stateMutability": "view",
      "type": "function"
    },
    {
      "inputs": [
        {
          "internalType": "bytes32",
          "name": "role",
          "type": "bytes32"
        },
        {
          "internalType": "address",
          "name": "account",
          "type": "address"
        }
      ],
      "name": "grantRole",
      "outputs": [],
      "stateMutability": "nonpayable",
      "type": "function"
    },
    {
      "inputs": [
        {
          "internalType": "bytes32",
          "name": "role",
          "type": "bytes32"
        },
        {
          "internalType": "address",
          "name": "account",
          "type": "address"
        }
      ],
      "name": "hasRole",
      "outputs": [
        {
          "internalType": "bool",
          "name": "",
          "type": "bool"
        }
      ],
      "stateMutability": "view",
      "type": "function"
    },
    {
      "inputs": [
        {
          "internalType": "address",
          "name": "_governanceTokenAddress",
          "type": "address"
        }
      ],
      "name": "initialize",
      "outputs": [],
      "stateMutability": "nonpayable",
      "type": "function"
    },
    {
      "inputs": [
        {
          "internalType": "uint256",
          "name": "_communityId",
          "type": "uint256"
        },
        {
          "internalType": "address",
          "name": "_user",
          "type": "address"
        }
      ],
      "name": "isCommunityAdmin",
      "outputs": [
        {
          "internalType": "bool",
          "name": "",
          "type": "bool"
        }
      ],
      "stateMutability": "view",
      "type": "function"
    },
    {
      "inputs": [
        {
          "internalType": "uint256",
          "name": "_communityId",
          "type": "uint256"
        },
        {
          "internalType": "address",
          "name": "_member",
          "type": "address"
        }
      ],
      "name": "isMember",
      "outputs": [
        {
          "internalType": "bool",
          "name": "",
          "type": "bool"
        }
      ],
      "stateMutability": "view",
      "type": "function"
    },
    {
      "inputs": [],
      "name": "proxiableUUID",
      "outputs": [
        {
          "internalType": "bytes32",
          "name": "",
          "type": "bytes32"
        }
      ],
      "stateMutability": "view",
      "type": "function"
    },
    {
      "inputs": [
        {
          "internalType": "uint256",
          "name": "_communityId",
          "type": "uint256"
        },
        {
          "internalType": "address",
          "name": "_member",
          "type": "address"
        }
      ],
      "name": "removeMember",
      "outputs": [],
      "stateMutability": "nonpayable",
      "type": "function"
    },
    {
      "inputs": [
        {
          "internalType": "bytes32",
          "name": "role",
          "type": "bytes32"
        },
        {
          "internalType": "address",
          "name": "callerConfirmation",
          "type": "address"
        }
      ],
      "name": "renounceRole",
      "outputs": [],
      "stateMutability": "nonpayable",
      "type": "function"
    },
    {
      "inputs": [
        {
          "internalType": "bytes32",
          "name": "role",
          "type": "bytes32"
        },
        {
          "internalType": "address",
          "name": "account",
          "type": "address"
        }
      ],
      "name": "revokeRole",
      "outputs": [],
      "stateMutability": "nonpayable",
      "type": "function"
    },
    {
      "inputs": [
        {
          "internalType": "bytes4",
          "name": "interfaceId",
          "type": "bytes4"
        }
      ],
      "name": "supportsInterface",
      "outputs": [
        {
          "internalType": "bool",
          "name": "",
          "type": "bool"
        }
      ],
      "stateMutability": "view",
      "type": "function"
    },
    {
      "inputs": [
        {
          "internalType": "address",
          "name": "newImplementation",
          "type": "address"
        },
        {
          "internalType": "bytes",
          "name": "data",
          "type": "bytes"
        }
      ],
      "name": "upgradeToAndCall",
      "outputs": [],
      "stateMutability": "payable",
      "type": "function"
    }
  ],
  "bytecode": "0x60a06040523073ffffffffffffffffffffffffffffffffffffffff1660809073ffffffffffffffffffffffffffffffffffffffff168152503480156200004457600080fd5b50620000556200005b60201b60201c565b620001cf565b60006200006d6200016560201b60201c565b90508060000160089054906101000a900460ff1615620000b9576040517ff92ee8a900000000000000000000000000000000000000000000000000000000815260040160405180910390fd5b67ffffffffffffffff80168160000160009054906101000a900467ffffffffffffffff1667ffffffffffffffff1614620001625767ffffffffffffffff8160000160006101000a81548167ffffffffffffffff021916908367ffffffffffffffff1602179055507fc7f505b2f371ae2175ee4913f4499e1f2633a7b5936321eed1cdaeb6115181d267ffffffffffffffff604051620001599190620001b2565b60405180910390a15b50565b60007ff0c57e16840df040f15088dc2f81fe391c3923bec73e23a9662efc9c229c6a00905090565b600067ffffffffffffffff82169050919050565b620001ac816200018d565b82525050565b6000602082019050620001c96000830184620001a1565b92915050565b60805161311b620001f96000396000818161194c015281816119a10152611b62015261311b6000f3fe6080604052600436106101355760003560e01c806375b238fc116100ab578063a217fddf1161006f578063a217fddf14610440578063ad3cb1cc1461046b578063c4d66de814610496578063c55e9b77146104bf578063d547741f146104fc578063f96dae0a1461052557610135565b806375b238fc146103455780637d9e10f51461037057806391d14854146103ad57806395367f89146103ea578063a10f469e1461041557610135565b806352d1902d116100fd57806352d1902d146102225780635cdaa78b1461024d57806364090c98146102765780636be7658b146102b65780637199ee48146102df57806374d0a6761461031c57610135565b806301ffc9a71461013a578063248a9ca3146101775780632f2ff15d146101b457806336568abe146101dd5780634f1ef28614610206575b600080fd5b34801561014657600080fd5b50610161600480360381019061015c9190612076565b610550565b60405161016e91906120be565b60405180910390f35b34801561018357600080fd5b5061019e6004803603810190610199919061210f565b6105ca565b6040516101ab919061214b565b60405180910390f35b3480156101c057600080fd5b506101db60048036038101906101d691906121c4565b6105f8565b005b3480156101e957600080fd5b5061020460048036038101906101ff91906121c4565b61061a565b005b610220600480360381019061021b919061234a565b610695565b005b34801561022e57600080fd5b506102376106b4565b604051610244919061214b565b60405180910390f35b34801561025957600080fd5b50610274600480360381019061026f919061246c565b6106e7565b005b34801561028257600080fd5b5061029d600480360381019061029891906124fe565b61084a565b6040516102ad949392919061263f565b60405180910390f35b3480156102c257600080fd5b506102dd60048036038101906102d8919061268b565b6109d9565b005b3480156102eb57600080fd5b50610306600480360381019061030191906124fe565b610e4b565b6040516103139190612789565b60405180910390f35b34801561032857600080fd5b50610343600480360381019061033e919061268b565b610f88565b005b34801561035157600080fd5b5061035a611225565b604051610367919061214b565b60405180910390f35b34801561037c57600080fd5b506103976004803603810190610392919061268b565b611249565b6040516103a491906120be565b60405180910390f35b3480156103b957600080fd5b506103d460048036038101906103cf91906121c4565b611311565b6040516103e191906120be565b60405180910390f35b3480156103f657600080fd5b506103ff61138a565b60405161040c919061214b565b60405180910390f35b34801561042157600080fd5b5061042a6113ae565b604051610437919061214b565b60405180910390f35b34801561044c57600080fd5b506104556113d2565b604051610462919061214b565b60405180910390f35b34801561047757600080fd5b506104806113d9565b60405161048d91906127ab565b60405180910390f35b3480156104a257600080fd5b506104bd60048036038101906104b891906127cd565b611412565b005b3480156104cb57600080fd5b506104e660048036038101906104e1919061268b565b611622565b6040516104f391906120be565b60405180910390f35b34801561050857600080fd5b50610523600480360381019061051e91906121c4565b611651565b005b34801561053157600080fd5b5061053a611673565b6040516105479190612859565b60405180910390f35b60007f7965db0b000000000000000000000000000000000000000000000000000000007bffffffffffffffffffffffffffffffffffffffffffffffffffffffff1916827bffffffffffffffffffffffffffffffffffffffffffffffffffffffff191614806105c357506105c282611699565b5b9050919050565b6000806105d5611703565b905080600001600084815260200190815260200160002060010154915050919050565b610601826105ca565b61060a8161172b565b610614838361173f565b50505050565b610622611840565b73ffffffffffffffffffffffffffffffffffffffff168173ffffffffffffffffffffffffffffffffffffffff1614610686576040517f6697b23200000000000000000000000000000000000000000000000000000000815260040160405180910390fd5b6106908282611848565b505050565b61069d61194a565b6106a682611a30565b6106b08282611a41565b5050565b60006106be611b60565b7f360894a13ba1a3210667c828492db98dca3e2076cc3735a920a3ca505d382bbc60001b905090565b6000808154809291906106f9906128a3565b919050555060008054905060007f0a7cc066f24e107ff77c42c8a1bdaf1a5f775fa4a74e45530aaf9c866368f6538260405160200161073992919061292d565b6040516020818303038152906040528051906020012090506000600160008481526020019081526020016000209050848160000190816107799190612b5b565b50838160010160006101000a81548160ff021916908360018111156107a1576107a06125aa565b5b0217905550338160010160016101000a81548173ffffffffffffffffffffffffffffffffffffffff021916908373ffffffffffffffffffffffffffffffffffffffff1602179055508181600301819055506107fc823361173f565b506108078333610f88565b827f5dba7dc5b662c6a19f0541cc436c469e375fb66e53d3771e11e364aac872327986863360405161083b93929190612c2d565b60405180910390a25050505050565b6060600080600080600160008781526020019081526020016000209050600073ffffffffffffffffffffffffffffffffffffffff168160010160019054906101000a900473ffffffffffffffffffffffffffffffffffffffff1673ffffffffffffffffffffffffffffffffffffffff16036108fa576040517f08c379a00000000000000000000000000000000000000000000000000000000081526004016108f190612cb7565b60405180910390fd5b806000018160010160009054906101000a900460ff168260010160019054906101000a900473ffffffffffffffffffffffffffffffffffffffff16836002018054905083805461094990612988565b80601f016020809104026020016040519081016040528092919081815260200182805461097590612988565b80156109c25780601f10610997576101008083540402835291602001916109c2565b820191906000526020600020905b8154815290600101906020018083116109a557829003601f168201915b505050505093509450945094509450509193509193565b6000600160008481526020019081526020016000209050600073ffffffffffffffffffffffffffffffffffffffff168160010160019054906101000a900473ffffffffffffffffffffffffffffffffffffffff1673ffffffffffffffffffffffffffffffffffffffff1603610a83576040517f08c379a0000000000000000000000000000000000000000000000000000000008152600401610a7a90612cb7565b60405180910390fd5b610a8d8383611249565b610acc576040517f08c379a0000000000000000000000000000000000000000000000000000000008152600401610ac390612d23565b60405180910390fd5b610ada816003015433611311565b610b19576040517f08c379a0000000000000000000000000000000000000000000000000000000008152600401610b1090612d8f565b60405180910390fd5b60005b8160020180549050811015610cb1578273ffffffffffffffffffffffffffffffffffffffff16826002018281548110610b5857610b57612daf565b5b9060005260206000200160009054906101000a900473ffffffffffffffffffffffffffffffffffffffff1673ffffffffffffffffffffffffffffffffffffffff1603610c9e578160020160018360020180549050610bb69190612dde565b81548110610bc757610bc6612daf565b5b9060005260206000200160009054906101000a900473ffffffffffffffffffffffffffffffffffffffff16826002018281548110610c0857610c07612daf565b5b9060005260206000200160006101000a81548173ffffffffffffffffffffffffffffffffffffffff021916908373ffffffffffffffffffffffffffffffffffffffff16021790555081600201805480610c6457610c63612e12565b5b6001900381819060005260206000200160006101000a81549073ffffffffffffffffffffffffffffffffffffffff02191690559055610cb1565b8080610ca9906128a3565b915050610b1c565b50610cdc7f829b824e2329e205435d941c9f13baf578548505283d29261236d8e6596d463683611848565b506000600260009054906101000a900473ffffffffffffffffffffffffffffffffffffffff1673ffffffffffffffffffffffffffffffffffffffff16632f745c598460006040518363ffffffff1660e01b8152600401610d3d929190612e7c565b602060405180830381865afa158015610d5a573d6000803e3d6000fd5b505050506040513d601f19601f82011682018060405250810190610d7e9190612eba565b9050600260009054906101000a900473ffffffffffffffffffffffffffffffffffffffff1673ffffffffffffffffffffffffffffffffffffffff166342966c68826040518263ffffffff1660e01b8152600401610ddb9190612ee7565b600060405180830381600087803b158015610df557600080fd5b505af1158015610e09573d6000803e3d6000fd5b50505050837f1c4c9d2e56d0635d11bc47c997c6909a0d7061f55cbb8f4b27386db37553191c84604051610e3d9190612f02565b60405180910390a250505050565b60606000600160008481526020019081526020016000209050600073ffffffffffffffffffffffffffffffffffffffff168160010160019054906101000a900473ffffffffffffffffffffffffffffffffffffffff1673ffffffffffffffffffffffffffffffffffffffff1603610ef7576040517f08c379a0000000000000000000000000000000000000000000000000000000008152600401610eee90612cb7565b60405180910390fd5b80600201805480602002602001604051908101604052809291908181526020018280548015610f7b57602002820191906000526020600020905b8160009054906101000a900473ffffffffffffffffffffffffffffffffffffffff1673ffffffffffffffffffffffffffffffffffffffff1681526020019060010190808311610f31575b5050505050915050919050565b6000600160008481526020019081526020016000209050600073ffffffffffffffffffffffffffffffffffffffff168160010160019054906101000a900473ffffffffffffffffffffffffffffffffffffffff1673ffffffffffffffffffffffffffffffffffffffff1603611032576040517f08c379a000000000000000000000000000000000000000000000000000000000815260040161102990612cb7565b60405180910390fd5b61103c8383611249565b1561107c576040517f08c379a000000000000000000000000000000000000000000000000000000000815260040161107390612f69565b60405180910390fd5b61108a816003015433611311565b6110c9576040517f08c379a00000000000000000000000000000000000000000000000000000000081526004016110c090612d8f565b60405180910390fd5b80600201829080600181540180825580915050600190039060005260206000200160009091909190916101000a81548173ffffffffffffffffffffffffffffffffffffffff021916908373ffffffffffffffffffffffffffffffffffffffff1602179055506111587f829b824e2329e205435d941c9f13baf578548505283d29261236d8e6596d46368361173f565b50600260009054906101000a900473ffffffffffffffffffffffffffffffffffffffff1673ffffffffffffffffffffffffffffffffffffffff1663a144819483856040518363ffffffff1660e01b81526004016111b6929190612f89565b600060405180830381600087803b1580156111d057600080fd5b505af11580156111e4573d6000803e3d6000fd5b50505050827ff328ac0f8bcae00933fe87ba0aa2d0d505c1df94bc9c1aa05b8441c28b74032c836040516112189190612f02565b60405180910390a2505050565b7fa49807205ce4d355092ef5a8a18f56e8913cf4a201fbe287825b095693c2177581565b60008060016000858152602001908152602001600020905060005b8160020180549050811015611304578373ffffffffffffffffffffffffffffffffffffffff168260020182815481106112a05761129f612daf565b5b9060005260206000200160009054906101000a900473ffffffffffffffffffffffffffffffffffffffff1673ffffffffffffffffffffffffffffffffffffffff16036112f15760019250505061130b565b80806112fc906128a3565b915050611264565b5060009150505b92915050565b60008061131c611703565b905080600001600085815260200190815260200160002060000160008473ffffffffffffffffffffffffffffffffffffffff1673ffffffffffffffffffffffffffffffffffffffff16815260200190815260200160002060009054906101000a900460ff1691505092915050565b7f0a7cc066f24e107ff77c42c8a1bdaf1a5f775fa4a74e45530aaf9c866368f65381565b7f829b824e2329e205435d941c9f13baf578548505283d29261236d8e6596d463681565b6000801b81565b6040518060400160405280600581526020017f352e302e3000000000000000000000000000000000000000000000000000000081525081565b600061141c611be7565b905060008160000160089054906101000a900460ff1615905060008260000160009054906101000a900467ffffffffffffffff1690506000808267ffffffffffffffff1614801561146a5750825b9050600060018367ffffffffffffffff1614801561149f575060003073ffffffffffffffffffffffffffffffffffffffff163b145b9050811580156114ad575080155b156114e4576040517ff92ee8a900000000000000000000000000000000000000000000000000000000815260040160405180910390fd5b60018560000160006101000a81548167ffffffffffffffff021916908367ffffffffffffffff16021790555083156115345760018560000160086101000a81548160ff0219169083151502179055505b61153c611c0f565b611544611c19565b6115516000801b3361173f565b5061157c7fa49807205ce4d355092ef5a8a18f56e8913cf4a201fbe287825b095693c217753361173f565b5085600260006101000a81548173ffffffffffffffffffffffffffffffffffffffff021916908373ffffffffffffffffffffffffffffffffffffffff160217905550831561161a5760008560000160086101000a81548160ff0219169083151502179055507fc7f505b2f371ae2175ee4913f4499e1f2633a7b5936321eed1cdaeb6115181d260016040516116119190613001565b60405180910390a15b505050505050565b600080600160008581526020019081526020016000209050611648816003015484611311565b91505092915050565b61165a826105ca565b6116638161172b565b61166d8383611848565b50505050565b600260009054906101000a900473ffffffffffffffffffffffffffffffffffffffff1681565b60007f01ffc9a7000000000000000000000000000000000000000000000000000000007bffffffffffffffffffffffffffffffffffffffffffffffffffffffff1916827bffffffffffffffffffffffffffffffffffffffffffffffffffffffff1916149050919050565b60007f02dd7bc7dec4dceedda775e58dd541e08a116c6c53815c0bd028192f7b626800905090565b61173c81611737611840565b611c23565b50565b60008061174a611703565b90506117568484611311565b61183457600181600001600086815260200190815260200160002060000160008573ffffffffffffffffffffffffffffffffffffffff1673ffffffffffffffffffffffffffffffffffffffff16815260200190815260200160002060006101000a81548160ff0219169083151502179055506117d0611840565b73ffffffffffffffffffffffffffffffffffffffff168373ffffffffffffffffffffffffffffffffffffffff16857f2f8788117e7eff1d82e926ec794901d17c78024a50270940304540a733656f0d60405160405180910390a4600191505061183a565b60009150505b92915050565b600033905090565b600080611853611703565b905061185f8484611311565b1561193e57600081600001600086815260200190815260200160002060000160008573ffffffffffffffffffffffffffffffffffffffff1673ffffffffffffffffffffffffffffffffffffffff16815260200190815260200160002060006101000a81548160ff0219169083151502179055506118da611840565b73ffffffffffffffffffffffffffffffffffffffff168373ffffffffffffffffffffffffffffffffffffffff16857ff6391f5c32d9c69d2a47ea670b442974b53935d1edc7fd64eb21e047a839171b60405160405180910390a46001915050611944565b60009150505b92915050565b7f000000000000000000000000000000000000000000000000000000000000000073ffffffffffffffffffffffffffffffffffffffff163073ffffffffffffffffffffffffffffffffffffffff1614806119f757507f000000000000000000000000000000000000000000000000000000000000000073ffffffffffffffffffffffffffffffffffffffff166119de611c74565b73ffffffffffffffffffffffffffffffffffffffff1614155b15611a2e576040517fe07c8dba00000000000000000000000000000000000000000000000000000000815260040160405180910390fd5b565b6000801b611a3d8161172b565b5050565b8173ffffffffffffffffffffffffffffffffffffffff166352d1902d6040518163ffffffff1660e01b8152600401602060405180830381865afa925050508015611aa957506040513d601f19601f82011682018060405250810190611aa69190613031565b60015b611aea57816040517f4c9c8ce3000000000000000000000000000000000000000000000000000000008152600401611ae19190612f02565b60405180910390fd5b7f360894a13ba1a3210667c828492db98dca3e2076cc3735a920a3ca505d382bbc60001b8114611b5157806040517faa1d49a4000000000000000000000000000000000000000000000000000000008152600401611b48919061214b565b60405180910390fd5b611b5b8383611ccb565b505050565b7f000000000000000000000000000000000000000000000000000000000000000073ffffffffffffffffffffffffffffffffffffffff163073ffffffffffffffffffffffffffffffffffffffff1614611be5576040517fe07c8dba00000000000000000000000000000000000000000000000000000000815260040160405180910390fd5b565b60007ff0c57e16840df040f15088dc2f81fe391c3923bec73e23a9662efc9c229c6a00905090565b611c17611d3e565b565b611c21611d3e565b565b611c2d8282611311565b611c705780826040517fe2517d3f000000000000000000000000000000000000000000000000000000008152600401611c6792919061305e565b60405180910390fd5b5050565b6000611ca27f360894a13ba1a3210667c828492db98dca3e2076cc3735a920a3ca505d382bbc60001b611d7e565b60000160009054906101000a900473ffffffffffffffffffffffffffffffffffffffff16905090565b611cd482611d88565b8173ffffffffffffffffffffffffffffffffffffffff167fbc7cd75a20ee27fd9adebab32041f755214dbc6bffa90cc0225b39da2e5c2d3b60405160405180910390a2600081511115611d3157611d2b8282611e55565b50611d3a565b611d39611ed9565b5b5050565b611d46611f16565b611d7c576040517fd7e6bcf800000000000000000000000000000000000000000000000000000000815260040160405180910390fd5b565b6000819050919050565b60008173ffffffffffffffffffffffffffffffffffffffff163b03611de457806040517f4c9c8ce3000000000000000000000000000000000000000000000000000000008152600401611ddb9190612f02565b60405180910390fd5b80611e117f360894a13ba1a3210667c828492db98dca3e2076cc3735a920a3ca505d382bbc60001b611d7e565b60000160006101000a81548173ffffffffffffffffffffffffffffffffffffffff021916908373ffffffffffffffffffffffffffffffffffffffff16021790555050565b60606000808473ffffffffffffffffffffffffffffffffffffffff1684604051611e7f91906130ce565b600060405180830381855af49150503d8060008114611eba576040519150601f19603f3d011682016040523d82523d6000602084013e611ebf565b606091505b5091509150611ecf858383611f36565b9250505092915050565b6000341115611f14576040517fb398979f00000000000000000000000000000000000000000000000000000000815260040160405180910390fd5b565b6000611f20611be7565b60000160089054906101000a900460ff16905090565b606082611f4b57611f4682611fc5565b611fbd565b60008251148015611f73575060008473ffffffffffffffffffffffffffffffffffffffff163b145b15611fb557836040517f9996b315000000000000000000000000000000000000000000000000000000008152600401611fac9190612f02565b60405180910390fd5b819050611fbe565b5b9392505050565b600081511115611fd85780518082602001fd5b6040517f1425ea4200000000000000000000000000000000000000000000000000000000815260040160405180910390fd5b6000604051905090565b600080fd5b600080fd5b60007fffffffff0000000000000000000000000000000000000000000000000000000082169050919050565b6120538161201e565b811461205e57600080fd5b50565b6000813590506120708161204a565b92915050565b60006020828403121561208c5761208b612014565b5b600061209a84828501612061565b91505092915050565b60008115159050919050565b6120b8816120a3565b82525050565b60006020820190506120d360008301846120af565b92915050565b6000819050919050565b6120ec816120d9565b81146120f757600080fd5b50565b600081359050612109816120e3565b92915050565b60006020828403121561212557612124612014565b5b6000612133848285016120fa565b91505092915050565b612145816120d9565b82525050565b6000602082019050612160600083018461213c565b92915050565b600073ffffffffffffffffffffffffffffffffffffffff82169050919050565b600061219182612166565b9050919050565b6121a181612186565b81146121ac57600080fd5b50565b6000813590506121be81612198565b92915050565b600080604083850312156121db576121da612014565b5b60006121e9858286016120fa565b92505060206121fa858286016121af565b9150509250929050565b600080fd5b600080fd5b6000601f19601f8301169050919050565b7f4e487b7100000000000000000000000000000000000000000000000000000000600052604160045260246000fd5b6122578261220e565b810181811067ffffffffffffffff821117156122765761227561221f565b5b80604052505050565b600061228961200a565b9050612295828261224e565b919050565b600067ffffffffffffffff8211156122b5576122b461221f565b5b6122be8261220e565b9050602081019050919050565b82818337600083830152505050565b60006122ed6122e88461229a565b61227f565b90508281526020810184848401111561230957612308612209565b5b6123148482856122cb565b509392505050565b600082601f83011261233157612330612204565b5b81356123418482602086016122da565b91505092915050565b6000806040838503121561236157612360612014565b5b600061236f858286016121af565b925050602083013567ffffffffffffffff8111156123905761238f612019565b5b61239c8582860161231c565b9150509250929050565b600067ffffffffffffffff8211156123c1576123c061221f565b5b6123ca8261220e565b9050602081019050919050565b60006123ea6123e5846123a6565b61227f565b90508281526020810184848401111561240657612405612209565b5b6124118482856122cb565b509392505050565b600082601f83011261242e5761242d612204565b5b813561243e8482602086016123d7565b91505092915050565b6002811061245457600080fd5b50565b60008135905061246681612447565b92915050565b6000806040838503121561248357612482612014565b5b600083013567ffffffffffffffff8111156124a1576124a0612019565b5b6124ad85828601612419565b92505060206124be85828601612457565b9150509250929050565b6000819050919050565b6124db816124c8565b81146124e657600080fd5b50565b6000813590506124f8816124d2565b92915050565b60006020828403121561251457612513612014565b5b6000612522848285016124e9565b91505092915050565b600081519050919050565b600082825260208201905092915050565b60005b8381101561256557808201518184015260208101905061254a565b60008484015250505050565b600061257c8261252b565b6125868185612536565b9350612596818560208601612547565b61259f8161220e565b840191505092915050565b7f4e487b7100000000000000000000000000000000000000000000000000000000600052602160045260246000fd5b600281106125ea576125e96125aa565b5b50565b60008190506125fb826125d9565b919050565b600061260b826125ed565b9050919050565b61261b81612600565b82525050565b61262a81612186565b82525050565b612639816124c8565b82525050565b600060808201905081810360008301526126598187612571565b90506126686020830186612612565b6126756040830185612621565b6126826060830184612630565b95945050505050565b600080604083850312156126a2576126a1612014565b5b60006126b0858286016124e9565b92505060206126c1858286016121af565b9150509250929050565b600081519050919050565b600082825260208201905092915050565b6000819050602082019050919050565b61270081612186565b82525050565b600061271283836126f7565b60208301905092915050565b6000602082019050919050565b6000612736826126cb565b61274081856126d6565b935061274b836126e7565b8060005b8381101561277c5781516127638882612706565b975061276e8361271e565b92505060018101905061274f565b5085935050505092915050565b600060208201905081810360008301526127a3818461272b565b905092915050565b600060208201905081810360008301526127c58184612571565b905092915050565b6000602082840312156127e3576127e2612014565b5b60006127f1848285016121af565b91505092915050565b6000819050919050565b600061281f61281a61281584612166565b6127fa565b612166565b9050919050565b600061283182612804565b9050919050565b600061284382612826565b9050919050565b61285381612838565b82525050565b600060208201905061286e600083018461284a565b92915050565b7f4e487b7100000000000000000000000000000000000000000000000000000000600052601160045260246000fd5b60006128ae826124c8565b91507fffffffffffffffffffffffffffffffffffffffffffffffffffffffffffffffff82036128e0576128df612874565b5b600182019050919050565b6000819050919050565b612906612901826120d9565b6128eb565b82525050565b6000819050919050565b612927612922826124c8565b61290c565b82525050565b600061293982856128f5565b6020820191506129498284612916565b6020820191508190509392505050565b7f4e487b7100000000000000000000000000000000000000000000000000000000600052602260045260246000fd5b600060028204905060018216806129a057607f821691505b6020821081036129b3576129b2612959565b5b50919050565b60008190508160005260206000209050919050565b60006020601f8301049050919050565b600082821b905092915050565b600060088302612a1b7fffffffffffffffffffffffffffffffffffffffffffffffffffffffffffffffff826129de565b612a2586836129de565b95508019841693508086168417925050509392505050565b6000612a58612a53612a4e846124c8565b6127fa565b6124c8565b9050919050565b6000819050919050565b612a7283612a3d565b612a86612a7e82612a5f565b8484546129eb565b825550505050565b600090565b612a9b612a8e565b612aa6818484612a69565b505050565b5b81811015612aca57612abf600082612a93565b600181019050612aac565b5050565b601f821115612b0f57612ae0816129b9565b612ae9846129ce565b81016020851015612af8578190505b612b0c612b04856129ce565b830182612aab565b50505b505050565b600082821c905092915050565b6000612b3260001984600802612b14565b1980831691505092915050565b6000612b4b8383612b21565b9150826002028217905092915050565b612b648261252b565b67ffffffffffffffff811115612b7d57612b7c61221f565b5b612b878254612988565b612b92828285612ace565b600060209050601f831160018114612bc55760008415612bb3578287015190505b612bbd8582612b3f565b865550612c25565b601f198416612bd3866129b9565b60005b82811015612bfb57848901518255600182019150602085019450602081019050612bd6565b86831015612c185784890151612c14601f891682612b21565b8355505b6001600288020188555050505b505050505050565b60006060820190508181036000830152612c478186612571565b9050612c566020830185612612565b612c636040830184612621565b949350505050565b7f436f6d6d756e69747920646f6573206e6f742065786973740000000000000000600082015250565b6000612ca1601883612536565b9150612cac82612c6b565b602082019050919050565b60006020820190508181036000830152612cd081612c94565b9050919050565b7f4e6f742061206d656d6265720000000000000000000000000000000000000000600082015250565b6000612d0d600c83612536565b9150612d1882612cd7565b602082019050919050565b60006020820190508181036000830152612d3c81612d00565b9050919050565b7f43616c6c6572206973206e6f74206120636f6d6d756e6974792061646d696e00600082015250565b6000612d79601f83612536565b9150612d8482612d43565b602082019050919050565b60006020820190508181036000830152612da881612d6c565b9050919050565b7f4e487b7100000000000000000000000000000000000000000000000000000000600052603260045260246000fd5b6000612de9826124c8565b9150612df4836124c8565b9250828203905081811115612e0c57612e0b612874565b5b92915050565b7f4e487b7100000000000000000000000000000000000000000000000000000000600052603160045260246000fd5b6000819050919050565b6000612e66612e61612e5c84612e41565b6127fa565b6124c8565b9050919050565b612e7681612e4b565b82525050565b6000604082019050612e916000830185612621565b612e9e6020830184612e6d565b9392505050565b600081519050612eb4816124d2565b92915050565b600060208284031215612ed057612ecf612014565b5b6000612ede84828501612ea5565b91505092915050565b6000602082019050612efc6000830184612630565b92915050565b6000602082019050612f176000830184612621565b92915050565b7f416c72656164792061206d656d62657200000000000000000000000000000000600082015250565b6000612f53601083612536565b9150612f5e82612f1d565b602082019050919050565b60006020820190508181036000830152612f8281612f46565b9050919050565b6000604082019050612f9e6000830185612621565b612fab6020830184612630565b9392505050565b6000819050919050565b600067ffffffffffffffff82169050919050565b6000612feb612fe6612fe184612fb2565b6127fa565b612fbc565b9050919050565b612ffb81612fd0565b82525050565b60006020820190506130166000830184612ff2565b92915050565b60008151905061302b816120e3565b92915050565b60006020828403121561304757613046612014565b5b60006130558482850161301c565b91505092915050565b60006040820190506130736000830185612621565b613080602083018461213c565b9392505050565b600081519050919050565b600081905092915050565b60006130a882613087565b6130b28185613092565b93506130c2818560208601612547565b80840191505092915050565b60006130da828461309d565b91508190509291505056fea2646970667358221220d52dce06c3d395dcb0fb6f5b91cd2e6ef9af9803c099920dd8aac580fdadfb7e64736f6c63430008140033",
  "linkReferences": {},
  "deployedLinkReferences": {}
}