{
  "_format": "hh-sol-artifact-1",
  "contractName": "FundManagementUpgradeable",
  "sourceName": "contracts/FundManagement.sol",
  "abi": [
    {
      "inputs": [],
      "stateMutability": "nonpayable",
      "type": "constructor"
    },
    {
      "inputs": [
        {
          "internalType": "address",
          "name": "target",
          "type": "address"
        }
      ],
      "name": "AddressEmptyCode",
      "type": "error"
    },
    {
      "inputs": [
        {
          "internalType": "address",
          "name": "implementation",
          "type": "address"
        }
      ],
      "name": "ERC1967InvalidImplementation",
      "type": "error"
    },
    {
      "inputs": [],
      "name": "ERC1967NonPayable",
      "type": "error"
    },
    {
      "inputs": [],
      "name": "FailedInnerCall",
      "type": "error"
    },
    {
      "inputs": [],
      "name": "InvalidInitialization",
      "type": "error"
    },
    {
      "inputs": [],
      "name": "NotInitializing",
      "type": "error"
    },
    {
      "inputs": [
        {
          "internalType": "address",
          "name": "owner",
          "type": "address"
        }
      ],
      "name": "OwnableInvalidOwner",
      "type": "error"
    },
    {
      "inputs": [
        {
          "internalType": "address",
          "name": "account",
          "type": "address"
        }
      ],
      "name": "OwnableUnauthorizedAccount",
      "type": "error"
    },
    {
      "inputs": [],
      "name": "UUPSUnauthorizedCallContext",
      "type": "error"
    },
    {
      "inputs": [
        {
          "internalType": "bytes32",
          "name": "slot",
          "type": "bytes32"
        }
      ],
      "name": "UUPSUnsupportedProxiableUUID",
      "type": "error"
    },
    {
      "anonymous": false,
      "inputs": [
        {
          "indexed": true,
          "internalType": "uint256",
          "name": "communityId",
          "type": "uint256"
        },
        {
          "indexed": false,
          "internalType": "uint256",
          "name": "amount",
          "type": "uint256"
        }
      ],
      "name": "FundReceived",
      "type": "event"
    },
    {
      "anonymous": false,
      "inputs": [
        {
          "indexed": true,
          "internalType": "uint256",
          "name": "communityId",
          "type": "uint256"
        },
        {
          "indexed": false,
          "internalType": "address",
          "name": "recipient",
          "type": "address"
        },
        {
          "indexed": false,
          "internalType": "uint256",
          "name": "amount",
          "type": "uint256"
        }
      ],
      "name": "FundTransferInitiated",
      "type": "event"
    },
    {
      "anonymous": false,
      "inputs": [
        {
          "indexed": false,
          "internalType": "uint64",
          "name": "version",
          "type": "uint64"
        }
      ],
      "name": "Initialized",
      "type": "event"
    },
    {
      "anonymous": false,
      "inputs": [
        {
          "indexed": true,
          "internalType": "address",
          "name": "previousOwner",
          "type": "address"
        },
        {
          "indexed": true,
          "internalType": "address",
          "name": "newOwner",
          "type": "address"
        }
      ],
      "name": "OwnershipTransferred",
      "type": "event"
    },
    {
      "anonymous": false,
      "inputs": [
        {
          "indexed": true,
          "internalType": "address",
          "name": "implementation",
          "type": "address"
        }
      ],
      "name": "Upgraded",
      "type": "event"
    },
    {
      "inputs": [],
      "name": "UPGRADE_INTERFACE_VERSION",
      "outputs": [
        {
          "internalType": "string",
          "name": "",
          "type": "string"
        }
      ],
      "stateMutability": "view",
      "type": "function"
    },
    {
      "inputs": [
        {
          "internalType": "uint256",
          "name": "",
          "type": "uint256"
        }
      ],
      "name": "communityBalances",
      "outputs": [
        {
          "internalType": "uint256",
          "name": "",
          "type": "uint256"
        }
      ],
      "stateMutability": "view",
      "type": "function"
    },
    {
      "inputs": [],
      "name": "communityDAO",
      "outputs": [
        {
          "internalType": "contract CommunityDAOUpgradeable",
          "name": "",
          "type": "address"
        }
      ],
      "stateMutability": "view",
      "type": "function"
    },
    {
      "inputs": [
        {
          "internalType": "uint256",
          "name": "_communityId",
          "type": "uint256"
        }
      ],
      "name": "getCommunityBalance",
      "outputs": [
        {
          "internalType": "uint256",
          "name": "",
          "type": "uint256"
        }
      ],
      "stateMutability": "view",
      "type": "function"
    },
    {
      "inputs": [
        {
          "internalType": "address",
          "name": "_communityDAOAddress",
          "type": "address"
        },
        {
          "internalType": "address",
          "name": "_votingMechanismAddress",
          "type": "address"
        }
      ],
      "name": "initialize",
      "outputs": [],
      "stateMutability": "nonpayable",
      "type": "function"
    },
    {
      "inputs": [
        {
          "internalType": "uint256",
          "name": "_proposalId",
          "type": "uint256"
        }
      ],
      "name": "initiateFundTransfer",
      "outputs": [],
      "stateMutability": "nonpayable",
      "type": "function"
    },
    {
      "inputs": [],
      "name": "owner",
      "outputs": [
        {
          "internalType": "address",
          "name": "",
          "type": "address"
        }
      ],
      "stateMutability": "view",
      "type": "function"
    },
    {
      "inputs": [],
      "name": "proxiableUUID",
      "outputs": [
        {
          "internalType": "bytes32",
          "name": "",
          "type": "bytes32"
        }
      ],
      "stateMutability": "view",
      "type": "function"
    },
    {
      "inputs": [
        {
          "internalType": "uint256",
          "name": "_communityId",
          "type": "uint256"
        }
      ],
      "name": "receiveFunds",
      "outputs": [],
      "stateMutability": "payable",
      "type": "function"
    },
    {
      "inputs": [],
      "name": "renounceOwnership",
      "outputs": [],
      "stateMutability": "nonpayable",
      "type": "function"
    },
    {
      "inputs": [
        {
          "internalType": "address",
          "name": "newOwner",
          "type": "address"
        }
      ],
      "name": "transferOwnership",
      "outputs": [],
      "stateMutability": "nonpayable",
      "type": "function"
    },
    {
      "inputs": [
        {
          "internalType": "address",
          "name": "newImplementation",
          "type": "address"
        },
        {
          "internalType": "bytes",
          "name": "data",
          "type": "bytes"
        }
      ],
      "name": "upgradeToAndCall",
      "outputs": [],
      "stateMutability": "payable",
      "type": "function"
    },
    {
      "inputs": [],
      "name": "votingMechanism",
      "outputs": [
        {
          "internalType": "contract VotingMechanismUpgradeable",
          "name": "",
          "type": "address"
        }
      ],
      "stateMutability": "view",
      "type": "function"
    }
  ],
  "bytecode": "0x60a06040523073ffffffffffffffffffffffffffffffffffffffff1660809073ffffffffffffffffffffffffffffffffffffffff168152503480156200004457600080fd5b50620000556200005b60201b60201c565b620001cf565b60006200006d6200016560201b60201c565b90508060000160089054906101000a900460ff1615620000b9576040517ff92ee8a900000000000000000000000000000000000000000000000000000000815260040160405180910390fd5b67ffffffffffffffff80168160000160009054906101000a900467ffffffffffffffff1667ffffffffffffffff1614620001625767ffffffffffffffff8160000160006101000a81548167ffffffffffffffff021916908367ffffffffffffffff1602179055507fc7f505b2f371ae2175ee4913f4499e1f2633a7b5936321eed1cdaeb6115181d267ffffffffffffffff604051620001599190620001b2565b60405180910390a15b50565b60007ff0c57e16840df040f15088dc2f81fe391c3923bec73e23a9662efc9c229c6a00905090565b600067ffffffffffffffff82169050919050565b620001ac816200018d565b82525050565b6000602082019050620001c96000830184620001a1565b92915050565b608051612c5f620001f960003960008181610c3001528181610c850152610e400152612c5f6000f3fe6080604052600436106100c25760003560e01c80638827e09b1161007f578063a777b1ef11610059578063a777b1ef14610228578063ad3cb1cc14610265578063f2fde38b14610290578063f4a9e6ea146102b9576100c2565b80638827e09b146101a45780638da5cb5b146101c05780639b1fd765146101eb576100c2565b8063439da879146100c7578063485cc955146100f25780634f1ef2861461011b57806352d1902d14610137578063715018a6146101625780638207546e14610179575b600080fd5b3480156100d357600080fd5b506100dc6102e2565b6040516100e99190611ce6565b60405180910390f35b3480156100fe57600080fd5b5061011960048036038101906101149190611d53565b610308565b005b61013560048036038101906101309190611ed9565b610521565b005b34801561014357600080fd5b5061014c610540565b6040516101599190611f4e565b60405180910390f35b34801561016e57600080fd5b50610177610573565b005b34801561018557600080fd5b5061018e610587565b60405161019b9190611f8a565b60405180910390f35b6101be60048036038101906101b99190611fdb565b6105ab565b005b3480156101cc57600080fd5b506101d56106eb565b6040516101e29190612017565b60405180910390f35b3480156101f757600080fd5b50610212600480360381019061020d9190611fdb565b610723565b60405161021f9190612041565b60405180910390f35b34801561023457600080fd5b5061024f600480360381019061024a9190611fdb565b610740565b60405161025c9190612041565b60405180910390f35b34801561027157600080fd5b5061027a610758565b60405161028791906120db565b60405180910390f35b34801561029c57600080fd5b506102b760048036038101906102b291906120fd565b610791565b005b3480156102c557600080fd5b506102e060048036038101906102db9190611fdb565b610817565b005b600160009054906101000a900473ffffffffffffffffffffffffffffffffffffffff1681565b6000610312610be8565b905060008160000160089054906101000a900460ff1615905060008260000160009054906101000a900467ffffffffffffffff1690506000808267ffffffffffffffff161480156103605750825b9050600060018367ffffffffffffffff16148015610395575060003073ffffffffffffffffffffffffffffffffffffffff163b145b9050811580156103a3575080155b156103da576040517ff92ee8a900000000000000000000000000000000000000000000000000000000815260040160405180910390fd5b60018560000160006101000a81548167ffffffffffffffff021916908367ffffffffffffffff160217905550831561042a5760018560000160086101000a81548160ff0219169083151502179055505b61043333610c10565b61043b610c24565b866000806101000a81548173ffffffffffffffffffffffffffffffffffffffff021916908373ffffffffffffffffffffffffffffffffffffffff16021790555085600160006101000a81548173ffffffffffffffffffffffffffffffffffffffff021916908373ffffffffffffffffffffffffffffffffffffffff16021790555083156105185760008560000160086101000a81548160ff0219169083151502179055507fc7f505b2f371ae2175ee4913f4499e1f2633a7b5936321eed1cdaeb6115181d2600160405161050f9190612179565b60405180910390a15b50505050505050565b610529610c2e565b61053282610d14565b61053c8282610d1f565b5050565b600061054a610e3e565b7f360894a13ba1a3210667c828492db98dca3e2076cc3735a920a3ca505d382bbc60001b905090565b61057b610ec5565b6105856000610f4c565b565b60008054906101000a900473ffffffffffffffffffffffffffffffffffffffff1681565b60008054906101000a900473ffffffffffffffffffffffffffffffffffffffff1673ffffffffffffffffffffffffffffffffffffffff16637d9e10f582336040518363ffffffff1660e01b8152600401610606929190612194565b602060405180830381865afa158015610623573d6000803e3d6000fd5b505050506040513d601f19601f8201168201806040525081019061064791906121f5565b610686576040517f08c379a000000000000000000000000000000000000000000000000000000000815260040161067d9061226e565b60405180910390fd5b346002600083815260200190815260200160002060008282546106a991906122bd565b92505081905550807fbc9080f6805b6f5bd69034f9211cecd3fea6d4a76be8409803f64fd5789d8b71346040516106e09190612041565b60405180910390a250565b6000806106f6611023565b90508060000160009054906101000a900473ffffffffffffffffffffffffffffffffffffffff1691505090565b600060026000838152602001908152602001600020549050919050565b60026020528060005260406000206000915090505481565b6040518060400160405280600581526020017f352e302e3000000000000000000000000000000000000000000000000000000081525081565b610799610ec5565b600073ffffffffffffffffffffffffffffffffffffffff168173ffffffffffffffffffffffffffffffffffffffff160361080b5760006040517f1e4fbdf70000000000000000000000000000000000000000000000000000000081526004016108029190612017565b60405180910390fd5b61081481610f4c565b50565b6000806000806000600160009054906101000a900473ffffffffffffffffffffffffffffffffffffffff1673ffffffffffffffffffffffffffffffffffffffff16633b4d01a7876040518263ffffffff1660e01b815260040161087a9190612041565b600060405180830381865afa158015610897573d6000803e3d6000fd5b505050506040513d6000823e3d601f19601f820116820180604052508101906108c091906123a7565b965050509450945094509450801561090d576040517f08c379a0000000000000000000000000000000000000000000000000000000008152600401610904906124b1565b60405180910390fd5b81831161094f576040517f08c379a00000000000000000000000000000000000000000000000000000000081526004016109469061251d565b60405180910390fd5b6000610990856040518060400160405280600181526020017f3a0000000000000000000000000000000000000000000000000000000000000081525061104b565b905060038151148015610a0757506040516020016109ad90612594565b60405160208183030381529060405280519060200120816000815181106109d7576109d66125a9565b5b60200260200101516040516020016109ef9190612609565b60405160208183030381529060405280519060200120145b610a46576040517f08c379a0000000000000000000000000000000000000000000000000000000008152600401610a3d9061266c565b60405180910390fd5b6000610a6c82600181518110610a5f57610a5e6125a9565b5b6020026020010151611288565b90506000610a9483600281518110610a8757610a866125a9565b5b6020026020010151611556565b905080600260008a8152602001908152602001600020541015610aec576040517f08c379a0000000000000000000000000000000000000000000000000000000008152600401610ae3906126d8565b60405180910390fd5b80600260008a81526020019081526020016000206000828254610b0f91906126f8565b92505081905550877fed8b0155d3e91f407a99336b1da99b0be1992e35bc68a6c293f705ab3e734e8d8383604051610b4892919061272c565b60405180910390a2600160009054906101000a900473ffffffffffffffffffffffffffffffffffffffff1673ffffffffffffffffffffffffffffffffffffffff16630d61b5198a6040518263ffffffff1660e01b8152600401610bab9190612041565b600060405180830381600087803b158015610bc557600080fd5b505af1158015610bd9573d6000803e3d6000fd5b50505050505050505050505050565b60007ff0c57e16840df040f15088dc2f81fe391c3923bec73e23a9662efc9c229c6a00905090565b610c1861156a565b610c21816115aa565b50565b610c2c61156a565b565b7f000000000000000000000000000000000000000000000000000000000000000073ffffffffffffffffffffffffffffffffffffffff163073ffffffffffffffffffffffffffffffffffffffff161480610cdb57507f000000000000000000000000000000000000000000000000000000000000000073ffffffffffffffffffffffffffffffffffffffff16610cc2611630565b73ffffffffffffffffffffffffffffffffffffffff1614155b15610d12576040517fe07c8dba00000000000000000000000000000000000000000000000000000000815260040160405180910390fd5b565b610d1c610ec5565b50565b8173ffffffffffffffffffffffffffffffffffffffff166352d1902d6040518163ffffffff1660e01b8152600401602060405180830381865afa925050508015610d8757506040513d601f19601f82011682018060405250810190610d849190612781565b60015b610dc857816040517f4c9c8ce3000000000000000000000000000000000000000000000000000000008152600401610dbf9190612017565b60405180910390fd5b7f360894a13ba1a3210667c828492db98dca3e2076cc3735a920a3ca505d382bbc60001b8114610e2f57806040517faa1d49a4000000000000000000000000000000000000000000000000000000008152600401610e269190611f4e565b60405180910390fd5b610e398383611687565b505050565b7f000000000000000000000000000000000000000000000000000000000000000073ffffffffffffffffffffffffffffffffffffffff163073ffffffffffffffffffffffffffffffffffffffff1614610ec3576040517fe07c8dba00000000000000000000000000000000000000000000000000000000815260040160405180910390fd5b565b610ecd6116fa565b73ffffffffffffffffffffffffffffffffffffffff16610eeb6106eb565b73ffffffffffffffffffffffffffffffffffffffff1614610f4a57610f0e6116fa565b6040517f118cdaa7000000000000000000000000000000000000000000000000000000008152600401610f419190612017565b60405180910390fd5b565b6000610f56611023565b905060008160000160009054906101000a900473ffffffffffffffffffffffffffffffffffffffff169050828260000160006101000a81548173ffffffffffffffffffffffffffffffffffffffff021916908373ffffffffffffffffffffffffffffffffffffffff1602179055508273ffffffffffffffffffffffffffffffffffffffff168173ffffffffffffffffffffffffffffffffffffffff167f8be0079c531659141344cd1fd0a4f28419497f9722a3daafe3b4186f6b6457e060405160405180910390a3505050565b60007f9016d09d72d40fdae2fd8ceac6b6234c7706214fd39c1cd1e609a0528c199300905090565b6060600083905060006001905060005b825181101561110c5784600081518110611078576110776125a9565b5b602001015160f81c60f81b7effffffffffffffffffffffffffffffffffffffffffffffffffffffffffffff19168382815181106110b8576110b76125a9565b5b602001015160f81c60f81b7effffffffffffffffffffffffffffffffffffffffffffffffffffffffffffff1916036110f95781806110f5906127ae565b9250505b8080611104906127ae565b91505061105b565b5060008167ffffffffffffffff81111561112957611128611dae565b5b60405190808252806020026020018201604052801561115c57816020015b60608152602001906001900390816111475790505b509050600091506000805b84518110156112505786600081518110611184576111836125a9565b5b602001015160f81c60f81b7effffffffffffffffffffffffffffffffffffffffffffffffffffffffffffff19168582815181106111c4576111c36125a9565b5b602001015160f81c60f81b7effffffffffffffffffffffffffffffffffffffffffffffffffffffffffffff19160361123d57611201888383611702565b838581518110611214576112136125a9565b5b602002602001018190525060018161122c91906122bd565b91508380611239906127ae565b9450505b8080611248906127ae565b915050611167565b5061125d87828651611702565b8284815181106112705761126f6125a9565b5b60200260200101819052508194505050505092915050565b600080829050600080806000600290505b602a81101561154957610100846112b091906127f6565b93508481815181106112c5576112c46125a9565b5b602001015160f81c60f81b60f81c60ff169250846001826112e691906122bd565b815181106112f7576112f66125a9565b5b602001015160f81c60f81b60f81c60ff16915060618373ffffffffffffffffffffffffffffffffffffffff1610158015611348575060668373ffffffffffffffffffffffffffffffffffffffff1611155b156113615760578361135a9190612838565b925061140d565b60418373ffffffffffffffffffffffffffffffffffffffff161015801561139f575060468373ffffffffffffffffffffffffffffffffffffffff1611155b156113b8576037836113b19190612838565b925061140c565b60308373ffffffffffffffffffffffffffffffffffffffff16101580156113f6575060398373ffffffffffffffffffffffffffffffffffffffff1611155b1561140b576030836114089190612838565b92505b5b5b60618273ffffffffffffffffffffffffffffffffffffffff161015801561144b575060668273ffffffffffffffffffffffffffffffffffffffff1611155b156114645760578261145d9190612838565b9150611510565b60418273ffffffffffffffffffffffffffffffffffffffff16101580156114a2575060468273ffffffffffffffffffffffffffffffffffffffff1611155b156114bb576037826114b49190612838565b915061150f565b60308273ffffffffffffffffffffffffffffffffffffffff16101580156114f9575060398273ffffffffffffffffffffffffffffffffffffffff1611155b1561150e5760308261150b9190612838565b91505b5b5b8160108461151e91906127f6565b6115289190612880565b846115339190612880565b935060028161154291906122bd565b9050611299565b5082945050505050919050565b6000611563826000611885565b9050919050565b6115726119db565b6115a8576040517fd7e6bcf800000000000000000000000000000000000000000000000000000000815260040160405180910390fd5b565b6115b261156a565b600073ffffffffffffffffffffffffffffffffffffffff168173ffffffffffffffffffffffffffffffffffffffff16036116245760006040517f1e4fbdf700000000000000000000000000000000000000000000000000000000815260040161161b9190612017565b60405180910390fd5b61162d81610f4c565b50565b600061165e7f360894a13ba1a3210667c828492db98dca3e2076cc3735a920a3ca505d382bbc60001b6119fb565b60000160009054906101000a900473ffffffffffffffffffffffffffffffffffffffff16905090565b61169082611a05565b8173ffffffffffffffffffffffffffffffffffffffff167fbc7cd75a20ee27fd9adebab32041f755214dbc6bffa90cc0225b39da2e5c2d3b60405160405180910390a26000815111156116ed576116e78282611ad2565b506116f6565b6116f5611b56565b5b5050565b600033905090565b606060008490508383101561174c576040517f08c379a000000000000000000000000000000000000000000000000000000000815260040161174390612914565b60405180910390fd5b8051831115611790576040517f08c379a000000000000000000000000000000000000000000000000000000000815260040161178790612980565b60405180910390fd5b6000848461179e91906126f8565b67ffffffffffffffff8111156117b7576117b6611dae565b5b6040519080825280601f01601f1916602001820160405280156117e95781602001600182028036833780820191505090505b50905060008590505b848110156118785782818151811061180d5761180c6125a9565b5b602001015160f81c60f81b82878361182591906126f8565b81518110611836576118356125a9565b5b60200101907effffffffffffffffffffffffffffffffffffffffffffffffffffffffffffff1916908160001a9053508080611870906127ae565b9150506117f2565b5080925050509392505050565b60008083905060008060005b83518110156119aa5760308482815181106118af576118ae6125a9565b5b602001015160f81c60f81b60f81c60ff16101580156118f2575060398482815181106118de576118dd6125a9565b5b602001015160f81c60f81b60f81c60ff1611155b156119665781156119155760008603156119aa578580611911906129a0565b9650505b600a8361192291906129c9565b92506030848281518110611939576119386125a9565b5b602001015160f81c60f81b60f81c6119519190612a18565b60ff168361195f91906122bd565b9250611997565b602e84828151811061197b5761197a6125a9565b5b602001015160f81c60f81b60f81c60ff160361199657600191505b5b80806119a2906127ae565b915050611891565b5060008511156119cf5784600a6119c19190612b80565b826119cc91906129c9565b91505b81935050505092915050565b60006119e5610be8565b60000160089054906101000a900460ff16905090565b6000819050919050565b60008173ffffffffffffffffffffffffffffffffffffffff163b03611a6157806040517f4c9c8ce3000000000000000000000000000000000000000000000000000000008152600401611a589190612017565b60405180910390fd5b80611a8e7f360894a13ba1a3210667c828492db98dca3e2076cc3735a920a3ca505d382bbc60001b6119fb565b60000160006101000a81548173ffffffffffffffffffffffffffffffffffffffff021916908373ffffffffffffffffffffffffffffffffffffffff16021790555050565b60606000808473ffffffffffffffffffffffffffffffffffffffff1684604051611afc9190612c12565b600060405180830381855af49150503d8060008114611b37576040519150601f19603f3d011682016040523d82523d6000602084013e611b3c565b606091505b5091509150611b4c858383611b93565b9250505092915050565b6000341115611b91576040517fb398979f00000000000000000000000000000000000000000000000000000000815260040160405180910390fd5b565b606082611ba857611ba382611c22565b611c1a565b60008251148015611bd0575060008473ffffffffffffffffffffffffffffffffffffffff163b145b15611c1257836040517f9996b315000000000000000000000000000000000000000000000000000000008152600401611c099190612017565b60405180910390fd5b819050611c1b565b5b9392505050565b600081511115611c355780518082602001fd5b6040517f1425ea4200000000000000000000000000000000000000000000000000000000815260040160405180910390fd5b600073ffffffffffffffffffffffffffffffffffffffff82169050919050565b6000819050919050565b6000611cac611ca7611ca284611c67565b611c87565b611c67565b9050919050565b6000611cbe82611c91565b9050919050565b6000611cd082611cb3565b9050919050565b611ce081611cc5565b82525050565b6000602082019050611cfb6000830184611cd7565b92915050565b6000604051905090565b600080fd5b600080fd5b6000611d2082611c67565b9050919050565b611d3081611d15565b8114611d3b57600080fd5b50565b600081359050611d4d81611d27565b92915050565b60008060408385031215611d6a57611d69611d0b565b5b6000611d7885828601611d3e565b9250506020611d8985828601611d3e565b9150509250929050565b600080fd5b600080fd5b6000601f19601f8301169050919050565b7f4e487b7100000000000000000000000000000000000000000000000000000000600052604160045260246000fd5b611de682611d9d565b810181811067ffffffffffffffff82111715611e0557611e04611dae565b5b80604052505050565b6000611e18611d01565b9050611e248282611ddd565b919050565b600067ffffffffffffffff821115611e4457611e43611dae565b5b611e4d82611d9d565b9050602081019050919050565b82818337600083830152505050565b6000611e7c611e7784611e29565b611e0e565b905082815260208101848484011115611e9857611e97611d98565b5b611ea3848285611e5a565b509392505050565b600082601f830112611ec057611ebf611d93565b5b8135611ed0848260208601611e69565b91505092915050565b60008060408385031215611ef057611eef611d0b565b5b6000611efe85828601611d3e565b925050602083013567ffffffffffffffff811115611f1f57611f1e611d10565b5b611f2b85828601611eab565b9150509250929050565b6000819050919050565b611f4881611f35565b82525050565b6000602082019050611f636000830184611f3f565b92915050565b6000611f7482611cb3565b9050919050565b611f8481611f69565b82525050565b6000602082019050611f9f6000830184611f7b565b92915050565b6000819050919050565b611fb881611fa5565b8114611fc357600080fd5b50565b600081359050611fd581611faf565b92915050565b600060208284031215611ff157611ff0611d0b565b5b6000611fff84828501611fc6565b91505092915050565b61201181611d15565b82525050565b600060208201905061202c6000830184612008565b92915050565b61203b81611fa5565b82525050565b60006020820190506120566000830184612032565b92915050565b600081519050919050565b600082825260208201905092915050565b60005b8381101561209657808201518184015260208101905061207b565b60008484015250505050565b60006120ad8261205c565b6120b78185612067565b93506120c7818560208601612078565b6120d081611d9d565b840191505092915050565b600060208201905081810360008301526120f581846120a2565b905092915050565b60006020828403121561211357612112611d0b565b5b600061212184828501611d3e565b91505092915050565b6000819050919050565b600067ffffffffffffffff82169050919050565b600061216361215e6121598461212a565b611c87565b612134565b9050919050565b61217381612148565b82525050565b600060208201905061218e600083018461216a565b92915050565b60006040820190506121a96000830185612032565b6121b66020830184612008565b9392505050565b60008115159050919050565b6121d2816121bd565b81146121dd57600080fd5b50565b6000815190506121ef816121c9565b92915050565b60006020828403121561220b5761220a611d0b565b5b6000612219848285016121e0565b91505092915050565b7f4e6f74206120636f6d6d756e697479206d656d62657200000000000000000000600082015250565b6000612258601683612067565b915061226382612222565b602082019050919050565b600060208201905081810360008301526122878161224b565b9050919050565b7f4e487b7100000000000000000000000000000000000000000000000000000000600052601160045260246000fd5b60006122c882611fa5565b91506122d383611fa5565b92508282019050808211156122eb576122ea61228e565b5b92915050565b60008151905061230081611faf565b92915050565b600067ffffffffffffffff82111561232157612320611dae565b5b61232a82611d9d565b9050602081019050919050565b600061234a61234584612306565b611e0e565b90508281526020810184848401111561236657612365611d98565b5b612371848285612078565b509392505050565b600082601f83011261238e5761238d611d93565b5b815161239e848260208601612337565b91505092915050565b600080600080600080600060e0888a0312156123c6576123c5611d0b565b5b60006123d48a828b016122f1565b975050602088015167ffffffffffffffff8111156123f5576123f4611d10565b5b6124018a828b01612379565b96505060406124128a828b016122f1565b95505060606124238a828b016122f1565b94505060806124348a828b016122f1565b93505060a06124458a828b016122f1565b92505060c06124568a828b016121e0565b91505092959891949750929550565b7f50726f706f73616c20616c726561647920657865637574656400000000000000600082015250565b600061249b601983612067565b91506124a682612465565b602082019050919050565b600060208201905081810360008301526124ca8161248e565b9050919050565b7f50726f706f73616c20646964206e6f7420706173730000000000000000000000600082015250565b6000612507601583612067565b9150612512826124d1565b602082019050919050565b60006020820190508181036000830152612536816124fa565b9050919050565b600081905092915050565b7f5472616e73666572000000000000000000000000000000000000000000000000600082015250565b600061257e60088361253d565b915061258982612548565b600882019050919050565b600061259f82612571565b9150819050919050565b7f4e487b7100000000000000000000000000000000000000000000000000000000600052603260045260246000fd5b60006125e38261205c565b6125ed818561253d565b93506125fd818560208601612078565b80840191505092915050565b600061261582846125d8565b915081905092915050565b7f496e76616c69642070726f706f73616c20666f726d6174000000000000000000600082015250565b6000612656601783612067565b915061266182612620565b602082019050919050565b6000602082019050818103600083015261268581612649565b9050919050565b7f496e73756666696369656e742066756e64730000000000000000000000000000600082015250565b60006126c2601283612067565b91506126cd8261268c565b602082019050919050565b600060208201905081810360008301526126f1816126b5565b9050919050565b600061270382611fa5565b915061270e83611fa5565b92508282039050818111156127265761272561228e565b5b92915050565b60006040820190506127416000830185612008565b61274e6020830184612032565b9392505050565b61275e81611f35565b811461276957600080fd5b50565b60008151905061277b81612755565b92915050565b60006020828403121561279757612796611d0b565b5b60006127a58482850161276c565b91505092915050565b60006127b982611fa5565b91507fffffffffffffffffffffffffffffffffffffffffffffffffffffffffffffffff82036127eb576127ea61228e565b5b600182019050919050565b600061280182611c67565b915061280c83611c67565b925082820261281a81611c67565b915082820484148315176128315761283061228e565b5b5092915050565b600061284382611c67565b915061284e83611c67565b9250828203905073ffffffffffffffffffffffffffffffffffffffff81111561287a5761287961228e565b5b92915050565b600061288b82611c67565b915061289683611c67565b9250828201905073ffffffffffffffffffffffffffffffffffffffff8111156128c2576128c161228e565b5b92915050565b7f456e64206d757374206265203e3d207374617274000000000000000000000000600082015250565b60006128fe601483612067565b9150612909826128c8565b602082019050919050565b6000602082019050818103600083015261292d816128f1565b9050919050565b7f456e64206f7574206f6620626f756e6473000000000000000000000000000000600082015250565b600061296a601183612067565b915061297582612934565b602082019050919050565b600060208201905081810360008301526129998161295d565b9050919050565b60006129ab82611fa5565b9150600082036129be576129bd61228e565b5b600182039050919050565b60006129d482611fa5565b91506129df83611fa5565b92508282026129ed81611fa5565b91508282048414831517612a0457612a0361228e565b5b5092915050565b600060ff82169050919050565b6000612a2382612a0b565b9150612a2e83612a0b565b9250828203905060ff811115612a4757612a4661228e565b5b92915050565b60008160011c9050919050565b6000808291508390505b6001851115612aa457808604811115612a8057612a7f61228e565b5b6001851615612a8f5780820291505b8081029050612a9d85612a4d565b9450612a64565b94509492505050565b600082612abd5760019050612b79565b81612acb5760009050612b79565b8160018114612ae15760028114612aeb57612b1a565b6001915050612b79565b60ff841115612afd57612afc61228e565b5b8360020a915084821115612b1457612b1361228e565b5b50612b79565b5060208310610133831016604e8410600b8410161715612b4f5782820a905083811115612b4a57612b4961228e565b5b612b79565b612b5c8484846001612a5a565b92509050818404811115612b7357612b7261228e565b5b81810290505b9392505050565b6000612b8b82611fa5565b9150612b9683611fa5565b9250612bc37fffffffffffffffffffffffffffffffffffffffffffffffffffffffffffffffff8484612aad565b905092915050565b600081519050919050565b600081905092915050565b6000612bec82612bcb565b612bf68185612bd6565b9350612c06818560208601612078565b80840191505092915050565b6000612c1e8284612be1565b91508190509291505056fea264697066735822122008075f403a6b2267d02feb453c67cae272eaaf97bded6e4fceee60c010d98d2864736f6c63430008140033",
  "linkReferences": {},
  "deployedLinkReferences": {}
}