{
  "_format": "hh-sol-artifact-1",
  "contractName": "FundManagementUpgradeable",
  "sourceName": "contracts/FundManagementUpgradeable.sol",
  "abi": [
    {
      "inputs": [],
      "stateMutability": "nonpayable",
      "type": "constructor"
    },
    {
      "inputs": [
        {
          "internalType": "address",
          "name": "target",
          "type": "address"
        }
      ],
      "name": "AddressEmptyCode",
      "type": "error"
    },
    {
      "inputs": [
        {
          "internalType": "address",
          "name": "implementation",
          "type": "address"
        }
      ],
      "name": "ERC1967InvalidImplementation",
      "type": "error"
    },
    {
      "inputs": [],
      "name": "ERC1967NonPayable",
      "type": "error"
    },
    {
      "inputs": [],
      "name": "FailedInnerCall",
      "type": "error"
    },
    {
      "inputs": [],
      "name": "InvalidInitialization",
      "type": "error"
    },
    {
      "inputs": [],
      "name": "NotInitializing",
      "type": "error"
    },
    {
      "inputs": [
        {
          "internalType": "address",
          "name": "owner",
          "type": "address"
        }
      ],
      "name": "OwnableInvalidOwner",
      "type": "error"
    },
    {
      "inputs": [
        {
          "internalType": "address",
          "name": "account",
          "type": "address"
        }
      ],
      "name": "OwnableUnauthorizedAccount",
      "type": "error"
    },
    {
      "inputs": [],
      "name": "UUPSUnauthorizedCallContext",
      "type": "error"
    },
    {
      "inputs": [
        {
          "internalType": "bytes32",
          "name": "slot",
          "type": "bytes32"
        }
      ],
      "name": "UUPSUnsupportedProxiableUUID",
      "type": "error"
    },
    {
      "anonymous": false,
      "inputs": [
        {
          "indexed": true,
          "internalType": "uint256",
          "name": "communityId",
          "type": "uint256"
        },
        {
          "indexed": false,
          "internalType": "uint256",
          "name": "amount",
          "type": "uint256"
        }
      ],
      "name": "FundReceived",
      "type": "event"
    },
    {
      "anonymous": false,
      "inputs": [
        {
          "indexed": true,
          "internalType": "uint256",
          "name": "proposalId",
          "type": "uint256"
        },
        {
          "indexed": true,
          "internalType": "uint256",
          "name": "communityId",
          "type": "uint256"
        },
        {
          "indexed": false,
          "internalType": "uint256",
          "name": "amount",
          "type": "uint256"
        }
      ],
      "name": "FundingProposalCreated",
      "type": "event"
    },
    {
      "anonymous": false,
      "inputs": [
        {
          "indexed": false,
          "internalType": "uint64",
          "name": "version",
          "type": "uint64"
        }
      ],
      "name": "Initialized",
      "type": "event"
    },
    {
      "anonymous": false,
      "inputs": [
        {
          "indexed": true,
          "internalType": "address",
          "name": "previousOwner",
          "type": "address"
        },
        {
          "indexed": true,
          "internalType": "address",
          "name": "newOwner",
          "type": "address"
        }
      ],
      "name": "OwnershipTransferred",
      "type": "event"
    },
    {
      "anonymous": false,
      "inputs": [
        {
          "indexed": true,
          "internalType": "address",
          "name": "implementation",
          "type": "address"
        }
      ],
      "name": "Upgraded",
      "type": "event"
    },
    {
      "inputs": [],
      "name": "UPGRADE_INTERFACE_VERSION",
      "outputs": [
        {
          "internalType": "string",
          "name": "",
          "type": "string"
        }
      ],
      "stateMutability": "view",
      "type": "function"
    },
    {
      "inputs": [
        {
          "internalType": "uint256",
          "name": "",
          "type": "uint256"
        }
      ],
      "name": "communityBalances",
      "outputs": [
        {
          "internalType": "uint256",
          "name": "",
          "type": "uint256"
        }
      ],
      "stateMutability": "view",
      "type": "function"
    },
    {
      "inputs": [],
      "name": "communityDAO",
      "outputs": [
        {
          "internalType": "contract CommunityDAOUpgradeable",
          "name": "",
          "type": "address"
        }
      ],
      "stateMutability": "view",
      "type": "function"
    },
    {
      "inputs": [
        {
          "internalType": "uint256",
          "name": "_proposalId",
          "type": "uint256"
        }
      ],
      "name": "contributeFunds",
      "outputs": [],
      "stateMutability": "payable",
      "type": "function"
    },
    {
      "inputs": [
        {
          "internalType": "uint256",
          "name": "_communityId",
          "type": "uint256"
        },
        {
          "internalType": "string",
          "name": "_description",
          "type": "string"
        },
        {
          "internalType": "uint256",
          "name": "_amount",
          "type": "uint256"
        },
        {
          "internalType": "uint256",
          "name": "_votingPeriod",
          "type": "uint256"
        }
      ],
      "name": "createFundingProposal",
      "outputs": [],
      "stateMutability": "nonpayable",
      "type": "function"
    },
    {
      "inputs": [
        {
          "internalType": "address",
          "name": "_communityDAOAddress",
          "type": "address"
        },
        {
          "internalType": "address",
          "name": "_votingMechanismAddress",
          "type": "address"
        }
      ],
      "name": "initialize",
      "outputs": [],
      "stateMutability": "nonpayable",
      "type": "function"
    },
    {
      "inputs": [],
      "name": "owner",
      "outputs": [
        {
          "internalType": "address",
          "name": "",
          "type": "address"
        }
      ],
      "stateMutability": "view",
      "type": "function"
    },
    {
      "inputs": [],
      "name": "proxiableUUID",
      "outputs": [
        {
          "internalType": "bytes32",
          "name": "",
          "type": "bytes32"
        }
      ],
      "stateMutability": "view",
      "type": "function"
    },
    {
      "inputs": [],
      "name": "renounceOwnership",
      "outputs": [],
      "stateMutability": "nonpayable",
      "type": "function"
    },
    {
      "inputs": [
        {
          "internalType": "address",
          "name": "newOwner",
          "type": "address"
        }
      ],
      "name": "transferOwnership",
      "outputs": [],
      "stateMutability": "nonpayable",
      "type": "function"
    },
    {
      "inputs": [
        {
          "internalType": "address",
          "name": "newImplementation",
          "type": "address"
        },
        {
          "internalType": "bytes",
          "name": "data",
          "type": "bytes"
        }
      ],
      "name": "upgradeToAndCall",
      "outputs": [],
      "stateMutability": "payable",
      "type": "function"
    },
    {
      "inputs": [],
      "name": "votingMechanism",
      "outputs": [
        {
          "internalType": "contract VotingMechanismUpgradeable",
          "name": "",
          "type": "address"
        }
      ],
      "stateMutability": "view",
      "type": "function"
    }
  ],
  "bytecode": "0x60a06040523073ffffffffffffffffffffffffffffffffffffffff1660809073ffffffffffffffffffffffffffffffffffffffff168152503480156200004457600080fd5b50620000556200005b60201b60201c565b620001cf565b60006200006d6200016560201b60201c565b90508060000160089054906101000a900460ff1615620000b9576040517ff92ee8a900000000000000000000000000000000000000000000000000000000815260040160405180910390fd5b67ffffffffffffffff80168160000160009054906101000a900467ffffffffffffffff1667ffffffffffffffff1614620001625767ffffffffffffffff8160000160006101000a81548167ffffffffffffffff021916908367ffffffffffffffff1602179055507fc7f505b2f371ae2175ee4913f4499e1f2633a7b5936321eed1cdaeb6115181d267ffffffffffffffff604051620001599190620001b2565b60405180910390a15b50565b60007ff0c57e16840df040f15088dc2f81fe391c3923bec73e23a9662efc9c229c6a00905090565b600067ffffffffffffffff82169050919050565b620001ac816200018d565b82525050565b6000602082019050620001c96000830184620001a1565b92915050565b608051611cd9620001f9600039600081816109c001528181610a150152610bd00152611cd96000f3fe6080604052600436106100a75760003560e01c80638207546e116100645780638207546e1461017a5780638da5cb5b146101a5578063a777b1ef146101d0578063ad3cb1cc1461020d578063f2fde38b14610238578063fe68362714610261576100a7565b8063439da879146100ac578063485cc955146100d757806348a05132146101005780634f1ef2861461011c57806352d1902d14610138578063715018a614610163575b600080fd5b3480156100b857600080fd5b506100c161028a565b6040516100ce919061127e565b60405180910390f35b3480156100e357600080fd5b506100fe60048036038101906100f991906112eb565b6102b0565b005b61011a60048036038101906101159190611361565b6104c9565b005b610136600480360381019061013191906114d4565b6106f6565b005b34801561014457600080fd5b5061014d610715565b60405161015a9190611549565b60405180910390f35b34801561016f57600080fd5b50610178610748565b005b34801561018657600080fd5b5061018f61075c565b60405161019c9190611585565b60405180910390f35b3480156101b157600080fd5b506101ba610780565b6040516101c791906115af565b60405180910390f35b3480156101dc57600080fd5b506101f760048036038101906101f29190611361565b6107b8565b60405161020491906115d9565b60405180910390f35b34801561021957600080fd5b506102226107d0565b60405161022f9190611673565b60405180910390f35b34801561024457600080fd5b5061025f600480360381019061025a9190611695565b610809565b005b34801561026d57600080fd5b5061028860048036038101906102839190611763565b61088f565b005b600160009054906101000a900473ffffffffffffffffffffffffffffffffffffffff1681565b60006102ba610978565b905060008160000160089054906101000a900460ff1615905060008260000160009054906101000a900467ffffffffffffffff1690506000808267ffffffffffffffff161480156103085750825b9050600060018367ffffffffffffffff1614801561033d575060003073ffffffffffffffffffffffffffffffffffffffff163b145b90508115801561034b575080155b15610382576040517ff92ee8a900000000000000000000000000000000000000000000000000000000815260040160405180910390fd5b60018560000160006101000a81548167ffffffffffffffff021916908367ffffffffffffffff16021790555083156103d25760018560000160086101000a81548160ff0219169083151502179055505b6103db336109a0565b6103e36109b4565b866000806101000a81548173ffffffffffffffffffffffffffffffffffffffff021916908373ffffffffffffffffffffffffffffffffffffffff16021790555085600160006101000a81548173ffffffffffffffffffffffffffffffffffffffff021916908373ffffffffffffffffffffffffffffffffffffffff16021790555083156104c05760008560000160086101000a81548160ff0219169083151502179055507fc7f505b2f371ae2175ee4913f4499e1f2633a7b5936321eed1cdaeb6115181d260016040516104b79190611835565b60405180910390a15b50505050505050565b600080600080600160009054906101000a900473ffffffffffffffffffffffffffffffffffffffff1673ffffffffffffffffffffffffffffffffffffffff16633b4d01a7866040518263ffffffff1660e01b815260040161052a91906115d9565b600060405180830381865afa158015610547573d6000803e3d6000fd5b505050506040513d6000823e3d601f19601f8201168201806040525081019061057091906118fa565b9650965096505050509350600084036105be576040517f08c379a00000000000000000000000000000000000000000000000000000000081526004016105b590611a04565b60405180910390fd5b600060018111156105d2576105d1611a24565b5b8160018111156105e5576105e4611a24565b5b14610625576040517f08c379a000000000000000000000000000000000000000000000000000000000815260040161061c90611a04565b60405180910390fd5b8242101580156106355750814211155b610674576040517f08c379a000000000000000000000000000000000000000000000000000000000815260040161066b90611a9f565b60405180910390fd5b600034116106b7576040517f08c379a00000000000000000000000000000000000000000000000000000000081526004016106ae90611b0b565b60405180910390fd5b837fbc9080f6805b6f5bd69034f9211cecd3fea6d4a76be8409803f64fd5789d8b71346040516106e791906115d9565b60405180910390a25050505050565b6106fe6109be565b61070782610aa4565b6107118282610aaf565b5050565b600061071f610bce565b7f360894a13ba1a3210667c828492db98dca3e2076cc3735a920a3ca505d382bbc60001b905090565b610750610c55565b61075a6000610cdc565b565b60008054906101000a900473ffffffffffffffffffffffffffffffffffffffff1681565b60008061078b610db3565b90508060000160009054906101000a900473ffffffffffffffffffffffffffffffffffffffff1691505090565b60026020528060005260406000206000915090505481565b6040518060400160405280600581526020017f352e302e3000000000000000000000000000000000000000000000000000000081525081565b610811610c55565b600073ffffffffffffffffffffffffffffffffffffffff168173ffffffffffffffffffffffffffffffffffffffff16036108835760006040517f1e4fbdf700000000000000000000000000000000000000000000000000000000815260040161087a91906115af565b60405180910390fd5b61088c81610cdc565b50565b6000600160009054906101000a900473ffffffffffffffffffffffffffffffffffffffff1673ffffffffffffffffffffffffffffffffffffffff1663b78dacf086868560006040518563ffffffff1660e01b81526004016108f39493929190611b73565b6020604051808303816000875af1158015610912573d6000803e3d6000fd5b505050506040513d601f19601f820116820180604052508101906109369190611bbf565b905084817f42ba764efb3c3816d7cef5907d13bbac8eb61a93e08768a07fa3c8d297ffb4368560405161096991906115d9565b60405180910390a35050505050565b60007ff0c57e16840df040f15088dc2f81fe391c3923bec73e23a9662efc9c229c6a00905090565b6109a8610ddb565b6109b181610e1b565b50565b6109bc610ddb565b565b7f000000000000000000000000000000000000000000000000000000000000000073ffffffffffffffffffffffffffffffffffffffff163073ffffffffffffffffffffffffffffffffffffffff161480610a6b57507f000000000000000000000000000000000000000000000000000000000000000073ffffffffffffffffffffffffffffffffffffffff16610a52610ea1565b73ffffffffffffffffffffffffffffffffffffffff1614155b15610aa2576040517fe07c8dba00000000000000000000000000000000000000000000000000000000815260040160405180910390fd5b565b610aac610c55565b50565b8173ffffffffffffffffffffffffffffffffffffffff166352d1902d6040518163ffffffff1660e01b8152600401602060405180830381865afa925050508015610b1757506040513d601f19601f82011682018060405250810190610b149190611c18565b60015b610b5857816040517f4c9c8ce3000000000000000000000000000000000000000000000000000000008152600401610b4f91906115af565b60405180910390fd5b7f360894a13ba1a3210667c828492db98dca3e2076cc3735a920a3ca505d382bbc60001b8114610bbf57806040517faa1d49a4000000000000000000000000000000000000000000000000000000008152600401610bb69190611549565b60405180910390fd5b610bc98383610ef8565b505050565b7f000000000000000000000000000000000000000000000000000000000000000073ffffffffffffffffffffffffffffffffffffffff163073ffffffffffffffffffffffffffffffffffffffff1614610c53576040517fe07c8dba00000000000000000000000000000000000000000000000000000000815260040160405180910390fd5b565b610c5d610f6b565b73ffffffffffffffffffffffffffffffffffffffff16610c7b610780565b73ffffffffffffffffffffffffffffffffffffffff1614610cda57610c9e610f6b565b6040517f118cdaa7000000000000000000000000000000000000000000000000000000008152600401610cd191906115af565b60405180910390fd5b565b6000610ce6610db3565b905060008160000160009054906101000a900473ffffffffffffffffffffffffffffffffffffffff169050828260000160006101000a81548173ffffffffffffffffffffffffffffffffffffffff021916908373ffffffffffffffffffffffffffffffffffffffff1602179055508273ffffffffffffffffffffffffffffffffffffffff168173ffffffffffffffffffffffffffffffffffffffff167f8be0079c531659141344cd1fd0a4f28419497f9722a3daafe3b4186f6b6457e060405160405180910390a3505050565b60007f9016d09d72d40fdae2fd8ceac6b6234c7706214fd39c1cd1e609a0528c199300905090565b610de3610f73565b610e19576040517fd7e6bcf800000000000000000000000000000000000000000000000000000000815260040160405180910390fd5b565b610e23610ddb565b600073ffffffffffffffffffffffffffffffffffffffff168173ffffffffffffffffffffffffffffffffffffffff1603610e955760006040517f1e4fbdf7000000000000000000000000000000000000000000000000000000008152600401610e8c91906115af565b60405180910390fd5b610e9e81610cdc565b50565b6000610ecf7f360894a13ba1a3210667c828492db98dca3e2076cc3735a920a3ca505d382bbc60001b610f93565b60000160009054906101000a900473ffffffffffffffffffffffffffffffffffffffff16905090565b610f0182610f9d565b8173ffffffffffffffffffffffffffffffffffffffff167fbc7cd75a20ee27fd9adebab32041f755214dbc6bffa90cc0225b39da2e5c2d3b60405160405180910390a2600081511115610f5e57610f58828261106a565b50610f67565b610f666110ee565b5b5050565b600033905090565b6000610f7d610978565b60000160089054906101000a900460ff16905090565b6000819050919050565b60008173ffffffffffffffffffffffffffffffffffffffff163b03610ff957806040517f4c9c8ce3000000000000000000000000000000000000000000000000000000008152600401610ff091906115af565b60405180910390fd5b806110267f360894a13ba1a3210667c828492db98dca3e2076cc3735a920a3ca505d382bbc60001b610f93565b60000160006101000a81548173ffffffffffffffffffffffffffffffffffffffff021916908373ffffffffffffffffffffffffffffffffffffffff16021790555050565b60606000808473ffffffffffffffffffffffffffffffffffffffff16846040516110949190611c8c565b600060405180830381855af49150503d80600081146110cf576040519150601f19603f3d011682016040523d82523d6000602084013e6110d4565b606091505b50915091506110e485838361112b565b9250505092915050565b6000341115611129576040517fb398979f00000000000000000000000000000000000000000000000000000000815260040160405180910390fd5b565b6060826111405761113b826111ba565b6111b2565b60008251148015611168575060008473ffffffffffffffffffffffffffffffffffffffff163b145b156111aa57836040517f9996b3150000000000000000000000000000000000000000000000000000000081526004016111a191906115af565b60405180910390fd5b8190506111b3565b5b9392505050565b6000815111156111cd5780518082602001fd5b6040517f1425ea4200000000000000000000000000000000000000000000000000000000815260040160405180910390fd5b600073ffffffffffffffffffffffffffffffffffffffff82169050919050565b6000819050919050565b600061124461123f61123a846111ff565b61121f565b6111ff565b9050919050565b600061125682611229565b9050919050565b60006112688261124b565b9050919050565b6112788161125d565b82525050565b6000602082019050611293600083018461126f565b92915050565b6000604051905090565b600080fd5b600080fd5b60006112b8826111ff565b9050919050565b6112c8816112ad565b81146112d357600080fd5b50565b6000813590506112e5816112bf565b92915050565b60008060408385031215611302576113016112a3565b5b6000611310858286016112d6565b9250506020611321858286016112d6565b9150509250929050565b6000819050919050565b61133e8161132b565b811461134957600080fd5b50565b60008135905061135b81611335565b92915050565b600060208284031215611377576113766112a3565b5b60006113858482850161134c565b91505092915050565b600080fd5b600080fd5b6000601f19601f8301169050919050565b7f4e487b7100000000000000000000000000000000000000000000000000000000600052604160045260246000fd5b6113e182611398565b810181811067ffffffffffffffff82111715611400576113ff6113a9565b5b80604052505050565b6000611413611299565b905061141f82826113d8565b919050565b600067ffffffffffffffff82111561143f5761143e6113a9565b5b61144882611398565b9050602081019050919050565b82818337600083830152505050565b600061147761147284611424565b611409565b90508281526020810184848401111561149357611492611393565b5b61149e848285611455565b509392505050565b600082601f8301126114bb576114ba61138e565b5b81356114cb848260208601611464565b91505092915050565b600080604083850312156114eb576114ea6112a3565b5b60006114f9858286016112d6565b925050602083013567ffffffffffffffff81111561151a576115196112a8565b5b611526858286016114a6565b9150509250929050565b6000819050919050565b61154381611530565b82525050565b600060208201905061155e600083018461153a565b92915050565b600061156f8261124b565b9050919050565b61157f81611564565b82525050565b600060208201905061159a6000830184611576565b92915050565b6115a9816112ad565b82525050565b60006020820190506115c460008301846115a0565b92915050565b6115d38161132b565b82525050565b60006020820190506115ee60008301846115ca565b92915050565b600081519050919050565b600082825260208201905092915050565b60005b8381101561162e578082015181840152602081019050611613565b60008484015250505050565b6000611645826115f4565b61164f81856115ff565b935061165f818560208601611610565b61166881611398565b840191505092915050565b6000602082019050818103600083015261168d818461163a565b905092915050565b6000602082840312156116ab576116aa6112a3565b5b60006116b9848285016112d6565b91505092915050565b600067ffffffffffffffff8211156116dd576116dc6113a9565b5b6116e682611398565b9050602081019050919050565b6000611706611701846116c2565b611409565b90508281526020810184848401111561172257611721611393565b5b61172d848285611455565b509392505050565b600082601f83011261174a5761174961138e565b5b813561175a8482602086016116f3565b91505092915050565b6000806000806080858703121561177d5761177c6112a3565b5b600061178b8782880161134c565b945050602085013567ffffffffffffffff8111156117ac576117ab6112a8565b5b6117b887828801611735565b93505060406117c98782880161134c565b92505060606117da8782880161134c565b91505092959194509250565b6000819050919050565b600067ffffffffffffffff82169050919050565b600061181f61181a611815846117e6565b61121f565b6117f0565b9050919050565b61182f81611804565b82525050565b600060208201905061184a6000830184611826565b92915050565b60008151905061185f81611335565b92915050565b6000611878611873846116c2565b611409565b90508281526020810184848401111561189457611893611393565b5b61189f848285611610565b509392505050565b600082601f8301126118bc576118bb61138e565b5b81516118cc848260208601611865565b91505092915050565b600281106118e257600080fd5b50565b6000815190506118f4816118d5565b92915050565b600080600080600080600060e0888a031215611919576119186112a3565b5b60006119278a828b01611850565b975050602088015167ffffffffffffffff811115611948576119476112a8565b5b6119548a828b016118a7565b96505060406119658a828b01611850565b95505060606119768a828b01611850565b94505060806119878a828b01611850565b93505060a06119988a828b01611850565b92505060c06119a98a828b016118e5565b91505092959891949750929550565b7f4e6f7420612066756e64696e672070726f706f73616c00000000000000000000600082015250565b60006119ee6016836115ff565b91506119f9826119b8565b602082019050919050565b60006020820190508181036000830152611a1d816119e1565b9050919050565b7f4e487b7100000000000000000000000000000000000000000000000000000000600052602160045260246000fd5b7f46756e64696e6720706572696f64206e6f742061637469766500000000000000600082015250565b6000611a896019836115ff565b9150611a9482611a53565b602082019050919050565b60006020820190508181036000830152611ab881611a7c565b9050919050565b7f4d75737420636f6e7472696275746520736f6d652066756e6473000000000000600082015250565b6000611af5601a836115ff565b9150611b0082611abf565b602082019050919050565b60006020820190508181036000830152611b2481611ae8565b9050919050565b60028110611b3c57611b3b611a24565b5b50565b6000819050611b4d82611b2b565b919050565b6000611b5d82611b3f565b9050919050565b611b6d81611b52565b82525050565b6000608082019050611b8860008301876115ca565b8181036020830152611b9a818661163a565b9050611ba960408301856115ca565b611bb66060830184611b64565b95945050505050565b600060208284031215611bd557611bd46112a3565b5b6000611be384828501611850565b91505092915050565b611bf581611530565b8114611c0057600080fd5b50565b600081519050611c1281611bec565b92915050565b600060208284031215611c2e57611c2d6112a3565b5b6000611c3c84828501611c03565b91505092915050565b600081519050919050565b600081905092915050565b6000611c6682611c45565b611c708185611c50565b9350611c80818560208601611610565b80840191505092915050565b6000611c988284611c5b565b91508190509291505056fea264697066735822122008141e17540cace0f48b56315362ac8804b9651ac0fcf7aab9f79140624a7ae364736f6c63430008140033",
  "linkReferences": {},
  "deployedLinkReferences": {}
}