{
  "_format": "hh-sol-artifact-1",
  "contractName": "GovernanceTokenUpgradeable",
  "sourceName": "contracts/GovernanceTokenUpgradeable.sol",
  "abi": [
    {
      "inputs": [],
      "stateMutability": "nonpayable",
      "type": "constructor"
    },
    {
      "inputs": [
        {
          "internalType": "address",
          "name": "target",
          "type": "address"
        }
      ],
      "name": "AddressEmptyCode",
      "type": "error"
    },
    {
      "inputs": [
        {
          "internalType": "address",
          "name": "implementation",
          "type": "address"
        }
      ],
      "name": "ERC1967InvalidImplementation",
      "type": "error"
    },
    {
      "inputs": [],
      "name": "ERC1967NonPayable",
      "type": "error"
    },
    {
      "inputs": [],
      "name": "ERC721EnumerableForbiddenBatchMint",
      "type": "error"
    },
    {
      "inputs": [
        {
          "internalType": "address",
          "name": "sender",
          "type": "address"
        },
        {
          "internalType": "uint256",
          "name": "tokenId",
          "type": "uint256"
        },
        {
          "internalType": "address",
          "name": "owner",
          "type": "address"
        }
      ],
      "name": "ERC721IncorrectOwner",
      "type": "error"
    },
    {
      "inputs": [
        {
          "internalType": "address",
          "name": "operator",
          "type": "address"
        },
        {
          "internalType": "uint256",
          "name": "tokenId",
          "type": "uint256"
        }
      ],
      "name": "ERC721InsufficientApproval",
      "type": "error"
    },
    {
      "inputs": [
        {
          "internalType": "address",
          "name": "approver",
          "type": "address"
        }
      ],
      "name": "ERC721InvalidApprover",
      "type": "error"
    },
    {
      "inputs": [
        {
          "internalType": "address",
          "name": "operator",
          "type": "address"
        }
      ],
      "name": "ERC721InvalidOperator",
      "type": "error"
    },
    {
      "inputs": [
        {
          "internalType": "address",
          "name": "owner",
          "type": "address"
        }
      ],
      "name": "ERC721InvalidOwner",
      "type": "error"
    },
    {
      "inputs": [
        {
          "internalType": "address",
          "name": "receiver",
          "type": "address"
        }
      ],
      "name": "ERC721InvalidReceiver",
      "type": "error"
    },
    {
      "inputs": [
        {
          "internalType": "address",
          "name": "sender",
          "type": "address"
        }
      ],
      "name": "ERC721InvalidSender",
      "type": "error"
    },
    {
      "inputs": [
        {
          "internalType": "uint256",
          "name": "tokenId",
          "type": "uint256"
        }
      ],
      "name": "ERC721NonexistentToken",
      "type": "error"
    },
    {
      "inputs": [
        {
          "internalType": "address",
          "name": "owner",
          "type": "address"
        },
        {
          "internalType": "uint256",
          "name": "index",
          "type": "uint256"
        }
      ],
      "name": "ERC721OutOfBoundsIndex",
      "type": "error"
    },
    {
      "inputs": [],
      "name": "FailedInnerCall",
      "type": "error"
    },
    {
      "inputs": [],
      "name": "InvalidInitialization",
      "type": "error"
    },
    {
      "inputs": [],
      "name": "NotInitializing",
      "type": "error"
    },
    {
      "inputs": [
        {
          "internalType": "address",
          "name": "owner",
          "type": "address"
        }
      ],
      "name": "OwnableInvalidOwner",
      "type": "error"
    },
    {
      "inputs": [
        {
          "internalType": "address",
          "name": "account",
          "type": "address"
        }
      ],
      "name": "OwnableUnauthorizedAccount",
      "type": "error"
    },
    {
      "inputs": [],
      "name": "UUPSUnauthorizedCallContext",
      "type": "error"
    },
    {
      "inputs": [
        {
          "internalType": "bytes32",
          "name": "slot",
          "type": "bytes32"
        }
      ],
      "name": "UUPSUnsupportedProxiableUUID",
      "type": "error"
    },
    {
      "anonymous": false,
      "inputs": [
        {
          "indexed": true,
          "internalType": "address",
          "name": "owner",
          "type": "address"
        },
        {
          "indexed": true,
          "internalType": "address",
          "name": "approved",
          "type": "address"
        },
        {
          "indexed": true,
          "internalType": "uint256",
          "name": "tokenId",
          "type": "uint256"
        }
      ],
      "name": "Approval",
      "type": "event"
    },
    {
      "anonymous": false,
      "inputs": [
        {
          "indexed": true,
          "internalType": "address",
          "name": "owner",
          "type": "address"
        },
        {
          "indexed": true,
          "internalType": "address",
          "name": "operator",
          "type": "address"
        },
        {
          "indexed": false,
          "internalType": "bool",
          "name": "approved",
          "type": "bool"
        }
      ],
      "name": "ApprovalForAll",
      "type": "event"
    },
    {
      "anonymous": false,
      "inputs": [
        {
          "indexed": false,
          "internalType": "uint64",
          "name": "version",
          "type": "uint64"
        }
      ],
      "name": "Initialized",
      "type": "event"
    },
    {
      "anonymous": false,
      "inputs": [
        {
          "indexed": true,
          "internalType": "address",
          "name": "previousOwner",
          "type": "address"
        },
        {
          "indexed": true,
          "internalType": "address",
          "name": "newOwner",
          "type": "address"
        }
      ],
      "name": "OwnershipTransferred",
      "type": "event"
    },
    {
      "anonymous": false,
      "inputs": [
        {
          "indexed": true,
          "internalType": "address",
          "name": "from",
          "type": "address"
        },
        {
          "indexed": true,
          "internalType": "address",
          "name": "to",
          "type": "address"
        },
        {
          "indexed": true,
          "internalType": "uint256",
          "name": "tokenId",
          "type": "uint256"
        }
      ],
      "name": "Transfer",
      "type": "event"
    },
    {
      "anonymous": false,
      "inputs": [
        {
          "indexed": true,
          "internalType": "address",
          "name": "implementation",
          "type": "address"
        }
      ],
      "name": "Upgraded",
      "type": "event"
    },
    {
      "inputs": [],
      "name": "UPGRADE_INTERFACE_VERSION",
      "outputs": [
        {
          "internalType": "string",
          "name": "",
          "type": "string"
        }
      ],
      "stateMutability": "view",
      "type": "function"
    },
    {
      "inputs": [
        {
          "internalType": "address",
          "name": "to",
          "type": "address"
        },
        {
          "internalType": "uint256",
          "name": "tokenId",
          "type": "uint256"
        }
      ],
      "name": "approve",
      "outputs": [],
      "stateMutability": "nonpayable",
      "type": "function"
    },
    {
      "inputs": [
        {
          "internalType": "address",
          "name": "owner",
          "type": "address"
        }
      ],
      "name": "balanceOf",
      "outputs": [
        {
          "internalType": "uint256",
          "name": "",
          "type": "uint256"
        }
      ],
      "stateMutability": "view",
      "type": "function"
    },
    {
      "inputs": [
        {
          "internalType": "uint256",
          "name": "tokenId",
          "type": "uint256"
        }
      ],
      "name": "burn",
      "outputs": [],
      "stateMutability": "nonpayable",
      "type": "function"
    },
    {
      "inputs": [
        {
          "internalType": "uint256",
          "name": "tokenId",
          "type": "uint256"
        }
      ],
      "name": "burnFrom",
      "outputs": [],
      "stateMutability": "nonpayable",
      "type": "function"
    },
    {
      "inputs": [
        {
          "internalType": "uint256",
          "name": "tokenId",
          "type": "uint256"
        }
      ],
      "name": "getApproved",
      "outputs": [
        {
          "internalType": "address",
          "name": "",
          "type": "address"
        }
      ],
      "stateMutability": "view",
      "type": "function"
    },
    {
      "inputs": [],
      "name": "initialize",
      "outputs": [],
      "stateMutability": "nonpayable",
      "type": "function"
    },
    {
      "inputs": [
        {
          "internalType": "address",
          "name": "owner",
          "type": "address"
        },
        {
          "internalType": "address",
          "name": "operator",
          "type": "address"
        }
      ],
      "name": "isApprovedForAll",
      "outputs": [
        {
          "internalType": "bool",
          "name": "",
          "type": "bool"
        }
      ],
      "stateMutability": "view",
      "type": "function"
    },
    {
      "inputs": [],
      "name": "name",
      "outputs": [
        {
          "internalType": "string",
          "name": "",
          "type": "string"
        }
      ],
      "stateMutability": "view",
      "type": "function"
    },
    {
      "inputs": [],
      "name": "owner",
      "outputs": [
        {
          "internalType": "address",
          "name": "",
          "type": "address"
        }
      ],
      "stateMutability": "view",
      "type": "function"
    },
    {
      "inputs": [
        {
          "internalType": "uint256",
          "name": "tokenId",
          "type": "uint256"
        }
      ],
      "name": "ownerOf",
      "outputs": [
        {
          "internalType": "address",
          "name": "",
          "type": "address"
        }
      ],
      "stateMutability": "view",
      "type": "function"
    },
    {
      "inputs": [],
      "name": "proxiableUUID",
      "outputs": [
        {
          "internalType": "bytes32",
          "name": "",
          "type": "bytes32"
        }
      ],
      "stateMutability": "view",
      "type": "function"
    },
    {
      "inputs": [],
      "name": "renounceOwnership",
      "outputs": [],
      "stateMutability": "nonpayable",
      "type": "function"
    },
    {
      "inputs": [
        {
          "internalType": "address",
          "name": "to",
          "type": "address"
        },
        {
          "internalType": "uint256",
          "name": "communityId",
          "type": "uint256"
        }
      ],
      "name": "safeMint",
      "outputs": [],
      "stateMutability": "nonpayable",
      "type": "function"
    },
    {
      "inputs": [
        {
          "internalType": "address",
          "name": "from",
          "type": "address"
        },
        {
          "internalType": "address",
          "name": "to",
          "type": "address"
        },
        {
          "internalType": "uint256",
          "name": "tokenId",
          "type": "uint256"
        }
      ],
      "name": "safeTransferFrom",
      "outputs": [],
      "stateMutability": "nonpayable",
      "type": "function"
    },
    {
      "inputs": [
        {
          "internalType": "address",
          "name": "from",
          "type": "address"
        },
        {
          "internalType": "address",
          "name": "to",
          "type": "address"
        },
        {
          "internalType": "uint256",
          "name": "tokenId",
          "type": "uint256"
        },
        {
          "internalType": "bytes",
          "name": "data",
          "type": "bytes"
        }
      ],
      "name": "safeTransferFrom",
      "outputs": [],
      "stateMutability": "nonpayable",
      "type": "function"
    },
    {
      "inputs": [
        {
          "internalType": "address",
          "name": "operator",
          "type": "address"
        },
        {
          "internalType": "bool",
          "name": "approved",
          "type": "bool"
        }
      ],
      "name": "setApprovalForAll",
      "outputs": [],
      "stateMutability": "nonpayable",
      "type": "function"
    },
    {
      "inputs": [
        {
          "internalType": "bytes4",
          "name": "interfaceId",
          "type": "bytes4"
        }
      ],
      "name": "supportsInterface",
      "outputs": [
        {
          "internalType": "bool",
          "name": "",
          "type": "bool"
        }
      ],
      "stateMutability": "view",
      "type": "function"
    },
    {
      "inputs": [],
      "name": "symbol",
      "outputs": [
        {
          "internalType": "string",
          "name": "",
          "type": "string"
        }
      ],
      "stateMutability": "view",
      "type": "function"
    },
    {
      "inputs": [
        {
          "internalType": "uint256",
          "name": "index",
          "type": "uint256"
        }
      ],
      "name": "tokenByIndex",
      "outputs": [
        {
          "internalType": "uint256",
          "name": "",
          "type": "uint256"
        }
      ],
      "stateMutability": "view",
      "type": "function"
    },
    {
      "inputs": [
        {
          "internalType": "uint256",
          "name": "tokenId",
          "type": "uint256"
        }
      ],
      "name": "tokenCommunity",
      "outputs": [
        {
          "internalType": "uint256",
          "name": "",
          "type": "uint256"
        }
      ],
      "stateMutability": "view",
      "type": "function"
    },
    {
      "inputs": [
        {
          "internalType": "address",
          "name": "owner",
          "type": "address"
        },
        {
          "internalType": "uint256",
          "name": "index",
          "type": "uint256"
        }
      ],
      "name": "tokenOfOwnerByIndex",
      "outputs": [
        {
          "internalType": "uint256",
          "name": "",
          "type": "uint256"
        }
      ],
      "stateMutability": "view",
      "type": "function"
    },
    {
      "inputs": [
        {
          "internalType": "uint256",
          "name": "tokenId",
          "type": "uint256"
        }
      ],
      "name": "tokenURI",
      "outputs": [
        {
          "internalType": "string",
          "name": "",
          "type": "string"
        }
      ],
      "stateMutability": "view",
      "type": "function"
    },
    {
      "inputs": [],
      "name": "totalSupply",
      "outputs": [
        {
          "internalType": "uint256",
          "name": "",
          "type": "uint256"
        }
      ],
      "stateMutability": "view",
      "type": "function"
    },
    {
      "inputs": [
        {
          "internalType": "address",
          "name": "from",
          "type": "address"
        },
        {
          "internalType": "address",
          "name": "to",
          "type": "address"
        },
        {
          "internalType": "uint256",
          "name": "tokenId",
          "type": "uint256"
        }
      ],
      "name": "transferFrom",
      "outputs": [],
      "stateMutability": "nonpayable",
      "type": "function"
    },
    {
      "inputs": [
        {
          "internalType": "address",
          "name": "newOwner",
          "type": "address"
        }
      ],
      "name": "transferOwnership",
      "outputs": [],
      "stateMutability": "nonpayable",
      "type": "function"
    },
    {
      "inputs": [
        {
          "internalType": "address",
          "name": "newImplementation",
          "type": "address"
        },
        {
          "internalType": "bytes",
          "name": "data",
          "type": "bytes"
        }
      ],
      "name": "upgradeToAndCall",
      "outputs": [],
      "stateMutability": "payable",
      "type": "function"
    }
  ],
  "bytecode": "0x60a06040523073ffffffffffffffffffffffffffffffffffffffff1660809073ffffffffffffffffffffffffffffffffffffffff168152503480156200004457600080fd5b50620000556200005b60201b60201c565b620001cf565b60006200006d6200016560201b60201c565b90508060000160089054906101000a900460ff1615620000b9576040517ff92ee8a900000000000000000000000000000000000000000000000000000000815260040160405180910390fd5b67ffffffffffffffff80168160000160009054906101000a900467ffffffffffffffff1667ffffffffffffffff1614620001625767ffffffffffffffff8160000160006101000a81548167ffffffffffffffff021916908367ffffffffffffffff1602179055507fc7f505b2f371ae2175ee4913f4499e1f2633a7b5936321eed1cdaeb6115181d267ffffffffffffffff604051620001599190620001b2565b60405180910390a15b50565b60007ff0c57e16840df040f15088dc2f81fe391c3923bec73e23a9662efc9c229c6a00905090565b600067ffffffffffffffff82169050919050565b620001ac816200018d565b82525050565b6000602082019050620001c96000830184620001a1565b92915050565b608051613d9a620001f96000396000818161150d01528181611562015261171d0152613d9a6000f3fe60806040526004361061019c5760003560e01c806352d1902d116100ec578063a14481941161008a578063b88d4fde11610064578063b88d4fde146105b7578063c87b56dd146105e0578063e985e9c51461061d578063f2fde38b1461065a5761019c565b8063a14481941461053a578063a22cb46514610563578063ad3cb1cc1461058c5761019c565b8063715018a6116100c6578063715018a6146104b65780638129fc1c146104cd5780638da5cb5b146104e457806395d89b411461050f5761019c565b806352d1902d146104115780636352211e1461043c57806370a08231146104795761019c565b8063274ff7ce1161015957806342842e0e1161013357806342842e0e1461036657806342966c681461038f5780634f1ef286146103b85780634f6ccce7146103d45761019c565b8063274ff7ce146102c35780632f745c59146102ec5780633bbdfef7146103295761019c565b806301ffc9a7146101a157806306fdde03146101de578063081812fc14610209578063095ea7b31461024657806318160ddd1461026f57806323b872dd1461029a575b600080fd5b3480156101ad57600080fd5b506101c860048036038101906101c39190612fb9565b610683565b6040516101d59190613001565b60405180910390f35b3480156101ea57600080fd5b506101f3610695565b60405161020091906130ac565b60405180910390f35b34801561021557600080fd5b50610230600480360381019061022b9190613104565b610736565b60405161023d9190613172565b60405180910390f35b34801561025257600080fd5b5061026d600480360381019061026891906131b9565b610752565b005b34801561027b57600080fd5b50610284610768565b6040516102919190613208565b60405180910390f35b3480156102a657600080fd5b506102c160048036038101906102bc9190613223565b610783565b005b3480156102cf57600080fd5b506102ea60048036038101906102e59190613104565b610885565b005b3480156102f857600080fd5b50610313600480360381019061030e91906131b9565b6108b0565b6040516103209190613208565b60405180910390f35b34801561033557600080fd5b50610350600480360381019061034b9190613104565b610967565b60405161035d9190613208565b60405180910390f35b34801561037257600080fd5b5061038d60048036038101906103889190613223565b6109fa565b005b34801561039b57600080fd5b506103b660048036038101906103b19190613104565b610a1a565b005b6103d260048036038101906103cd91906133ab565b610af0565b005b3480156103e057600080fd5b506103fb60048036038101906103f69190613104565b610b0f565b6040516104089190613208565b60405180910390f35b34801561041d57600080fd5b50610426610b93565b6040516104339190613420565b60405180910390f35b34801561044857600080fd5b50610463600480360381019061045e9190613104565b610bc6565b6040516104709190613172565b60405180910390f35b34801561048557600080fd5b506104a0600480360381019061049b919061343b565b610bd8565b6040516104ad9190613208565b60405180910390f35b3480156104c257600080fd5b506104cb610ca1565b005b3480156104d957600080fd5b506104e2610cb5565b005b3480156104f057600080fd5b506104f9610ec7565b6040516105069190613172565b60405180910390f35b34801561051b57600080fd5b50610524610eff565b60405161053191906130ac565b60405180910390f35b34801561054657600080fd5b50610561600480360381019061055c91906131b9565b610fa0565b005b34801561056f57600080fd5b5061058a60048036038101906105859190613494565b610fe9565b005b34801561059857600080fd5b506105a1610fff565b6040516105ae91906130ac565b60405180910390f35b3480156105c357600080fd5b506105de60048036038101906105d991906134d4565b611038565b005b3480156105ec57600080fd5b5061060760048036038101906106029190613104565b611055565b60405161061491906130ac565b60405180910390f35b34801561062957600080fd5b50610644600480360381019061063f9190613557565b6110be565b6040516106519190613001565b60405180910390f35b34801561066657600080fd5b50610681600480360381019061067c919061343b565b611160565b005b600061068e826111e6565b9050919050565b606060006106a1611260565b90508060000180546106b2906135c6565b80601f01602080910402602001604051908101604052809291908181526020018280546106de906135c6565b801561072b5780601f106107005761010080835404028352916020019161072b565b820191906000526020600020905b81548152906001019060200180831161070e57829003601f168201915b505050505091505090565b600061074182611288565b5061074b82611310565b9050919050565b610764828261075f61135b565b611363565b5050565b600080610773611375565b9050806002018054905091505090565b600073ffffffffffffffffffffffffffffffffffffffff168273ffffffffffffffffffffffffffffffffffffffff16036107f55760006040517f64a0ae920000000000000000000000000000000000000000000000000000000081526004016107ec9190613172565b60405180910390fd5b6000610809838361080461135b565b61139d565b90508373ffffffffffffffffffffffffffffffffffffffff168173ffffffffffffffffffffffffffffffffffffffff161461087f578382826040517f64283d7b000000000000000000000000000000000000000000000000000000008152600401610876939291906135f7565b60405180910390fd5b50505050565b61088d6113b3565b6108968161143a565b600160008281526020019081526020016000206000905550565b6000806108bb611375565b90506108c684610bd8565b831061090b5783836040517fa57d13dc00000000000000000000000000000000000000000000000000000000815260040161090292919061362e565b60405180910390fd5b8060000160008573ffffffffffffffffffffffffffffffffffffffff1673ffffffffffffffffffffffffffffffffffffffff16815260200190815260200160002060008481526020019081526020016000205491505092915050565b60008073ffffffffffffffffffffffffffffffffffffffff16610989836114c0565b73ffffffffffffffffffffffffffffffffffffffff16036109df576040517f08c379a00000000000000000000000000000000000000000000000000000000081526004016109d6906136a3565b60405180910390fd5b60016000838152602001908152602001600020549050919050565b610a1583838360405180602001604052806000815250611038565b505050565b3373ffffffffffffffffffffffffffffffffffffffff16610a3a82610bc6565b73ffffffffffffffffffffffffffffffffffffffff161480610a8e5750610a5f610ec7565b73ffffffffffffffffffffffffffffffffffffffff163373ffffffffffffffffffffffffffffffffffffffff16145b610acd576040517f08c379a0000000000000000000000000000000000000000000000000000000008152600401610ac490613735565b60405180910390fd5b6001600082815260200190815260200160002060009055610aed8161143a565b50565b610af861150b565b610b01826115f1565b610b0b82826115fc565b5050565b600080610b1a611375565b9050610b24610768565b8310610b6a576000836040517fa57d13dc000000000000000000000000000000000000000000000000000000008152600401610b6192919061362e565b60405180910390fd5b806002018381548110610b8057610b7f613755565b5b9060005260206000200154915050919050565b6000610b9d61171b565b7f360894a13ba1a3210667c828492db98dca3e2076cc3735a920a3ca505d382bbc60001b905090565b6000610bd182611288565b9050919050565b600080610be3611260565b9050600073ffffffffffffffffffffffffffffffffffffffff168373ffffffffffffffffffffffffffffffffffffffff1603610c575760006040517f89c62b64000000000000000000000000000000000000000000000000000000008152600401610c4e9190613172565b60405180910390fd5b8060030160008473ffffffffffffffffffffffffffffffffffffffff1673ffffffffffffffffffffffffffffffffffffffff16815260200190815260200160002054915050919050565b610ca96113b3565b610cb360006117a2565b565b6000610cbf611879565b905060008160000160089054906101000a900460ff1615905060008260000160009054906101000a900467ffffffffffffffff1690506000808267ffffffffffffffff16148015610d0d5750825b9050600060018367ffffffffffffffff16148015610d42575060003073ffffffffffffffffffffffffffffffffffffffff163b145b905081158015610d50575080155b15610d87576040517ff92ee8a900000000000000000000000000000000000000000000000000000000815260040160405180910390fd5b60018560000160006101000a81548167ffffffffffffffff021916908367ffffffffffffffff1602179055508315610dd75760018560000160086101000a81548160ff0219169083151502179055505b610e4b6040518060400160405280600f81526020017f476f7665726e616e6365546f6b656e00000000000000000000000000000000008152506040518060400160405280600681526020017f474f564e465400000000000000000000000000000000000000000000000000008152506118a1565b610e536118b7565b610e5c336118c1565b610e646118d5565b8315610ec05760008560000160086101000a81548160ff0219169083151502179055507fc7f505b2f371ae2175ee4913f4499e1f2633a7b5936321eed1cdaeb6115181d26001604051610eb791906137dd565b60405180910390a15b5050505050565b600080610ed26118df565b90508060000160009054906101000a900473ffffffffffffffffffffffffffffffffffffffff1691505090565b60606000610f0b611260565b9050806001018054610f1c906135c6565b80601f0160208091040260200160405190810160405280929190818152602001828054610f48906135c6565b8015610f955780601f10610f6a57610100808354040283529160200191610f95565b820191906000526020600020905b815481529060010190602001808311610f7857829003601f168201915b505050505091505090565b610fa86113b3565b6000806000815480929190610fbc90613827565b919050559050610fcc8382611907565b816001600083815260200190815260200160002081905550505050565b610ffb610ff461135b565b8383611925565b5050565b6040518060400160405280600581526020017f352e302e3000000000000000000000000000000000000000000000000000000081525081565b611043848484610783565b61104f84848484611aa3565b50505050565b606061106082611288565b50600061106b611c5a565b9050600081511161108b57604051806020016040528060008152506110b6565b8061109584611c71565b6040516020016110a69291906138ab565b6040516020818303038152906040525b915050919050565b6000806110c9611260565b90508060050160008573ffffffffffffffffffffffffffffffffffffffff1673ffffffffffffffffffffffffffffffffffffffff16815260200190815260200160002060008473ffffffffffffffffffffffffffffffffffffffff1673ffffffffffffffffffffffffffffffffffffffff16815260200190815260200160002060009054906101000a900460ff1691505092915050565b6111686113b3565b600073ffffffffffffffffffffffffffffffffffffffff168173ffffffffffffffffffffffffffffffffffffffff16036111da5760006040517f1e4fbdf70000000000000000000000000000000000000000000000000000000081526004016111d19190613172565b60405180910390fd5b6111e3816117a2565b50565b60007f780e9d63000000000000000000000000000000000000000000000000000000007bffffffffffffffffffffffffffffffffffffffffffffffffffffffff1916827bffffffffffffffffffffffffffffffffffffffffffffffffffffffff19161480611259575061125882611d3f565b5b9050919050565b60007f80bb2b638cc20bc4d0a60d66940f3ab4a00c1d7b313497ca82fb0b4ab0079300905090565b600080611294836114c0565b9050600073ffffffffffffffffffffffffffffffffffffffff168173ffffffffffffffffffffffffffffffffffffffff160361130757826040517f7e2732890000000000000000000000000000000000000000000000000000000081526004016112fe9190613208565b60405180910390fd5b80915050919050565b60008061131b611260565b905080600401600084815260200190815260200160002060009054906101000a900473ffffffffffffffffffffffffffffffffffffffff16915050919050565b600033905090565b6113708383836001611e21565b505050565b60007f645e039705490088daad89bae25049a34f4a9072d398537b1ab2425f24cbed00905090565b60006113aa848484611ff5565b90509392505050565b6113bb61135b565b73ffffffffffffffffffffffffffffffffffffffff166113d9610ec7565b73ffffffffffffffffffffffffffffffffffffffff1614611438576113fc61135b565b6040517f118cdaa700000000000000000000000000000000000000000000000000000000815260040161142f9190613172565b60405180910390fd5b565b6000611449600083600061139d565b9050600073ffffffffffffffffffffffffffffffffffffffff168173ffffffffffffffffffffffffffffffffffffffff16036114bc57816040517f7e2732890000000000000000000000000000000000000000000000000000000081526004016114b39190613208565b60405180910390fd5b5050565b6000806114cb611260565b905080600201600084815260200190815260200160002060009054906101000a900473ffffffffffffffffffffffffffffffffffffffff16915050919050565b7f000000000000000000000000000000000000000000000000000000000000000073ffffffffffffffffffffffffffffffffffffffff163073ffffffffffffffffffffffffffffffffffffffff1614806115b857507f000000000000000000000000000000000000000000000000000000000000000073ffffffffffffffffffffffffffffffffffffffff1661159f612112565b73ffffffffffffffffffffffffffffffffffffffff1614155b156115ef576040517fe07c8dba00000000000000000000000000000000000000000000000000000000815260040160405180910390fd5b565b6115f96113b3565b50565b8173ffffffffffffffffffffffffffffffffffffffff166352d1902d6040518163ffffffff1660e01b8152600401602060405180830381865afa92505050801561166457506040513d601f19601f8201168201806040525081019061166191906138fb565b60015b6116a557816040517f4c9c8ce300000000000000000000000000000000000000000000000000000000815260040161169c9190613172565b60405180910390fd5b7f360894a13ba1a3210667c828492db98dca3e2076cc3735a920a3ca505d382bbc60001b811461170c57806040517faa1d49a40000000000000000000000000000000000000000000000000000000081526004016117039190613420565b60405180910390fd5b6117168383612169565b505050565b7f000000000000000000000000000000000000000000000000000000000000000073ffffffffffffffffffffffffffffffffffffffff163073ffffffffffffffffffffffffffffffffffffffff16146117a0576040517fe07c8dba00000000000000000000000000000000000000000000000000000000815260040160405180910390fd5b565b60006117ac6118df565b905060008160000160009054906101000a900473ffffffffffffffffffffffffffffffffffffffff169050828260000160006101000a81548173ffffffffffffffffffffffffffffffffffffffff021916908373ffffffffffffffffffffffffffffffffffffffff1602179055508273ffffffffffffffffffffffffffffffffffffffff168173ffffffffffffffffffffffffffffffffffffffff167f8be0079c531659141344cd1fd0a4f28419497f9722a3daafe3b4186f6b6457e060405160405180910390a3505050565b60007ff0c57e16840df040f15088dc2f81fe391c3923bec73e23a9662efc9c229c6a00905090565b6118a96121dc565b6118b3828261221c565b5050565b6118bf6121dc565b565b6118c96121dc565b6118d281612259565b50565b6118dd6121dc565b565b60007f9016d09d72d40fdae2fd8ceac6b6234c7706214fd39c1cd1e609a0528c199300905090565b6119218282604051806020016040528060008152506122df565b5050565b600061192f611260565b9050600073ffffffffffffffffffffffffffffffffffffffff168373ffffffffffffffffffffffffffffffffffffffff16036119a257826040517f5b08ba180000000000000000000000000000000000000000000000000000000081526004016119999190613172565b60405180910390fd5b818160050160008673ffffffffffffffffffffffffffffffffffffffff1673ffffffffffffffffffffffffffffffffffffffff16815260200190815260200160002060008573ffffffffffffffffffffffffffffffffffffffff1673ffffffffffffffffffffffffffffffffffffffff16815260200190815260200160002060006101000a81548160ff0219169083151502179055508273ffffffffffffffffffffffffffffffffffffffff168473ffffffffffffffffffffffffffffffffffffffff167f17307eab39ab6107e8899845ad3d59bd9653f200f220920489ca2b5937696c3184604051611a959190613001565b60405180910390a350505050565b60008373ffffffffffffffffffffffffffffffffffffffff163b1115611c54578273ffffffffffffffffffffffffffffffffffffffff1663150b7a02611ae761135b565b8685856040518563ffffffff1660e01b8152600401611b09949392919061397d565b6020604051808303816000875af1925050508015611b4557506040513d601f19601f82011682018060405250810190611b4291906139de565b60015b611bc9573d8060008114611b75576040519150601f19603f3d011682016040523d82523d6000602084013e611b7a565b606091505b506000815103611bc157836040517f64a0ae92000000000000000000000000000000000000000000000000000000008152600401611bb89190613172565b60405180910390fd5b805181602001fd5b63150b7a0260e01b7bffffffffffffffffffffffffffffffffffffffffffffffffffffffff1916817bffffffffffffffffffffffffffffffffffffffffffffffffffffffff191614611c5257836040517f64a0ae92000000000000000000000000000000000000000000000000000000008152600401611c499190613172565b60405180910390fd5b505b50505050565b606060405180602001604052806000815250905090565b606060006001611c80846122fb565b01905060008167ffffffffffffffff811115611c9f57611c9e613280565b5b6040519080825280601f01601f191660200182016040528015611cd15781602001600182028036833780820191505090505b509050600082602001820190505b600115611d34578080600190039150507f3031323334353637383961626364656600000000000000000000000000000000600a86061a8153600a8581611d2857611d27613a0b565b5b04945060008503611cdf575b819350505050919050565b60007f80ac58cd000000000000000000000000000000000000000000000000000000007bffffffffffffffffffffffffffffffffffffffffffffffffffffffff1916827bffffffffffffffffffffffffffffffffffffffffffffffffffffffff19161480611e0a57507f5b5e139f000000000000000000000000000000000000000000000000000000007bffffffffffffffffffffffffffffffffffffffffffffffffffffffff1916827bffffffffffffffffffffffffffffffffffffffffffffffffffffffff1916145b80611e1a5750611e198261244e565b5b9050919050565b6000611e2b611260565b90508180611e665750600073ffffffffffffffffffffffffffffffffffffffff168373ffffffffffffffffffffffffffffffffffffffff1614155b15611f9a576000611e7685611288565b9050600073ffffffffffffffffffffffffffffffffffffffff168473ffffffffffffffffffffffffffffffffffffffff1614158015611ee157508373ffffffffffffffffffffffffffffffffffffffff168173ffffffffffffffffffffffffffffffffffffffff1614155b8015611ef45750611ef281856110be565b155b15611f3657836040517fa9fbf51f000000000000000000000000000000000000000000000000000000008152600401611f2d9190613172565b60405180910390fd5b8215611f9857848673ffffffffffffffffffffffffffffffffffffffff168273ffffffffffffffffffffffffffffffffffffffff167f8c5be1e5ebec7d5bd14f71427d1e84f3dd0314c0f7b2291e5b200ac8c7c3b92560405160405180910390a45b505b8481600401600086815260200190815260200160002060006101000a81548173ffffffffffffffffffffffffffffffffffffffff021916908373ffffffffffffffffffffffffffffffffffffffff1602179055505050505050565b6000806120038585856124b8565b9050600073ffffffffffffffffffffffffffffffffffffffff168173ffffffffffffffffffffffffffffffffffffffff160361204757612042846126e5565b612086565b8473ffffffffffffffffffffffffffffffffffffffff168173ffffffffffffffffffffffffffffffffffffffff1614612085576120848185612741565b5b5b600073ffffffffffffffffffffffffffffffffffffffff168573ffffffffffffffffffffffffffffffffffffffff16036120c8576120c3846128bb565b612107565b8473ffffffffffffffffffffffffffffffffffffffff168173ffffffffffffffffffffffffffffffffffffffff16146121065761210585856129a7565b5b5b809150509392505050565b60006121407f360894a13ba1a3210667c828492db98dca3e2076cc3735a920a3ca505d382bbc60001b612a43565b60000160009054906101000a900473ffffffffffffffffffffffffffffffffffffffff16905090565b61217282612a4d565b8173ffffffffffffffffffffffffffffffffffffffff167fbc7cd75a20ee27fd9adebab32041f755214dbc6bffa90cc0225b39da2e5c2d3b60405160405180910390a26000815111156121cf576121c98282612b1a565b506121d8565b6121d7612b9e565b5b5050565b6121e4612bdb565b61221a576040517fd7e6bcf800000000000000000000000000000000000000000000000000000000815260040160405180910390fd5b565b6122246121dc565b600061222e611260565b9050828160000190816122419190613bdc565b50818160010190816122539190613bdc565b50505050565b6122616121dc565b600073ffffffffffffffffffffffffffffffffffffffff168173ffffffffffffffffffffffffffffffffffffffff16036122d35760006040517f1e4fbdf70000000000000000000000000000000000000000000000000000000081526004016122ca9190613172565b60405180910390fd5b6122dc816117a2565b50565b6122e98383612bfb565b6122f66000848484611aa3565b505050565b600080600090507a184f03e93ff9f4daa797ed6e38ed64bf6a1f0100000000000000008310612359577a184f03e93ff9f4daa797ed6e38ed64bf6a1f010000000000000000838161234f5761234e613a0b565b5b0492506040810190505b6d04ee2d6d415b85acef81000000008310612396576d04ee2d6d415b85acef8100000000838161238c5761238b613a0b565b5b0492506020810190505b662386f26fc1000083106123c557662386f26fc1000083816123bb576123ba613a0b565b5b0492506010810190505b6305f5e10083106123ee576305f5e10083816123e4576123e3613a0b565b5b0492506008810190505b612710831061241357612710838161240957612408613a0b565b5b0492506004810190505b60648310612436576064838161242c5761242b613a0b565b5b0492506002810190505b600a8310612445576001810190505b80915050919050565b60007f01ffc9a7000000000000000000000000000000000000000000000000000000007bffffffffffffffffffffffffffffffffffffffffffffffffffffffff1916827bffffffffffffffffffffffffffffffffffffffffffffffffffffffff1916149050919050565b6000806124c3611260565b905060006124d0856114c0565b9050600073ffffffffffffffffffffffffffffffffffffffff168473ffffffffffffffffffffffffffffffffffffffff161461251257612511818587612cf4565b5b600073ffffffffffffffffffffffffffffffffffffffff168173ffffffffffffffffffffffffffffffffffffffff16146125a557612554600086600080611e21565b60018260030160008373ffffffffffffffffffffffffffffffffffffffff1673ffffffffffffffffffffffffffffffffffffffff168152602001908152602001600020600082825403925050819055505b600073ffffffffffffffffffffffffffffffffffffffff168673ffffffffffffffffffffffffffffffffffffffff161461262a5760018260030160008873ffffffffffffffffffffffffffffffffffffffff1673ffffffffffffffffffffffffffffffffffffffff168152602001908152602001600020600082825401925050819055505b8582600201600087815260200190815260200160002060006101000a81548173ffffffffffffffffffffffffffffffffffffffff021916908373ffffffffffffffffffffffffffffffffffffffff160217905550848673ffffffffffffffffffffffffffffffffffffffff168273ffffffffffffffffffffffffffffffffffffffff167fddf252ad1be2c89b69c2b068fc378daa952ba7f163c4a11628f55a4df523b3ef60405160405180910390a480925050509392505050565b60006126ef611375565b9050806002018054905081600301600084815260200190815260200160002081905550806002018290806001815401808255809150506001900390600052602060002001600090919091909150555050565b600061274b611375565b9050600061275884610bd8565b905060008260010160008581526020019081526020016000205490508181146128455760008360000160008773ffffffffffffffffffffffffffffffffffffffff1673ffffffffffffffffffffffffffffffffffffffff1681526020019081526020016000206000848152602001908152602001600020549050808460000160008873ffffffffffffffffffffffffffffffffffffffff1673ffffffffffffffffffffffffffffffffffffffff1681526020019081526020016000206000848152602001908152602001600020819055508184600101600083815260200190815260200160002081905550505b826001016000858152602001908152602001600020600090558260000160008673ffffffffffffffffffffffffffffffffffffffff1673ffffffffffffffffffffffffffffffffffffffff1681526020019081526020016000206000838152602001908152602001600020600090555050505050565b60006128c5611375565b90506000600182600201805490506128dd9190613cae565b90506000826003016000858152602001908152602001600020549050600083600201838154811061291157612910613755565b5b906000526020600020015490508084600201838154811061293557612934613755565b5b90600052602060002001819055508184600301600083815260200190815260200160002081905550836003016000868152602001908152602001600020600090558360020180548061298a57612989613ce2565b5b600190038181906000526020600020016000905590555050505050565b60006129b1611375565b9050600060016129c085610bd8565b6129ca9190613cae565b9050828260000160008673ffffffffffffffffffffffffffffffffffffffff1673ffffffffffffffffffffffffffffffffffffffff168152602001908152602001600020600083815260200190815260200160002081905550808260010160008581526020019081526020016000208190555050505050565b6000819050919050565b60008173ffffffffffffffffffffffffffffffffffffffff163b03612aa957806040517f4c9c8ce3000000000000000000000000000000000000000000000000000000008152600401612aa09190613172565b60405180910390fd5b80612ad67f360894a13ba1a3210667c828492db98dca3e2076cc3735a920a3ca505d382bbc60001b612a43565b60000160006101000a81548173ffffffffffffffffffffffffffffffffffffffff021916908373ffffffffffffffffffffffffffffffffffffffff16021790555050565b60606000808473ffffffffffffffffffffffffffffffffffffffff1684604051612b449190613d4d565b600060405180830381855af49150503d8060008114612b7f576040519150601f19603f3d011682016040523d82523d6000602084013e612b84565b606091505b5091509150612b94858383612db8565b9250505092915050565b6000341115612bd9576040517fb398979f00000000000000000000000000000000000000000000000000000000815260040160405180910390fd5b565b6000612be5611879565b60000160089054906101000a900460ff16905090565b600073ffffffffffffffffffffffffffffffffffffffff168273ffffffffffffffffffffffffffffffffffffffff1603612c6d5760006040517f64a0ae92000000000000000000000000000000000000000000000000000000008152600401612c649190613172565b60405180910390fd5b6000612c7b8383600061139d565b9050600073ffffffffffffffffffffffffffffffffffffffff168173ffffffffffffffffffffffffffffffffffffffff1614612cef5760006040517f73c6ac6e000000000000000000000000000000000000000000000000000000008152600401612ce69190613172565b60405180910390fd5b505050565b612cff838383612e47565b612db357600073ffffffffffffffffffffffffffffffffffffffff168373ffffffffffffffffffffffffffffffffffffffff1603612d7457806040517f7e273289000000000000000000000000000000000000000000000000000000008152600401612d6b9190613208565b60405180910390fd5b81816040517f177e802f000000000000000000000000000000000000000000000000000000008152600401612daa92919061362e565b60405180910390fd5b505050565b606082612dcd57612dc882612f08565b612e3f565b60008251148015612df5575060008473ffffffffffffffffffffffffffffffffffffffff163b145b15612e3757836040517f9996b315000000000000000000000000000000000000000000000000000000008152600401612e2e9190613172565b60405180910390fd5b819050612e40565b5b9392505050565b60008073ffffffffffffffffffffffffffffffffffffffff168373ffffffffffffffffffffffffffffffffffffffff1614158015612eff57508273ffffffffffffffffffffffffffffffffffffffff168473ffffffffffffffffffffffffffffffffffffffff161480612ec05750612ebf84846110be565b5b80612efe57508273ffffffffffffffffffffffffffffffffffffffff16612ee683611310565b73ffffffffffffffffffffffffffffffffffffffff16145b5b90509392505050565b600081511115612f1b5780518082602001fd5b6040517f1425ea4200000000000000000000000000000000000000000000000000000000815260040160405180910390fd5b6000604051905090565b600080fd5b600080fd5b60007fffffffff0000000000000000000000000000000000000000000000000000000082169050919050565b612f9681612f61565b8114612fa157600080fd5b50565b600081359050612fb381612f8d565b92915050565b600060208284031215612fcf57612fce612f57565b5b6000612fdd84828501612fa4565b91505092915050565b60008115159050919050565b612ffb81612fe6565b82525050565b60006020820190506130166000830184612ff2565b92915050565b600081519050919050565b600082825260208201905092915050565b60005b8381101561305657808201518184015260208101905061303b565b60008484015250505050565b6000601f19601f8301169050919050565b600061307e8261301c565b6130888185613027565b9350613098818560208601613038565b6130a181613062565b840191505092915050565b600060208201905081810360008301526130c68184613073565b905092915050565b6000819050919050565b6130e1816130ce565b81146130ec57600080fd5b50565b6000813590506130fe816130d8565b92915050565b60006020828403121561311a57613119612f57565b5b6000613128848285016130ef565b91505092915050565b600073ffffffffffffffffffffffffffffffffffffffff82169050919050565b600061315c82613131565b9050919050565b61316c81613151565b82525050565b60006020820190506131876000830184613163565b92915050565b61319681613151565b81146131a157600080fd5b50565b6000813590506131b38161318d565b92915050565b600080604083850312156131d0576131cf612f57565b5b60006131de858286016131a4565b92505060206131ef858286016130ef565b9150509250929050565b613202816130ce565b82525050565b600060208201905061321d60008301846131f9565b92915050565b60008060006060848603121561323c5761323b612f57565b5b600061324a868287016131a4565b935050602061325b868287016131a4565b925050604061326c868287016130ef565b9150509250925092565b600080fd5b600080fd5b7f4e487b7100000000000000000000000000000000000000000000000000000000600052604160045260246000fd5b6132b882613062565b810181811067ffffffffffffffff821117156132d7576132d6613280565b5b80604052505050565b60006132ea612f4d565b90506132f682826132af565b919050565b600067ffffffffffffffff82111561331657613315613280565b5b61331f82613062565b9050602081019050919050565b82818337600083830152505050565b600061334e613349846132fb565b6132e0565b90508281526020810184848401111561336a5761336961327b565b5b61337584828561332c565b509392505050565b600082601f83011261339257613391613276565b5b81356133a284826020860161333b565b91505092915050565b600080604083850312156133c2576133c1612f57565b5b60006133d0858286016131a4565b925050602083013567ffffffffffffffff8111156133f1576133f0612f5c565b5b6133fd8582860161337d565b9150509250929050565b6000819050919050565b61341a81613407565b82525050565b60006020820190506134356000830184613411565b92915050565b60006020828403121561345157613450612f57565b5b600061345f848285016131a4565b91505092915050565b61347181612fe6565b811461347c57600080fd5b50565b60008135905061348e81613468565b92915050565b600080604083850312156134ab576134aa612f57565b5b60006134b9858286016131a4565b92505060206134ca8582860161347f565b9150509250929050565b600080600080608085870312156134ee576134ed612f57565b5b60006134fc878288016131a4565b945050602061350d878288016131a4565b935050604061351e878288016130ef565b925050606085013567ffffffffffffffff81111561353f5761353e612f5c565b5b61354b8782880161337d565b91505092959194509250565b6000806040838503121561356e5761356d612f57565b5b600061357c858286016131a4565b925050602061358d858286016131a4565b9150509250929050565b7f4e487b7100000000000000000000000000000000000000000000000000000000600052602260045260246000fd5b600060028204905060018216806135de57607f821691505b6020821081036135f1576135f0613597565b5b50919050565b600060608201905061360c6000830186613163565b61361960208301856131f9565b6136266040830184613163565b949350505050565b60006040820190506136436000830185613163565b61365060208301846131f9565b9392505050565b7f4552433732313a20696e76616c696420746f6b656e2049440000000000000000600082015250565b600061368d601883613027565b915061369882613657565b602082019050919050565b600060208201905081810360008301526136bc81613680565b9050919050565b7f4552433732313a2063616c6c6572206973206e6f7420746f6b656e206f776e6560008201527f72206f7220617070726f76656400000000000000000000000000000000000000602082015250565b600061371f602d83613027565b915061372a826136c3565b604082019050919050565b6000602082019050818103600083015261374e81613712565b9050919050565b7f4e487b7100000000000000000000000000000000000000000000000000000000600052603260045260246000fd5b6000819050919050565b600067ffffffffffffffff82169050919050565b6000819050919050565b60006137c76137c26137bd84613784565b6137a2565b61378e565b9050919050565b6137d7816137ac565b82525050565b60006020820190506137f260008301846137ce565b92915050565b7f4e487b7100000000000000000000000000000000000000000000000000000000600052601160045260246000fd5b6000613832826130ce565b91507fffffffffffffffffffffffffffffffffffffffffffffffffffffffffffffffff8203613864576138636137f8565b5b600182019050919050565b600081905092915050565b60006138858261301c565b61388f818561386f565b935061389f818560208601613038565b80840191505092915050565b60006138b7828561387a565b91506138c3828461387a565b91508190509392505050565b6138d881613407565b81146138e357600080fd5b50565b6000815190506138f5816138cf565b92915050565b60006020828403121561391157613910612f57565b5b600061391f848285016138e6565b91505092915050565b600081519050919050565b600082825260208201905092915050565b600061394f82613928565b6139598185613933565b9350613969818560208601613038565b61397281613062565b840191505092915050565b60006080820190506139926000830187613163565b61399f6020830186613163565b6139ac60408301856131f9565b81810360608301526139be8184613944565b905095945050505050565b6000815190506139d881612f8d565b92915050565b6000602082840312156139f4576139f3612f57565b5b6000613a02848285016139c9565b91505092915050565b7f4e487b7100000000000000000000000000000000000000000000000000000000600052601260045260246000fd5b60008190508160005260206000209050919050565b60006020601f8301049050919050565b600082821b905092915050565b600060088302613a9c7fffffffffffffffffffffffffffffffffffffffffffffffffffffffffffffffff82613a5f565b613aa68683613a5f565b95508019841693508086168417925050509392505050565b6000613ad9613ad4613acf846130ce565b6137a2565b6130ce565b9050919050565b6000819050919050565b613af383613abe565b613b07613aff82613ae0565b848454613a6c565b825550505050565b600090565b613b1c613b0f565b613b27818484613aea565b505050565b5b81811015613b4b57613b40600082613b14565b600181019050613b2d565b5050565b601f821115613b9057613b6181613a3a565b613b6a84613a4f565b81016020851015613b79578190505b613b8d613b8585613a4f565b830182613b2c565b50505b505050565b600082821c905092915050565b6000613bb360001984600802613b95565b1980831691505092915050565b6000613bcc8383613ba2565b9150826002028217905092915050565b613be58261301c565b67ffffffffffffffff811115613bfe57613bfd613280565b5b613c0882546135c6565b613c13828285613b4f565b600060209050601f831160018114613c465760008415613c34578287015190505b613c3e8582613bc0565b865550613ca6565b601f198416613c5486613a3a565b60005b82811015613c7c57848901518255600182019150602085019450602081019050613c57565b86831015613c995784890151613c95601f891682613ba2565b8355505b6001600288020188555050505b505050505050565b6000613cb9826130ce565b9150613cc4836130ce565b9250828203905081811115613cdc57613cdb6137f8565b5b92915050565b7f4e487b7100000000000000000000000000000000000000000000000000000000600052603160045260246000fd5b600081905092915050565b6000613d2782613928565b613d318185613d11565b9350613d41818560208601613038565b80840191505092915050565b6000613d598284613d1c565b91508190509291505056fea26469706673582212201f9f976d45d3029e0ba6bcbab642a2b23ecb1f502dc6aec9b331baa65fc79ce464736f6c63430008140033",
  "linkReferences": {},
  "deployedLinkReferences": {}
}