{
  "_format": "hh-sol-artifact-1",
  "contractName": "VotingMechanismUpgradeable",
  "sourceName": "contracts/VotingMechanismUpgradeable.sol",
  "abi": [
    {
      "inputs": [],
      "stateMutability": "nonpayable",
      "type": "constructor"
    },
    {
      "inputs": [
        {
          "internalType": "address",
          "name": "target",
          "type": "address"
        }
      ],
      "name": "AddressEmptyCode",
      "type": "error"
    },
    {
      "inputs": [
        {
          "internalType": "address",
          "name": "implementation",
          "type": "address"
        }
      ],
      "name": "ERC1967InvalidImplementation",
      "type": "error"
    },
    {
      "inputs": [],
      "name": "ERC1967NonPayable",
      "type": "error"
    },
    {
      "inputs": [],
      "name": "FailedInnerCall",
      "type": "error"
    },
    {
      "inputs": [],
      "name": "InvalidInitialization",
      "type": "error"
    },
    {
      "inputs": [],
      "name": "NotInitializing",
      "type": "error"
    },
    {
      "inputs": [
        {
          "internalType": "address",
          "name": "owner",
          "type": "address"
        }
      ],
      "name": "OwnableInvalidOwner",
      "type": "error"
    },
    {
      "inputs": [
        {
          "internalType": "address",
          "name": "account",
          "type": "address"
        }
      ],
      "name": "OwnableUnauthorizedAccount",
      "type": "error"
    },
    {
      "inputs": [],
      "name": "UUPSUnauthorizedCallContext",
      "type": "error"
    },
    {
      "inputs": [
        {
          "internalType": "bytes32",
          "name": "slot",
          "type": "bytes32"
        }
      ],
      "name": "UUPSUnsupportedProxiableUUID",
      "type": "error"
    },
    {
      "anonymous": false,
      "inputs": [
        {
          "indexed": false,
          "internalType": "uint64",
          "name": "version",
          "type": "uint64"
        }
      ],
      "name": "Initialized",
      "type": "event"
    },
    {
      "anonymous": false,
      "inputs": [
        {
          "indexed": true,
          "internalType": "address",
          "name": "previousOwner",
          "type": "address"
        },
        {
          "indexed": true,
          "internalType": "address",
          "name": "newOwner",
          "type": "address"
        }
      ],
      "name": "OwnershipTransferred",
      "type": "event"
    },
    {
      "anonymous": false,
      "inputs": [
        {
          "indexed": true,
          "internalType": "uint256",
          "name": "proposalId",
          "type": "uint256"
        },
        {
          "indexed": true,
          "internalType": "uint256",
          "name": "communityId",
          "type": "uint256"
        },
        {
          "indexed": false,
          "internalType": "string",
          "name": "description",
          "type": "string"
        },
        {
          "indexed": false,
          "internalType": "uint256",
          "name": "startTime",
          "type": "uint256"
        },
        {
          "indexed": false,
          "internalType": "uint256",
          "name": "endTime",
          "type": "uint256"
        },
        {
          "indexed": false,
          "internalType": "enum VotingMechanismUpgradeable.ProposalType",
          "name": "proposalType",
          "type": "uint8"
        }
      ],
      "name": "ProposalCreated",
      "type": "event"
    },
    {
      "anonymous": false,
      "inputs": [
        {
          "indexed": true,
          "internalType": "address",
          "name": "implementation",
          "type": "address"
        }
      ],
      "name": "Upgraded",
      "type": "event"
    },
    {
      "anonymous": false,
      "inputs": [
        {
          "indexed": true,
          "internalType": "uint256",
          "name": "proposalId",
          "type": "uint256"
        },
        {
          "indexed": true,
          "internalType": "address",
          "name": "voter",
          "type": "address"
        },
        {
          "indexed": false,
          "internalType": "bool",
          "name": "support",
          "type": "bool"
        }
      ],
      "name": "Voted",
      "type": "event"
    },
    {
      "inputs": [],
      "name": "UPGRADE_INTERFACE_VERSION",
      "outputs": [
        {
          "internalType": "string",
          "name": "",
          "type": "string"
        }
      ],
      "stateMutability": "view",
      "type": "function"
    },
    {
      "inputs": [],
      "name": "communityDAO",
      "outputs": [
        {
          "internalType": "contract CommunityDAOUpgradeable",
          "name": "",
          "type": "address"
        }
      ],
      "stateMutability": "view",
      "type": "function"
    },
    {
      "inputs": [
        {
          "internalType": "uint256",
          "name": "_communityId",
          "type": "uint256"
        },
        {
          "internalType": "string",
          "name": "_description",
          "type": "string"
        },
        {
          "internalType": "uint256",
          "name": "_votingPeriod",
          "type": "uint256"
        },
        {
          "internalType": "enum VotingMechanismUpgradeable.ProposalType",
          "name": "_proposalType",
          "type": "uint8"
        }
      ],
      "name": "createProposal",
      "outputs": [
        {
          "internalType": "uint256",
          "name": "",
          "type": "uint256"
        }
      ],
      "stateMutability": "nonpayable",
      "type": "function"
    },
    {
      "inputs": [
        {
          "internalType": "uint256",
          "name": "_proposalId",
          "type": "uint256"
        }
      ],
      "name": "getProposalDetails",
      "outputs": [
        {
          "internalType": "uint256",
          "name": "communityId",
          "type": "uint256"
        },
        {
          "internalType": "string",
          "name": "description",
          "type": "string"
        },
        {
          "internalType": "uint256",
          "name": "forVotes",
          "type": "uint256"
        },
        {
          "internalType": "uint256",
          "name": "againstVotes",
          "type": "uint256"
        },
        {
          "internalType": "uint256",
          "name": "startTime",
          "type": "uint256"
        },
        {
          "internalType": "uint256",
          "name": "endTime",
          "type": "uint256"
        },
        {
          "internalType": "enum VotingMechanismUpgradeable.ProposalType",
          "name": "proposalType",
          "type": "uint8"
        }
      ],
      "stateMutability": "view",
      "type": "function"
    },
    {
      "inputs": [],
      "name": "governanceToken",
      "outputs": [
        {
          "internalType": "contract GovernanceTokenUpgradeable",
          "name": "",
          "type": "address"
        }
      ],
      "stateMutability": "view",
      "type": "function"
    },
    {
      "inputs": [
        {
          "internalType": "address",
          "name": "_communityDAOAddress",
          "type": "address"
        },
        {
          "internalType": "address",
          "name": "_governanceTokenAddress",
          "type": "address"
        }
      ],
      "name": "initialize",
      "outputs": [],
      "stateMutability": "nonpayable",
      "type": "function"
    },
    {
      "inputs": [],
      "name": "owner",
      "outputs": [
        {
          "internalType": "address",
          "name": "",
          "type": "address"
        }
      ],
      "stateMutability": "view",
      "type": "function"
    },
    {
      "inputs": [],
      "name": "proposalCount",
      "outputs": [
        {
          "internalType": "uint256",
          "name": "",
          "type": "uint256"
        }
      ],
      "stateMutability": "view",
      "type": "function"
    },
    {
      "inputs": [
        {
          "internalType": "uint256",
          "name": "",
          "type": "uint256"
        }
      ],
      "name": "proposals",
      "outputs": [
        {
          "internalType": "uint256",
          "name": "communityId",
          "type": "uint256"
        },
        {
          "internalType": "string",
          "name": "description",
          "type": "string"
        },
        {
          "internalType": "uint256",
          "name": "forVotes",
          "type": "uint256"
        },
        {
          "internalType": "uint256",
          "name": "againstVotes",
          "type": "uint256"
        },
        {
          "internalType": "uint256",
          "name": "startTime",
          "type": "uint256"
        },
        {
          "internalType": "uint256",
          "name": "endTime",
          "type": "uint256"
        },
        {
          "internalType": "bool",
          "name": "executed",
          "type": "bool"
        },
        {
          "internalType": "enum VotingMechanismUpgradeable.ProposalType",
          "name": "proposalType",
          "type": "uint8"
        }
      ],
      "stateMutability": "view",
      "type": "function"
    },
    {
      "inputs": [],
      "name": "proxiableUUID",
      "outputs": [
        {
          "internalType": "bytes32",
          "name": "",
          "type": "bytes32"
        }
      ],
      "stateMutability": "view",
      "type": "function"
    },
    {
      "inputs": [],
      "name": "renounceOwnership",
      "outputs": [],
      "stateMutability": "nonpayable",
      "type": "function"
    },
    {
      "inputs": [
        {
          "internalType": "address",
          "name": "newOwner",
          "type": "address"
        }
      ],
      "name": "transferOwnership",
      "outputs": [],
      "stateMutability": "nonpayable",
      "type": "function"
    },
    {
      "inputs": [
        {
          "internalType": "address",
          "name": "newImplementation",
          "type": "address"
        },
        {
          "internalType": "bytes",
          "name": "data",
          "type": "bytes"
        }
      ],
      "name": "upgradeToAndCall",
      "outputs": [],
      "stateMutability": "payable",
      "type": "function"
    },
    {
      "inputs": [
        {
          "internalType": "uint256",
          "name": "_proposalId",
          "type": "uint256"
        },
        {
          "internalType": "bool",
          "name": "_support",
          "type": "bool"
        }
      ],
      "name": "vote",
      "outputs": [],
      "stateMutability": "nonpayable",
      "type": "function"
    }
  ],
  "bytecode": "0x60a06040523073ffffffffffffffffffffffffffffffffffffffff1660809073ffffffffffffffffffffffffffffffffffffffff168152503480156200004457600080fd5b50620000556200005b60201b60201c565b620001cf565b60006200006d6200016560201b60201c565b90508060000160089054906101000a900460ff1615620000b9576040517ff92ee8a900000000000000000000000000000000000000000000000000000000815260040160405180910390fd5b67ffffffffffffffff80168160000160009054906101000a900467ffffffffffffffff1667ffffffffffffffff1614620001625767ffffffffffffffff8160000160006101000a81548167ffffffffffffffff021916908367ffffffffffffffff1602179055507fc7f505b2f371ae2175ee4913f4499e1f2633a7b5936321eed1cdaeb6115181d267ffffffffffffffff604051620001599190620001b2565b60405180910390a15b50565b60007ff0c57e16840df040f15088dc2f81fe391c3923bec73e23a9662efc9c229c6a00905090565b600067ffffffffffffffff82169050919050565b620001ac816200018d565b82525050565b6000602082019050620001c96000830184620001a1565b92915050565b608051612294620001f960003960008181610c3b01528181610c900152610e4b01526122946000f3fe6080604052600436106100dd5760003560e01c80638da5cb5b1161007f578063c9d27afe11610059578063c9d27afe146102ae578063da35c664146102d7578063f2fde38b14610302578063f96dae0a1461032b576100dd565b80638da5cb5b1461021b578063ad3cb1cc14610246578063b78dacf014610271576100dd565b80634f1ef286116100bb5780634f1ef2861461019257806352d1902d146101ae578063715018a6146101d95780638207546e146101f0576100dd565b8063013cf08b146100e25780633b4d01a714610126578063485cc95514610169575b600080fd5b3480156100ee57600080fd5b50610109600480360381019061010491906114c4565b610356565b60405161011d989796959493929190611622565b60405180910390f35b34801561013257600080fd5b5061014d600480360381019061014891906114c4565b610440565b60405161016097969594939291906116a7565b60405180910390f35b34801561017557600080fd5b50610190600480360381019061018b919061177b565b610537565b005b6101ac60048036038101906101a791906118f0565b610750565b005b3480156101ba57600080fd5b506101c361076f565b6040516101d09190611965565b60405180910390f35b3480156101e557600080fd5b506101ee6107a2565b005b3480156101fc57600080fd5b506102056107b6565b60405161021291906119df565b60405180910390f35b34801561022757600080fd5b506102306107da565b60405161023d9190611a09565b60405180910390f35b34801561025257600080fd5b5061025b610812565b6040516102689190611a24565b60405180910390f35b34801561027d57600080fd5b5061029860048036038101906102939190611b0c565b61084b565b6040516102a59190611b8f565b60405180910390f35b3480156102ba57600080fd5b506102d560048036038101906102d09190611bd6565b610956565b005b3480156102e357600080fd5b506102ec610b41565b6040516102f99190611b8f565b60405180910390f35b34801561030e57600080fd5b5061032960048036038101906103249190611c16565b610b47565b005b34801561033757600080fd5b50610340610bcd565b60405161034d9190611c64565b60405180910390f35b600260205280600052604060002060009150905080600001549080600101805461037f90611cae565b80601f01602080910402602001604051908101604052809291908181526020018280546103ab90611cae565b80156103f85780601f106103cd576101008083540402835291602001916103f8565b820191906000526020600020905b8154815290600101906020018083116103db57829003601f168201915b5050505050908060020154908060030154908060040154908060050154908060060160009054906101000a900460ff16908060060160019054906101000a900460ff16905088565b60006060600080600080600080600260008a8152602001908152602001600020905080600001548160010182600201548360030154846004015485600501548660060160019054906101000a900460ff1685805461049d90611cae565b80601f01602080910402602001604051908101604052809291908181526020018280546104c990611cae565b80156105165780601f106104eb57610100808354040283529160200191610516565b820191906000526020600020905b8154815290600101906020018083116104f957829003601f168201915b50505050509550975097509750975097509750975050919395979092949650565b6000610541610bf3565b905060008160000160089054906101000a900460ff1615905060008260000160009054906101000a900467ffffffffffffffff1690506000808267ffffffffffffffff1614801561058f5750825b9050600060018367ffffffffffffffff161480156105c4575060003073ffffffffffffffffffffffffffffffffffffffff163b145b9050811580156105d2575080155b15610609576040517ff92ee8a900000000000000000000000000000000000000000000000000000000815260040160405180910390fd5b60018560000160006101000a81548167ffffffffffffffff021916908367ffffffffffffffff16021790555083156106595760018560000160086101000a81548160ff0219169083151502179055505b61066233610c1b565b61066a610c2f565b866000806101000a81548173ffffffffffffffffffffffffffffffffffffffff021916908373ffffffffffffffffffffffffffffffffffffffff16021790555085600160006101000a81548173ffffffffffffffffffffffffffffffffffffffff021916908373ffffffffffffffffffffffffffffffffffffffff16021790555083156107475760008560000160086101000a81548160ff0219169083151502179055507fc7f505b2f371ae2175ee4913f4499e1f2633a7b5936321eed1cdaeb6115181d2600160405161073e9190611d2e565b60405180910390a15b50505050505050565b610758610c39565b61076182610d1f565b61076b8282610d2a565b5050565b6000610779610e49565b7f360894a13ba1a3210667c828492db98dca3e2076cc3735a920a3ca505d382bbc60001b905090565b6107aa610ed0565b6107b46000610f57565b565b60008054906101000a900473ffffffffffffffffffffffffffffffffffffffff1681565b6000806107e561102e565b90508060000160009054906101000a900473ffffffffffffffffffffffffffffffffffffffff1691505090565b6040518060400160405280600581526020017f352e302e3000000000000000000000000000000000000000000000000000000081525081565b60006003600081548092919061086090611d78565b919050555060006002600060035481526020019081526020016000209050858160000181905550848160010190816108989190611f62565b5042816004018190555083426108ae9190612034565b816005018190555060008160060160006101000a81548160ff021916908315150217905550828160060160016101000a81548160ff021916908360018111156108fa576108f96115ab565b5b0217905550856003547fc61223eb72ec3c725dea98dc39272fd9c4083f89a9b5e09433de3ee66c1576bf8784600401548560050154886040516109409493929190612068565b60405180910390a3600354915050949350505050565b600060026000848152602001908152602001600020905080600401544210158015610985575080600501544211155b6109c4576040517f08c379a00000000000000000000000000000000000000000000000000000000081526004016109bb90612100565b60405180910390fd5b8060070160003373ffffffffffffffffffffffffffffffffffffffff1673ffffffffffffffffffffffffffffffffffffffff16815260200190815260200160002060009054906101000a900460ff1615610a53576040517f08c379a0000000000000000000000000000000000000000000000000000000008152600401610a4a9061216c565b60405180910390fd5b60018160070160003373ffffffffffffffffffffffffffffffffffffffff1673ffffffffffffffffffffffffffffffffffffffff16815260200190815260200160002060006101000a81548160ff0219169083151502179055508115610ad257806002016000815480929190610ac890611d78565b9190505550610aed565b806003016000815480929190610ae790611d78565b91905055505b3373ffffffffffffffffffffffffffffffffffffffff16837ff2913dbe661ee2acc4a046d8fbcdc792373bda34c41c6086484b5345e5785e5f84604051610b34919061218c565b60405180910390a3505050565b60035481565b610b4f610ed0565b600073ffffffffffffffffffffffffffffffffffffffff168173ffffffffffffffffffffffffffffffffffffffff1603610bc15760006040517f1e4fbdf7000000000000000000000000000000000000000000000000000000008152600401610bb89190611a09565b60405180910390fd5b610bca81610f57565b50565b600160009054906101000a900473ffffffffffffffffffffffffffffffffffffffff1681565b60007ff0c57e16840df040f15088dc2f81fe391c3923bec73e23a9662efc9c229c6a00905090565b610c23611056565b610c2c81611096565b50565b610c37611056565b565b7f000000000000000000000000000000000000000000000000000000000000000073ffffffffffffffffffffffffffffffffffffffff163073ffffffffffffffffffffffffffffffffffffffff161480610ce657507f000000000000000000000000000000000000000000000000000000000000000073ffffffffffffffffffffffffffffffffffffffff16610ccd61111c565b73ffffffffffffffffffffffffffffffffffffffff1614155b15610d1d576040517fe07c8dba00000000000000000000000000000000000000000000000000000000815260040160405180910390fd5b565b610d27610ed0565b50565b8173ffffffffffffffffffffffffffffffffffffffff166352d1902d6040518163ffffffff1660e01b8152600401602060405180830381865afa925050508015610d9257506040513d601f19601f82011682018060405250810190610d8f91906121d3565b60015b610dd357816040517f4c9c8ce3000000000000000000000000000000000000000000000000000000008152600401610dca9190611a09565b60405180910390fd5b7f360894a13ba1a3210667c828492db98dca3e2076cc3735a920a3ca505d382bbc60001b8114610e3a57806040517faa1d49a4000000000000000000000000000000000000000000000000000000008152600401610e319190611965565b60405180910390fd5b610e448383611173565b505050565b7f000000000000000000000000000000000000000000000000000000000000000073ffffffffffffffffffffffffffffffffffffffff163073ffffffffffffffffffffffffffffffffffffffff1614610ece576040517fe07c8dba00000000000000000000000000000000000000000000000000000000815260040160405180910390fd5b565b610ed86111e6565b73ffffffffffffffffffffffffffffffffffffffff16610ef66107da565b73ffffffffffffffffffffffffffffffffffffffff1614610f5557610f196111e6565b6040517f118cdaa7000000000000000000000000000000000000000000000000000000008152600401610f4c9190611a09565b60405180910390fd5b565b6000610f6161102e565b905060008160000160009054906101000a900473ffffffffffffffffffffffffffffffffffffffff169050828260000160006101000a81548173ffffffffffffffffffffffffffffffffffffffff021916908373ffffffffffffffffffffffffffffffffffffffff1602179055508273ffffffffffffffffffffffffffffffffffffffff168173ffffffffffffffffffffffffffffffffffffffff167f8be0079c531659141344cd1fd0a4f28419497f9722a3daafe3b4186f6b6457e060405160405180910390a3505050565b60007f9016d09d72d40fdae2fd8ceac6b6234c7706214fd39c1cd1e609a0528c199300905090565b61105e6111ee565b611094576040517fd7e6bcf800000000000000000000000000000000000000000000000000000000815260040160405180910390fd5b565b61109e611056565b600073ffffffffffffffffffffffffffffffffffffffff168173ffffffffffffffffffffffffffffffffffffffff16036111105760006040517f1e4fbdf70000000000000000000000000000000000000000000000000000000081526004016111079190611a09565b60405180910390fd5b61111981610f57565b50565b600061114a7f360894a13ba1a3210667c828492db98dca3e2076cc3735a920a3ca505d382bbc60001b61120e565b60000160009054906101000a900473ffffffffffffffffffffffffffffffffffffffff16905090565b61117c82611218565b8173ffffffffffffffffffffffffffffffffffffffff167fbc7cd75a20ee27fd9adebab32041f755214dbc6bffa90cc0225b39da2e5c2d3b60405160405180910390a26000815111156111d9576111d382826112e5565b506111e2565b6111e1611369565b5b5050565b600033905090565b60006111f8610bf3565b60000160089054906101000a900460ff16905090565b6000819050919050565b60008173ffffffffffffffffffffffffffffffffffffffff163b0361127457806040517f4c9c8ce300000000000000000000000000000000000000000000000000000000815260040161126b9190611a09565b60405180910390fd5b806112a17f360894a13ba1a3210667c828492db98dca3e2076cc3735a920a3ca505d382bbc60001b61120e565b60000160006101000a81548173ffffffffffffffffffffffffffffffffffffffff021916908373ffffffffffffffffffffffffffffffffffffffff16021790555050565b60606000808473ffffffffffffffffffffffffffffffffffffffff168460405161130f9190612247565b600060405180830381855af49150503d806000811461134a576040519150601f19603f3d011682016040523d82523d6000602084013e61134f565b606091505b509150915061135f8583836113a6565b9250505092915050565b60003411156113a4576040517fb398979f00000000000000000000000000000000000000000000000000000000815260040160405180910390fd5b565b6060826113bb576113b682611435565b61142d565b600082511480156113e3575060008473ffffffffffffffffffffffffffffffffffffffff163b145b1561142557836040517f9996b31500000000000000000000000000000000000000000000000000000000815260040161141c9190611a09565b60405180910390fd5b81905061142e565b5b9392505050565b6000815111156114485780518082602001fd5b6040517f1425ea4200000000000000000000000000000000000000000000000000000000815260040160405180910390fd5b6000604051905090565b600080fd5b600080fd5b6000819050919050565b6114a18161148e565b81146114ac57600080fd5b50565b6000813590506114be81611498565b92915050565b6000602082840312156114da576114d9611484565b5b60006114e8848285016114af565b91505092915050565b6114fa8161148e565b82525050565b600081519050919050565b600082825260208201905092915050565b60005b8381101561153a57808201518184015260208101905061151f565b60008484015250505050565b6000601f19601f8301169050919050565b600061156282611500565b61156c818561150b565b935061157c81856020860161151c565b61158581611546565b840191505092915050565b60008115159050919050565b6115a581611590565b82525050565b7f4e487b7100000000000000000000000000000000000000000000000000000000600052602160045260246000fd5b600281106115eb576115ea6115ab565b5b50565b60008190506115fc826115da565b919050565b600061160c826115ee565b9050919050565b61161c81611601565b82525050565b600061010082019050611638600083018b6114f1565b818103602083015261164a818a611557565b905061165960408301896114f1565b61166660608301886114f1565b61167360808301876114f1565b61168060a08301866114f1565b61168d60c083018561159c565b61169a60e0830184611613565b9998505050505050505050565b600060e0820190506116bc600083018a6114f1565b81810360208301526116ce8189611557565b90506116dd60408301886114f1565b6116ea60608301876114f1565b6116f760808301866114f1565b61170460a08301856114f1565b61171160c0830184611613565b98975050505050505050565b600073ffffffffffffffffffffffffffffffffffffffff82169050919050565b60006117488261171d565b9050919050565b6117588161173d565b811461176357600080fd5b50565b6000813590506117758161174f565b92915050565b6000806040838503121561179257611791611484565b5b60006117a085828601611766565b92505060206117b185828601611766565b9150509250929050565b600080fd5b600080fd5b7f4e487b7100000000000000000000000000000000000000000000000000000000600052604160045260246000fd5b6117fd82611546565b810181811067ffffffffffffffff8211171561181c5761181b6117c5565b5b80604052505050565b600061182f61147a565b905061183b82826117f4565b919050565b600067ffffffffffffffff82111561185b5761185a6117c5565b5b61186482611546565b9050602081019050919050565b82818337600083830152505050565b600061189361188e84611840565b611825565b9050828152602081018484840111156118af576118ae6117c0565b5b6118ba848285611871565b509392505050565b600082601f8301126118d7576118d66117bb565b5b81356118e7848260208601611880565b91505092915050565b6000806040838503121561190757611906611484565b5b600061191585828601611766565b925050602083013567ffffffffffffffff81111561193657611935611489565b5b611942858286016118c2565b9150509250929050565b6000819050919050565b61195f8161194c565b82525050565b600060208201905061197a6000830184611956565b92915050565b6000819050919050565b60006119a56119a061199b8461171d565b611980565b61171d565b9050919050565b60006119b78261198a565b9050919050565b60006119c9826119ac565b9050919050565b6119d9816119be565b82525050565b60006020820190506119f460008301846119d0565b92915050565b611a038161173d565b82525050565b6000602082019050611a1e60008301846119fa565b92915050565b60006020820190508181036000830152611a3e8184611557565b905092915050565b600067ffffffffffffffff821115611a6157611a606117c5565b5b611a6a82611546565b9050602081019050919050565b6000611a8a611a8584611a46565b611825565b905082815260208101848484011115611aa657611aa56117c0565b5b611ab1848285611871565b509392505050565b600082601f830112611ace57611acd6117bb565b5b8135611ade848260208601611a77565b91505092915050565b60028110611af457600080fd5b50565b600081359050611b0681611ae7565b92915050565b60008060008060808587031215611b2657611b25611484565b5b6000611b34878288016114af565b945050602085013567ffffffffffffffff811115611b5557611b54611489565b5b611b6187828801611ab9565b9350506040611b72878288016114af565b9250506060611b8387828801611af7565b91505092959194509250565b6000602082019050611ba460008301846114f1565b92915050565b611bb381611590565b8114611bbe57600080fd5b50565b600081359050611bd081611baa565b92915050565b60008060408385031215611bed57611bec611484565b5b6000611bfb858286016114af565b9250506020611c0c85828601611bc1565b9150509250929050565b600060208284031215611c2c57611c2b611484565b5b6000611c3a84828501611766565b91505092915050565b6000611c4e826119ac565b9050919050565b611c5e81611c43565b82525050565b6000602082019050611c796000830184611c55565b92915050565b7f4e487b7100000000000000000000000000000000000000000000000000000000600052602260045260246000fd5b60006002820490506001821680611cc657607f821691505b602082108103611cd957611cd8611c7f565b5b50919050565b6000819050919050565b600067ffffffffffffffff82169050919050565b6000611d18611d13611d0e84611cdf565b611980565b611ce9565b9050919050565b611d2881611cfd565b82525050565b6000602082019050611d436000830184611d1f565b92915050565b7f4e487b7100000000000000000000000000000000000000000000000000000000600052601160045260246000fd5b6000611d838261148e565b91507fffffffffffffffffffffffffffffffffffffffffffffffffffffffffffffffff8203611db557611db4611d49565b5b600182019050919050565b60008190508160005260206000209050919050565b60006020601f8301049050919050565b600082821b905092915050565b600060088302611e227fffffffffffffffffffffffffffffffffffffffffffffffffffffffffffffffff82611de5565b611e2c8683611de5565b95508019841693508086168417925050509392505050565b6000611e5f611e5a611e558461148e565b611980565b61148e565b9050919050565b6000819050919050565b611e7983611e44565b611e8d611e8582611e66565b848454611df2565b825550505050565b600090565b611ea2611e95565b611ead818484611e70565b505050565b5b81811015611ed157611ec6600082611e9a565b600181019050611eb3565b5050565b601f821115611f1657611ee781611dc0565b611ef084611dd5565b81016020851015611eff578190505b611f13611f0b85611dd5565b830182611eb2565b50505b505050565b600082821c905092915050565b6000611f3960001984600802611f1b565b1980831691505092915050565b6000611f528383611f28565b9150826002028217905092915050565b611f6b82611500565b67ffffffffffffffff811115611f8457611f836117c5565b5b611f8e8254611cae565b611f99828285611ed5565b600060209050601f831160018114611fcc5760008415611fba578287015190505b611fc48582611f46565b86555061202c565b601f198416611fda86611dc0565b60005b8281101561200257848901518255600182019150602085019450602081019050611fdd565b8683101561201f578489015161201b601f891682611f28565b8355505b6001600288020188555050505b505050505050565b600061203f8261148e565b915061204a8361148e565b925082820190508082111561206257612061611d49565b5b92915050565b600060808201905081810360008301526120828187611557565b905061209160208301866114f1565b61209e60408301856114f1565b6120ab6060830184611613565b95945050505050565b7f566f74696e67206973206e6f7420616374697665000000000000000000000000600082015250565b60006120ea60148361150b565b91506120f5826120b4565b602082019050919050565b60006020820190508181036000830152612119816120dd565b9050919050565b7f416c726561647920766f74656400000000000000000000000000000000000000600082015250565b6000612156600d8361150b565b915061216182612120565b602082019050919050565b6000602082019050818103600083015261218581612149565b9050919050565b60006020820190506121a1600083018461159c565b92915050565b6121b08161194c565b81146121bb57600080fd5b50565b6000815190506121cd816121a7565b92915050565b6000602082840312156121e9576121e8611484565b5b60006121f7848285016121be565b91505092915050565b600081519050919050565b600081905092915050565b600061222182612200565b61222b818561220b565b935061223b81856020860161151c565b80840191505092915050565b60006122538284612216565b91508190509291505056fea2646970667358221220b4d99be739a9e05caf6fc4dc09e3b094f46b7f3bbfdec4f2445cfd7d4d6a24b464736f6c63430008140033",
  "linkReferences": {},
  "deployedLinkReferences": {}
}