{
  "_format": "hh-sol-artifact-1",
  "contractName": "VotingMechanismUpgradeable",
  "sourceName": "contracts/VotingMechanismUpgradeable.sol",
  "abi": [
    {
      "inputs": [],
      "stateMutability": "nonpayable",
      "type": "constructor"
    },
    {
      "inputs": [
        {
          "internalType": "address",
          "name": "target",
          "type": "address"
        }
      ],
      "name": "AddressEmptyCode",
      "type": "error"
    },
    {
      "inputs": [
        {
          "internalType": "address",
          "name": "implementation",
          "type": "address"
        }
      ],
      "name": "ERC1967InvalidImplementation",
      "type": "error"
    },
    {
      "inputs": [],
      "name": "ERC1967NonPayable",
      "type": "error"
    },
    {
      "inputs": [],
      "name": "FailedInnerCall",
      "type": "error"
    },
    {
      "inputs": [],
      "name": "InvalidInitialization",
      "type": "error"
    },
    {
      "inputs": [],
      "name": "NotInitializing",
      "type": "error"
    },
    {
      "inputs": [
        {
          "internalType": "address",
          "name": "owner",
          "type": "address"
        }
      ],
      "name": "OwnableInvalidOwner",
      "type": "error"
    },
    {
      "inputs": [
        {
          "internalType": "address",
          "name": "account",
          "type": "address"
        }
      ],
      "name": "OwnableUnauthorizedAccount",
      "type": "error"
    },
    {
      "inputs": [],
      "name": "UUPSUnauthorizedCallContext",
      "type": "error"
    },
    {
      "inputs": [
        {
          "internalType": "bytes32",
          "name": "slot",
          "type": "bytes32"
        }
      ],
      "name": "UUPSUnsupportedProxiableUUID",
      "type": "error"
    },
    {
      "anonymous": false,
      "inputs": [
        {
          "indexed": false,
          "internalType": "uint64",
          "name": "version",
          "type": "uint64"
        }
      ],
      "name": "Initialized",
      "type": "event"
    },
    {
      "anonymous": false,
      "inputs": [
        {
          "indexed": true,
          "internalType": "address",
          "name": "previousOwner",
          "type": "address"
        },
        {
          "indexed": true,
          "internalType": "address",
          "name": "newOwner",
          "type": "address"
        }
      ],
      "name": "OwnershipTransferred",
      "type": "event"
    },
    {
      "anonymous": false,
      "inputs": [
        {
          "indexed": true,
          "internalType": "uint256",
          "name": "proposalId",
          "type": "uint256"
        },
        {
          "indexed": true,
          "internalType": "uint256",
          "name": "communityId",
          "type": "uint256"
        },
        {
          "indexed": false,
          "internalType": "string",
          "name": "description",
          "type": "string"
        },
        {
          "indexed": false,
          "internalType": "uint256",
          "name": "startTime",
          "type": "uint256"
        },
        {
          "indexed": false,
          "internalType": "uint256",
          "name": "endTime",
          "type": "uint256"
        }
      ],
      "name": "ProposalCreated",
      "type": "event"
    },
    {
      "anonymous": false,
      "inputs": [
        {
          "indexed": true,
          "internalType": "uint256",
          "name": "proposalId",
          "type": "uint256"
        }
      ],
      "name": "ProposalExecuted",
      "type": "event"
    },
    {
      "anonymous": false,
      "inputs": [
        {
          "indexed": true,
          "internalType": "address",
          "name": "implementation",
          "type": "address"
        }
      ],
      "name": "Upgraded",
      "type": "event"
    },
    {
      "anonymous": false,
      "inputs": [
        {
          "indexed": true,
          "internalType": "uint256",
          "name": "proposalId",
          "type": "uint256"
        },
        {
          "indexed": true,
          "internalType": "address",
          "name": "voter",
          "type": "address"
        },
        {
          "indexed": false,
          "internalType": "bool",
          "name": "support",
          "type": "bool"
        }
      ],
      "name": "Voted",
      "type": "event"
    },
    {
      "inputs": [],
      "name": "UPGRADE_INTERFACE_VERSION",
      "outputs": [
        {
          "internalType": "string",
          "name": "",
          "type": "string"
        }
      ],
      "stateMutability": "view",
      "type": "function"
    },
    {
      "inputs": [],
      "name": "communityDAO",
      "outputs": [
        {
          "internalType": "contract CommunityDAOUpgradeable",
          "name": "",
          "type": "address"
        }
      ],
      "stateMutability": "view",
      "type": "function"
    },
    {
      "inputs": [
        {
          "internalType": "uint256",
          "name": "_communityId",
          "type": "uint256"
        },
        {
          "internalType": "string",
          "name": "_description",
          "type": "string"
        },
        {
          "internalType": "uint256",
          "name": "_votingPeriod",
          "type": "uint256"
        }
      ],
      "name": "createProposal",
      "outputs": [],
      "stateMutability": "nonpayable",
      "type": "function"
    },
    {
      "inputs": [
        {
          "internalType": "uint256",
          "name": "_proposalId",
          "type": "uint256"
        }
      ],
      "name": "executeProposal",
      "outputs": [],
      "stateMutability": "nonpayable",
      "type": "function"
    },
    {
      "inputs": [
        {
          "internalType": "uint256",
          "name": "_proposalId",
          "type": "uint256"
        }
      ],
      "name": "getProposalDetails",
      "outputs": [
        {
          "internalType": "uint256",
          "name": "communityId",
          "type": "uint256"
        },
        {
          "internalType": "string",
          "name": "description",
          "type": "string"
        },
        {
          "internalType": "uint256",
          "name": "forVotes",
          "type": "uint256"
        },
        {
          "internalType": "uint256",
          "name": "againstVotes",
          "type": "uint256"
        },
        {
          "internalType": "uint256",
          "name": "startTime",
          "type": "uint256"
        },
        {
          "internalType": "uint256",
          "name": "endTime",
          "type": "uint256"
        },
        {
          "internalType": "bool",
          "name": "executed",
          "type": "bool"
        }
      ],
      "stateMutability": "view",
      "type": "function"
    },
    {
      "inputs": [],
      "name": "governanceToken",
      "outputs": [
        {
          "internalType": "contract GovernanceTokenUpgradeable",
          "name": "",
          "type": "address"
        }
      ],
      "stateMutability": "view",
      "type": "function"
    },
    {
      "inputs": [
        {
          "internalType": "address",
          "name": "_communityDAOAddress",
          "type": "address"
        },
        {
          "internalType": "address",
          "name": "_governanceTokenAddress",
          "type": "address"
        }
      ],
      "name": "initialize",
      "outputs": [],
      "stateMutability": "nonpayable",
      "type": "function"
    },
    {
      "inputs": [],
      "name": "owner",
      "outputs": [
        {
          "internalType": "address",
          "name": "",
          "type": "address"
        }
      ],
      "stateMutability": "view",
      "type": "function"
    },
    {
      "inputs": [],
      "name": "proposalCount",
      "outputs": [
        {
          "internalType": "uint256",
          "name": "",
          "type": "uint256"
        }
      ],
      "stateMutability": "view",
      "type": "function"
    },
    {
      "inputs": [
        {
          "internalType": "uint256",
          "name": "",
          "type": "uint256"
        }
      ],
      "name": "proposals",
      "outputs": [
        {
          "internalType": "uint256",
          "name": "communityId",
          "type": "uint256"
        },
        {
          "internalType": "string",
          "name": "description",
          "type": "string"
        },
        {
          "internalType": "uint256",
          "name": "forVotes",
          "type": "uint256"
        },
        {
          "internalType": "uint256",
          "name": "againstVotes",
          "type": "uint256"
        },
        {
          "internalType": "uint256",
          "name": "startTime",
          "type": "uint256"
        },
        {
          "internalType": "uint256",
          "name": "endTime",
          "type": "uint256"
        },
        {
          "internalType": "bool",
          "name": "executed",
          "type": "bool"
        }
      ],
      "stateMutability": "view",
      "type": "function"
    },
    {
      "inputs": [],
      "name": "proxiableUUID",
      "outputs": [
        {
          "internalType": "bytes32",
          "name": "",
          "type": "bytes32"
        }
      ],
      "stateMutability": "view",
      "type": "function"
    },
    {
      "inputs": [],
      "name": "renounceOwnership",
      "outputs": [],
      "stateMutability": "nonpayable",
      "type": "function"
    },
    {
      "inputs": [
        {
          "internalType": "address",
          "name": "newOwner",
          "type": "address"
        }
      ],
      "name": "transferOwnership",
      "outputs": [],
      "stateMutability": "nonpayable",
      "type": "function"
    },
    {
      "inputs": [
        {
          "internalType": "address",
          "name": "newImplementation",
          "type": "address"
        },
        {
          "internalType": "bytes",
          "name": "data",
          "type": "bytes"
        }
      ],
      "name": "upgradeToAndCall",
      "outputs": [],
      "stateMutability": "payable",
      "type": "function"
    },
    {
      "inputs": [
        {
          "internalType": "uint256",
          "name": "_proposalId",
          "type": "uint256"
        },
        {
          "internalType": "bool",
          "name": "_support",
          "type": "bool"
        }
      ],
      "name": "vote",
      "outputs": [],
      "stateMutability": "nonpayable",
      "type": "function"
    }
  ],
  "bytecode": "0x60a06040523073ffffffffffffffffffffffffffffffffffffffff1660809073ffffffffffffffffffffffffffffffffffffffff168152503480156200004457600080fd5b50620000556200005b60201b60201c565b620001cf565b60006200006d6200016560201b60201c565b90508060000160089054906101000a900460ff1615620000b9576040517ff92ee8a900000000000000000000000000000000000000000000000000000000815260040160405180910390fd5b67ffffffffffffffff80168160000160009054906101000a900467ffffffffffffffff1667ffffffffffffffff1614620001625767ffffffffffffffff8160000160006101000a81548167ffffffffffffffff021916908367ffffffffffffffff1602179055507fc7f505b2f371ae2175ee4913f4499e1f2633a7b5936321eed1cdaeb6115181d267ffffffffffffffff604051620001599190620001b2565b60405180910390a15b50565b60007ff0c57e16840df040f15088dc2f81fe391c3923bec73e23a9662efc9c229c6a00905090565b600067ffffffffffffffff82169050919050565b620001ac816200018d565b82525050565b6000602082019050620001c96000830184620001a1565b92915050565b60805161256e620001f960003960008181610ea901528181610efe01526110b9015261256e6000f3fe6080604052600436106100e85760003560e01c80638207546e1161008a578063c9d27afe11610059578063c9d27afe146102cd578063da35c664146102f6578063f2fde38b14610321578063f96dae0a1461034a576100e8565b80638207546e146102235780638da5cb5b1461024e578063a891bfa914610279578063ad3cb1cc146102a2576100e8565b8063485cc955116100c6578063485cc9551461019c5780634f1ef286146101c557806352d1902d146101e1578063715018a61461020c576100e8565b8063013cf08b146100ed5780630d61b519146101305780633b4d01a714610159575b600080fd5b3480156100f957600080fd5b50610114600480360381019061010f9190611732565b610375565b6040516101279796959493929190611819565b60405180910390f35b34801561013c57600080fd5b5061015760048036038101906101529190611732565b61044c565b005b34801561016557600080fd5b50610180600480360381019061017b9190611732565b610549565b6040516101939796959493929190611819565b60405180910390f35b3480156101a857600080fd5b506101c360048036038101906101be91906118ed565b610640565b005b6101df60048036038101906101da9190611a62565b610859565b005b3480156101ed57600080fd5b506101f6610878565b6040516102039190611ad7565b60405180910390f35b34801561021857600080fd5b506102216108ab565b005b34801561022f57600080fd5b506102386108bf565b6040516102459190611b51565b60405180910390f35b34801561025a57600080fd5b506102636108e3565b6040516102709190611b7b565b60405180910390f35b34801561028557600080fd5b506102a0600480360381019061029b9190611c37565b61091b565b005b3480156102ae57600080fd5b506102b7610aac565b6040516102c49190611ca6565b60405180910390f35b3480156102d957600080fd5b506102f460048036038101906102ef9190611cf4565b610ae5565b005b34801561030257600080fd5b5061030b610daf565b6040516103189190611d34565b60405180910390f35b34801561032d57600080fd5b5061034860048036038101906103439190611d4f565b610db5565b005b34801561035657600080fd5b5061035f610e3b565b60405161036c9190611d9d565b60405180910390f35b600260205280600052604060002060009150905080600001549080600101805461039e90611de7565b80601f01602080910402602001604051908101604052809291908181526020018280546103ca90611de7565b80156104175780601f106103ec57610100808354040283529160200191610417565b820191906000526020600020905b8154815290600101906020018083116103fa57829003601f168201915b5050505050908060020154908060030154908060040154908060050154908060060160009054906101000a900460ff16905087565b6000600260008381526020019081526020016000209050806005015442116104a9576040517f08c379a00000000000000000000000000000000000000000000000000000000081526004016104a090611e64565b60405180910390fd5b8060060160009054906101000a900460ff16156104fb576040517f08c379a00000000000000000000000000000000000000000000000000000000081526004016104f290611ed0565b60405180910390fd5b60018160060160006101000a81548160ff021916908315150217905550817f712ae1383f79ac853f8d882153778e0260ef8f03b504e2866e0593e04d2b291f60405160405180910390a25050565b60006060600080600080600080600260008a8152602001908152602001600020905080600001548160010182600201548360030154846004015485600501548660060160009054906101000a900460ff168580546105a690611de7565b80601f01602080910402602001604051908101604052809291908181526020018280546105d290611de7565b801561061f5780601f106105f45761010080835404028352916020019161061f565b820191906000526020600020905b81548152906001019060200180831161060257829003601f168201915b50505050509550975097509750975097509750975050919395979092949650565b600061064a610e61565b905060008160000160089054906101000a900460ff1615905060008260000160009054906101000a900467ffffffffffffffff1690506000808267ffffffffffffffff161480156106985750825b9050600060018367ffffffffffffffff161480156106cd575060003073ffffffffffffffffffffffffffffffffffffffff163b145b9050811580156106db575080155b15610712576040517ff92ee8a900000000000000000000000000000000000000000000000000000000815260040160405180910390fd5b60018560000160006101000a81548167ffffffffffffffff021916908367ffffffffffffffff16021790555083156107625760018560000160086101000a81548160ff0219169083151502179055505b61076b33610e89565b610773610e9d565b866000806101000a81548173ffffffffffffffffffffffffffffffffffffffff021916908373ffffffffffffffffffffffffffffffffffffffff16021790555085600160006101000a81548173ffffffffffffffffffffffffffffffffffffffff021916908373ffffffffffffffffffffffffffffffffffffffff16021790555083156108505760008560000160086101000a81548160ff0219169083151502179055507fc7f505b2f371ae2175ee4913f4499e1f2633a7b5936321eed1cdaeb6115181d260016040516108479190611f3f565b60405180910390a15b50505050505050565b610861610ea7565b61086a82610f8d565b6108748282610f98565b5050565b60006108826110b7565b7f360894a13ba1a3210667c828492db98dca3e2076cc3735a920a3ca505d382bbc60001b905090565b6108b361113e565b6108bd60006111c5565b565b60008054906101000a900473ffffffffffffffffffffffffffffffffffffffff1681565b6000806108ee61129c565b90508060000160009054906101000a900473ffffffffffffffffffffffffffffffffffffffff1691505090565b60008054906101000a900473ffffffffffffffffffffffffffffffffffffffff1673ffffffffffffffffffffffffffffffffffffffff16637d9e10f584336040518363ffffffff1660e01b8152600401610976929190611f5a565b602060405180830381865afa158015610993573d6000803e3d6000fd5b505050506040513d601f19601f820116820180604052508101906109b79190611f98565b6109f6576040517f08c379a00000000000000000000000000000000000000000000000000000000081526004016109ed90612011565b60405180910390fd5b60036000815480929190610a0990612060565b91905055506000600260006003548152602001908152602001600020905083816000018190555082816001019081610a41919061224a565b504281600401819055508142610a57919061231c565b8160050181905550836003547fb875055faeaeb13ece071a9dcef87f7f0d1208fc08e78e6b89c6ed8906b7c86d8584600401548560050154604051610a9e93929190612350565b60405180910390a350505050565b6040518060400160405280600581526020017f352e302e3000000000000000000000000000000000000000000000000000000081525081565b600060026000848152602001908152602001600020905080600401544210158015610b14575080600501544211155b610b53576040517f08c379a0000000000000000000000000000000000000000000000000000000008152600401610b4a906123da565b60405180910390fd5b60008054906101000a900473ffffffffffffffffffffffffffffffffffffffff1673ffffffffffffffffffffffffffffffffffffffff16637d9e10f58260000154336040518363ffffffff1660e01b8152600401610bb2929190611f5a565b602060405180830381865afa158015610bcf573d6000803e3d6000fd5b505050506040513d601f19601f82011682018060405250810190610bf39190611f98565b610c32576040517f08c379a0000000000000000000000000000000000000000000000000000000008152600401610c2990612011565b60405180910390fd5b8060070160003373ffffffffffffffffffffffffffffffffffffffff1673ffffffffffffffffffffffffffffffffffffffff16815260200190815260200160002060009054906101000a900460ff1615610cc1576040517f08c379a0000000000000000000000000000000000000000000000000000000008152600401610cb890612446565b60405180910390fd5b60018160070160003373ffffffffffffffffffffffffffffffffffffffff1673ffffffffffffffffffffffffffffffffffffffff16815260200190815260200160002060006101000a81548160ff0219169083151502179055508115610d4057806002016000815480929190610d3690612060565b9190505550610d5b565b806003016000815480929190610d5590612060565b91905055505b3373ffffffffffffffffffffffffffffffffffffffff16837ff2913dbe661ee2acc4a046d8fbcdc792373bda34c41c6086484b5345e5785e5f84604051610da29190612466565b60405180910390a3505050565b60035481565b610dbd61113e565b600073ffffffffffffffffffffffffffffffffffffffff168173ffffffffffffffffffffffffffffffffffffffff1603610e2f5760006040517f1e4fbdf7000000000000000000000000000000000000000000000000000000008152600401610e269190611b7b565b60405180910390fd5b610e38816111c5565b50565b600160009054906101000a900473ffffffffffffffffffffffffffffffffffffffff1681565b60007ff0c57e16840df040f15088dc2f81fe391c3923bec73e23a9662efc9c229c6a00905090565b610e916112c4565b610e9a81611304565b50565b610ea56112c4565b565b7f000000000000000000000000000000000000000000000000000000000000000073ffffffffffffffffffffffffffffffffffffffff163073ffffffffffffffffffffffffffffffffffffffff161480610f5457507f000000000000000000000000000000000000000000000000000000000000000073ffffffffffffffffffffffffffffffffffffffff16610f3b61138a565b73ffffffffffffffffffffffffffffffffffffffff1614155b15610f8b576040517fe07c8dba00000000000000000000000000000000000000000000000000000000815260040160405180910390fd5b565b610f9561113e565b50565b8173ffffffffffffffffffffffffffffffffffffffff166352d1902d6040518163ffffffff1660e01b8152600401602060405180830381865afa92505050801561100057506040513d601f19601f82011682018060405250810190610ffd91906124ad565b60015b61104157816040517f4c9c8ce30000000000000000000000000000000000000000000000000000000081526004016110389190611b7b565b60405180910390fd5b7f360894a13ba1a3210667c828492db98dca3e2076cc3735a920a3ca505d382bbc60001b81146110a857806040517faa1d49a400000000000000000000000000000000000000000000000000000000815260040161109f9190611ad7565b60405180910390fd5b6110b283836113e1565b505050565b7f000000000000000000000000000000000000000000000000000000000000000073ffffffffffffffffffffffffffffffffffffffff163073ffffffffffffffffffffffffffffffffffffffff161461113c576040517fe07c8dba00000000000000000000000000000000000000000000000000000000815260040160405180910390fd5b565b611146611454565b73ffffffffffffffffffffffffffffffffffffffff166111646108e3565b73ffffffffffffffffffffffffffffffffffffffff16146111c357611187611454565b6040517f118cdaa70000000000000000000000000000000000000000000000000000000081526004016111ba9190611b7b565b60405180910390fd5b565b60006111cf61129c565b905060008160000160009054906101000a900473ffffffffffffffffffffffffffffffffffffffff169050828260000160006101000a81548173ffffffffffffffffffffffffffffffffffffffff021916908373ffffffffffffffffffffffffffffffffffffffff1602179055508273ffffffffffffffffffffffffffffffffffffffff168173ffffffffffffffffffffffffffffffffffffffff167f8be0079c531659141344cd1fd0a4f28419497f9722a3daafe3b4186f6b6457e060405160405180910390a3505050565b60007f9016d09d72d40fdae2fd8ceac6b6234c7706214fd39c1cd1e609a0528c199300905090565b6112cc61145c565b611302576040517fd7e6bcf800000000000000000000000000000000000000000000000000000000815260040160405180910390fd5b565b61130c6112c4565b600073ffffffffffffffffffffffffffffffffffffffff168173ffffffffffffffffffffffffffffffffffffffff160361137e5760006040517f1e4fbdf70000000000000000000000000000000000000000000000000000000081526004016113759190611b7b565b60405180910390fd5b611387816111c5565b50565b60006113b87f360894a13ba1a3210667c828492db98dca3e2076cc3735a920a3ca505d382bbc60001b61147c565b60000160009054906101000a900473ffffffffffffffffffffffffffffffffffffffff16905090565b6113ea82611486565b8173ffffffffffffffffffffffffffffffffffffffff167fbc7cd75a20ee27fd9adebab32041f755214dbc6bffa90cc0225b39da2e5c2d3b60405160405180910390a2600081511115611447576114418282611553565b50611450565b61144f6115d7565b5b5050565b600033905090565b6000611466610e61565b60000160089054906101000a900460ff16905090565b6000819050919050565b60008173ffffffffffffffffffffffffffffffffffffffff163b036114e257806040517f4c9c8ce30000000000000000000000000000000000000000000000000000000081526004016114d99190611b7b565b60405180910390fd5b8061150f7f360894a13ba1a3210667c828492db98dca3e2076cc3735a920a3ca505d382bbc60001b61147c565b60000160006101000a81548173ffffffffffffffffffffffffffffffffffffffff021916908373ffffffffffffffffffffffffffffffffffffffff16021790555050565b60606000808473ffffffffffffffffffffffffffffffffffffffff168460405161157d9190612521565b600060405180830381855af49150503d80600081146115b8576040519150601f19603f3d011682016040523d82523d6000602084013e6115bd565b606091505b50915091506115cd858383611614565b9250505092915050565b6000341115611612576040517fb398979f00000000000000000000000000000000000000000000000000000000815260040160405180910390fd5b565b60608261162957611624826116a3565b61169b565b60008251148015611651575060008473ffffffffffffffffffffffffffffffffffffffff163b145b1561169357836040517f9996b31500000000000000000000000000000000000000000000000000000000815260040161168a9190611b7b565b60405180910390fd5b81905061169c565b5b9392505050565b6000815111156116b65780518082602001fd5b6040517f1425ea4200000000000000000000000000000000000000000000000000000000815260040160405180910390fd5b6000604051905090565b600080fd5b600080fd5b6000819050919050565b61170f816116fc565b811461171a57600080fd5b50565b60008135905061172c81611706565b92915050565b600060208284031215611748576117476116f2565b5b60006117568482850161171d565b91505092915050565b611768816116fc565b82525050565b600081519050919050565b600082825260208201905092915050565b60005b838110156117a857808201518184015260208101905061178d565b60008484015250505050565b6000601f19601f8301169050919050565b60006117d08261176e565b6117da8185611779565b93506117ea81856020860161178a565b6117f3816117b4565b840191505092915050565b60008115159050919050565b611813816117fe565b82525050565b600060e08201905061182e600083018a61175f565b818103602083015261184081896117c5565b905061184f604083018861175f565b61185c606083018761175f565b611869608083018661175f565b61187660a083018561175f565b61188360c083018461180a565b98975050505050505050565b600073ffffffffffffffffffffffffffffffffffffffff82169050919050565b60006118ba8261188f565b9050919050565b6118ca816118af565b81146118d557600080fd5b50565b6000813590506118e7816118c1565b92915050565b60008060408385031215611904576119036116f2565b5b6000611912858286016118d8565b9250506020611923858286016118d8565b9150509250929050565b600080fd5b600080fd5b7f4e487b7100000000000000000000000000000000000000000000000000000000600052604160045260246000fd5b61196f826117b4565b810181811067ffffffffffffffff8211171561198e5761198d611937565b5b80604052505050565b60006119a16116e8565b90506119ad8282611966565b919050565b600067ffffffffffffffff8211156119cd576119cc611937565b5b6119d6826117b4565b9050602081019050919050565b82818337600083830152505050565b6000611a05611a00846119b2565b611997565b905082815260208101848484011115611a2157611a20611932565b5b611a2c8482856119e3565b509392505050565b600082601f830112611a4957611a4861192d565b5b8135611a598482602086016119f2565b91505092915050565b60008060408385031215611a7957611a786116f2565b5b6000611a87858286016118d8565b925050602083013567ffffffffffffffff811115611aa857611aa76116f7565b5b611ab485828601611a34565b9150509250929050565b6000819050919050565b611ad181611abe565b82525050565b6000602082019050611aec6000830184611ac8565b92915050565b6000819050919050565b6000611b17611b12611b0d8461188f565b611af2565b61188f565b9050919050565b6000611b2982611afc565b9050919050565b6000611b3b82611b1e565b9050919050565b611b4b81611b30565b82525050565b6000602082019050611b666000830184611b42565b92915050565b611b75816118af565b82525050565b6000602082019050611b906000830184611b6c565b92915050565b600067ffffffffffffffff821115611bb157611bb0611937565b5b611bba826117b4565b9050602081019050919050565b6000611bda611bd584611b96565b611997565b905082815260208101848484011115611bf657611bf5611932565b5b611c018482856119e3565b509392505050565b600082601f830112611c1e57611c1d61192d565b5b8135611c2e848260208601611bc7565b91505092915050565b600080600060608486031215611c5057611c4f6116f2565b5b6000611c5e8682870161171d565b935050602084013567ffffffffffffffff811115611c7f57611c7e6116f7565b5b611c8b86828701611c09565b9250506040611c9c8682870161171d565b9150509250925092565b60006020820190508181036000830152611cc081846117c5565b905092915050565b611cd1816117fe565b8114611cdc57600080fd5b50565b600081359050611cee81611cc8565b92915050565b60008060408385031215611d0b57611d0a6116f2565b5b6000611d198582860161171d565b9250506020611d2a85828601611cdf565b9150509250929050565b6000602082019050611d49600083018461175f565b92915050565b600060208284031215611d6557611d646116f2565b5b6000611d73848285016118d8565b91505092915050565b6000611d8782611b1e565b9050919050565b611d9781611d7c565b82525050565b6000602082019050611db26000830184611d8e565b92915050565b7f4e487b7100000000000000000000000000000000000000000000000000000000600052602260045260246000fd5b60006002820490506001821680611dff57607f821691505b602082108103611e1257611e11611db8565b5b50919050565b7f566f74696e6720706572696f64206e6f7420656e646564000000000000000000600082015250565b6000611e4e601783611779565b9150611e5982611e18565b602082019050919050565b60006020820190508181036000830152611e7d81611e41565b9050919050565b7f50726f706f73616c20616c726561647920657865637574656400000000000000600082015250565b6000611eba601983611779565b9150611ec582611e84565b602082019050919050565b60006020820190508181036000830152611ee981611ead565b9050919050565b6000819050919050565b600067ffffffffffffffff82169050919050565b6000611f29611f24611f1f84611ef0565b611af2565b611efa565b9050919050565b611f3981611f0e565b82525050565b6000602082019050611f546000830184611f30565b92915050565b6000604082019050611f6f600083018561175f565b611f7c6020830184611b6c565b9392505050565b600081519050611f9281611cc8565b92915050565b600060208284031215611fae57611fad6116f2565b5b6000611fbc84828501611f83565b91505092915050565b7f4e6f74206120636f6d6d756e697479206d656d62657200000000000000000000600082015250565b6000611ffb601683611779565b915061200682611fc5565b602082019050919050565b6000602082019050818103600083015261202a81611fee565b9050919050565b7f4e487b7100000000000000000000000000000000000000000000000000000000600052601160045260246000fd5b600061206b826116fc565b91507fffffffffffffffffffffffffffffffffffffffffffffffffffffffffffffffff820361209d5761209c612031565b5b600182019050919050565b60008190508160005260206000209050919050565b60006020601f8301049050919050565b600082821b905092915050565b60006008830261210a7fffffffffffffffffffffffffffffffffffffffffffffffffffffffffffffffff826120cd565b61211486836120cd565b95508019841693508086168417925050509392505050565b600061214761214261213d846116fc565b611af2565b6116fc565b9050919050565b6000819050919050565b6121618361212c565b61217561216d8261214e565b8484546120da565b825550505050565b600090565b61218a61217d565b612195818484612158565b505050565b5b818110156121b9576121ae600082612182565b60018101905061219b565b5050565b601f8211156121fe576121cf816120a8565b6121d8846120bd565b810160208510156121e7578190505b6121fb6121f3856120bd565b83018261219a565b50505b505050565b600082821c905092915050565b600061222160001984600802612203565b1980831691505092915050565b600061223a8383612210565b9150826002028217905092915050565b6122538261176e565b67ffffffffffffffff81111561226c5761226b611937565b5b6122768254611de7565b6122818282856121bd565b600060209050601f8311600181146122b457600084156122a2578287015190505b6122ac858261222e565b865550612314565b601f1984166122c2866120a8565b60005b828110156122ea578489015182556001820191506020850194506020810190506122c5565b868310156123075784890151612303601f891682612210565b8355505b6001600288020188555050505b505050505050565b6000612327826116fc565b9150612332836116fc565b925082820190508082111561234a57612349612031565b5b92915050565b6000606082019050818103600083015261236a81866117c5565b9050612379602083018561175f565b612386604083018461175f565b949350505050565b7f566f74696e67206973206e6f7420616374697665000000000000000000000000600082015250565b60006123c4601483611779565b91506123cf8261238e565b602082019050919050565b600060208201905081810360008301526123f3816123b7565b9050919050565b7f416c726561647920766f74656400000000000000000000000000000000000000600082015250565b6000612430600d83611779565b915061243b826123fa565b602082019050919050565b6000602082019050818103600083015261245f81612423565b9050919050565b600060208201905061247b600083018461180a565b92915050565b61248a81611abe565b811461249557600080fd5b50565b6000815190506124a781612481565b92915050565b6000602082840312156124c3576124c26116f2565b5b60006124d184828501612498565b91505092915050565b600081519050919050565b600081905092915050565b60006124fb826124da565b61250581856124e5565b935061251581856020860161178a565b80840191505092915050565b600061252d82846124f0565b91508190509291505056fea26469706673582212205d239d1fd05a367432490fc967fca86de0f6035cbc65ec72cd595e4352155c8564736f6c63430008140033",
  "linkReferences": {},
  "deployedLinkReferences": {}
}